{
	"src/MultiSig.sol": {
		"MultiSigWallet": {
			"abi": [
				{
					"inputs": [],
					"stateMutability": "nonpayable",
					"type": "constructor"
				},
				{
					"inputs": [
						{
							"internalType": "address",
							"name": "target",
							"type": "address"
						}
					],
					"name": "AddressEmptyCode",
					"type": "error"
				},
				{
					"inputs": [
						{
							"internalType": "address",
							"name": "implementation",
							"type": "address"
						}
					],
					"name": "ERC1967InvalidImplementation",
					"type": "error"
				},
				{
					"inputs": [],
					"name": "ERC1967NonPayable",
					"type": "error"
				},
				{
					"inputs": [],
					"name": "FailedInnerCall",
					"type": "error"
				},
				{
					"inputs": [],
					"name": "InvalidInitialization",
					"type": "error"
				},
				{
					"inputs": [],
					"name": "MultiSigWallet_NoOwners",
					"type": "error"
				},
				{
					"inputs": [],
					"name": "MultiSigWallet_NotSigner",
					"type": "error"
				},
				{
					"inputs": [],
					"name": "NotInitializing",
					"type": "error"
				},
				{
					"inputs": [],
					"name": "UUPSUnauthorizedCallContext",
					"type": "error"
				},
				{
					"inputs": [
						{
							"internalType": "bytes32",
							"name": "slot",
							"type": "bytes32"
						}
					],
					"name": "UUPSUnsupportedProxiableUUID",
					"type": "error"
				},
				{
					"anonymous": false,
					"inputs": [
						{
							"indexed": false,
							"internalType": "uint64",
							"name": "version",
							"type": "uint64"
						}
					],
					"name": "Initialized",
					"type": "event"
				},
				{
					"anonymous": false,
					"inputs": [
						{
							"indexed": true,
							"internalType": "address",
							"name": "implementation",
							"type": "address"
						}
					],
					"name": "Upgraded",
					"type": "event"
				},
				{
					"inputs": [],
					"name": "UPGRADE_INTERFACE_VERSION",
					"outputs": [
						{
							"internalType": "string",
							"name": "",
							"type": "string"
						}
					],
					"stateMutability": "view",
					"type": "function"
				},
				{
					"inputs": [
						{
							"internalType": "bytes",
							"name": "signature",
							"type": "bytes"
						},
						{
							"internalType": "bytes",
							"name": "functionData",
							"type": "bytes"
						},
						{
							"internalType": "address",
							"name": "dest",
							"type": "address"
						},
						{
							"internalType": "uint256",
							"name": "nonce",
							"type": "uint256"
						}
					],
					"name": "checkSignature",
					"outputs": [
						{
							"internalType": "uint256",
							"name": "",
							"type": "uint256"
						}
					],
					"stateMutability": "view",
					"type": "function"
				},
				{
					"inputs": [
						{
							"internalType": "address",
							"name": "dest",
							"type": "address"
						},
						{
							"internalType": "bytes",
							"name": "functionData",
							"type": "bytes"
						},
						{
							"internalType": "bytes",
							"name": "signature",
							"type": "bytes"
						},
						{
							"internalType": "uint256",
							"name": "nonce",
							"type": "uint256"
						}
					],
					"name": "execute",
					"outputs": [],
					"stateMutability": "nonpayable",
					"type": "function"
				},
				{
					"inputs": [],
					"name": "getMinimumRequiredSignatures",
					"outputs": [
						{
							"internalType": "uint256",
							"name": "",
							"type": "uint256"
						}
					],
					"stateMutability": "view",
					"type": "function"
				},
				{
					"inputs": [],
					"name": "getSigners",
					"outputs": [
						{
							"internalType": "address[]",
							"name": "",
							"type": "address[]"
						}
					],
					"stateMutability": "view",
					"type": "function"
				},
				{
					"inputs": [
						{
							"internalType": "address",
							"name": "dest",
							"type": "address"
						},
						{
							"internalType": "bytes",
							"name": "functionData",
							"type": "bytes"
						},
						{
							"internalType": "uint256",
							"name": "nonce",
							"type": "uint256"
						}
					],
					"name": "getTransactionHash",
					"outputs": [
						{
							"internalType": "bytes32",
							"name": "",
							"type": "bytes32"
						}
					],
					"stateMutability": "pure",
					"type": "function"
				},
				{
					"inputs": [
						{
							"internalType": "address[]",
							"name": "initialOwners",
							"type": "address[]"
						},
						{
							"internalType": "uint256",
							"name": "minRequiredSignatures",
							"type": "uint256"
						}
					],
					"name": "initialize",
					"outputs": [],
					"stateMutability": "nonpayable",
					"type": "function"
				},
				{
					"inputs": [],
					"name": "proxiableUUID",
					"outputs": [
						{
							"internalType": "bytes32",
							"name": "",
							"type": "bytes32"
						}
					],
					"stateMutability": "view",
					"type": "function"
				},
				{
					"inputs": [
						{
							"internalType": "bytes32",
							"name": "hash",
							"type": "bytes32"
						},
						{
							"internalType": "bytes",
							"name": "signature",
							"type": "bytes"
						}
					],
					"name": "recover",
					"outputs": [
						{
							"internalType": "address",
							"name": "",
							"type": "address"
						}
					],
					"stateMutability": "pure",
					"type": "function"
				},
				{
					"inputs": [
						{
							"internalType": "bytes32",
							"name": "hash",
							"type": "bytes32"
						}
					],
					"name": "toEthSignedMessageHash",
					"outputs": [
						{
							"internalType": "bytes32",
							"name": "",
							"type": "bytes32"
						}
					],
					"stateMutability": "pure",
					"type": "function"
				},
				{
					"inputs": [
						{
							"internalType": "address",
							"name": "newImplementation",
							"type": "address"
						},
						{
							"internalType": "bytes",
							"name": "data",
							"type": "bytes"
						}
					],
					"name": "upgradeToAndCall",
					"outputs": [],
					"stateMutability": "payable",
					"type": "function"
				},
				{
					"stateMutability": "payable",
					"type": "receive"
				}
			],
			"devdoc": {
				"errors": {
					"AddressEmptyCode(address)": [
						{
							"details": "There's no code at `target` (it is not a contract)."
						}
					],
					"ERC1967InvalidImplementation(address)": [
						{
							"details": "The `implementation` of the proxy is invalid."
						}
					],
					"ERC1967NonPayable()": [
						{
							"details": "An upgrade function sees `msg.value > 0` that may be lost."
						}
					],
					"FailedInnerCall()": [
						{
							"details": "A call to an address target failed. The target may have reverted."
						}
					],
					"InvalidInitialization()": [
						{
							"details": "The contract is already initialized."
						}
					],
					"NotInitializing()": [
						{
							"details": "The contract is not initializing."
						}
					],
					"UUPSUnauthorizedCallContext()": [
						{
							"details": "The call is from an unauthorized context."
						}
					],
					"UUPSUnsupportedProxiableUUID(bytes32)": [
						{
							"details": "The storage `slot` is unsupported as a UUID."
						}
					]
				},
				"events": {
					"Initialized(uint64)": {
						"details": "Triggered when the contract has been initialized or reinitialized."
					},
					"Upgraded(address)": {
						"details": "Emitted when the implementation is upgraded."
					}
				},
				"kind": "dev",
				"methods": {
					"proxiableUUID()": {
						"details": "Implementation of the ERC1822 {proxiableUUID} function. This returns the storage slot used by the implementation. It is used to validate the implementation's compatibility when performing an upgrade. IMPORTANT: A proxy pointing at a proxiable contract should not be considered proxiable itself, because this risks bricking a proxy that upgrades to it, by delegating to itself until out of gas. Thus it is critical that this function revert if invoked through a proxy. This is guaranteed by the `notDelegated` modifier."
					},
					"recover(bytes32,bytes)": {
						"details": "Returns the address that signed a hashed message (`hash`) with `signature`. This address can then be used for verification purposes. The `ecrecover` EVM opcode allows for malleable (non-unique) signatures: this function rejects them by requiring the `s` value to be in the lower half order, and the `v` value to be either 27 or 28. IMPORTANT: `hash` _must_ be the result of a hash operation for the verification to be secure: it is possible to craft signatures that recover to arbitrary addresses for non-hashed data. A safe way to ensure this is by receiving a hash of the original message (which may otherwise be too long), and then calling {toEthSignedMessageHash} on it."
					},
					"toEthSignedMessageHash(bytes32)": {
						"details": "Returns an Ethereum Signed Message, created from a `hash`. This produces hash corresponding to the one signed with the https://eth.wiki/json-rpc/API#eth_sign[`eth_sign`] JSON-RPC method as part of EIP-191. See {recover}."
					},
					"upgradeToAndCall(address,bytes)": {
						"custom:oz-upgrades-unsafe-allow-reachable": "delegatecall",
						"details": "Upgrade the implementation of the proxy to `newImplementation`, and subsequently execute the function call encoded in `data`. Calls {_authorizeUpgrade}. Emits an {Upgraded} event."
					}
				},
				"version": 1
			},
			"evm": {
				"assembly": "    /* \"src/MultiSig.sol\":5967:9050  contract MultiSigWallet is ECDSA, Initializable, UUPSUpgradeable {... */\n  mstore(0x40, 0xa0)\n    /* \"lib/openzeppelin-contracts-upgradeable/lib/openzeppelin-contracts/contracts/proxy/utils/UUPSUpgradeable.sol\":1060:1064  this */\n  address\n    /* \"lib/openzeppelin-contracts-upgradeable/lib/openzeppelin-contracts/contracts/proxy/utils/UUPSUpgradeable.sol\":1017:1065  address private immutable __self = address(this) */\n  0xffffffffffffffffffffffffffffffffffffffff\n  and\n  0x80\n  swap1\n  0xffffffffffffffffffffffffffffffffffffffff\n  and\n  dup2\n  mstore\n  pop\n    /* \"src/MultiSig.sol\":6576:6592  constructor() {} */\n  callvalue\n  dup1\n  iszero\n  tag_1\n  jumpi\n  0x00\n  dup1\n  revert\ntag_1:\n  pop\n    /* \"src/MultiSig.sol\":5967:9050  contract MultiSigWallet is ECDSA, Initializable, UUPSUpgradeable {... */\n  mload(0x80)\n  codecopy(0x00, dataOffset(sub_0), dataSize(sub_0))\n  0x00\n  assignImmutable(\"0x71c24ce59180130dc1b5c3ebcbddeb1cf32dae46f5ec55f50a3074f581ef8c07\")\n  return(0x00, dataSize(sub_0))\nstop\n\nsub_0: assembly {\n        /* \"src/MultiSig.sol\":5967:9050  contract MultiSigWallet is ECDSA, Initializable, UUPSUpgradeable {... */\n      mstore(0x40, 0x80)\n      jumpi(tag_1, lt(calldatasize, 0x04))\n      shr(0xe0, calldataload(0x00))\n      dup1\n      0x60b5bb3f\n      gt\n      tag_14\n      jumpi\n      dup1\n      0x60b5bb3f\n      eq\n      tag_8\n      jumpi\n      dup1\n      0x72a26031\n      eq\n      tag_9\n      jumpi\n      dup1\n      0x918a15cf\n      eq\n      tag_10\n      jumpi\n      dup1\n      0x94cf795e\n      eq\n      tag_11\n      jumpi\n      dup1\n      0xad3cb1cc\n      eq\n      tag_12\n      jumpi\n      dup1\n      0xee9a4550\n      eq\n      tag_13\n      jumpi\n      jump(tag_2)\n    tag_14:\n      dup1\n      0x19045a25\n      eq\n      tag_3\n      jumpi\n      dup1\n      0x24951ba1\n      eq\n      tag_4\n      jumpi\n      dup1\n      0x4f1ef286\n      eq\n      tag_5\n      jumpi\n      dup1\n      0x52d1902d\n      eq\n      tag_6\n      jumpi\n      dup1\n      0x5c37410b\n      eq\n      tag_7\n      jumpi\n      jump(tag_2)\n    tag_1:\n      jumpi(tag_2, calldatasize)\n      stop\n    tag_2:\n      0x00\n      dup1\n      revert\n        /* \"src/MultiSig.sol\":1478:3052  function recover(... */\n    tag_3:\n      callvalue\n      dup1\n      iszero\n      tag_17\n      jumpi\n      0x00\n      dup1\n      revert\n    tag_17:\n      pop\n      tag_18\n      0x04\n      dup1\n      calldatasize\n      sub\n      dup2\n      add\n      swap1\n      tag_19\n      swap2\n      swap1\n      tag_20\n      jump\t// in\n    tag_19:\n      tag_21\n      jump\t// in\n    tag_18:\n      mload(0x40)\n      tag_22\n      swap2\n      swap1\n      tag_23\n      jump\t// in\n    tag_22:\n      mload(0x40)\n      dup1\n      swap2\n      sub\n      swap1\n      return\n        /* \"src/MultiSig.sol\":8476:8597  function getMinimumRequiredSignatures() external view returns (uint256) {... */\n    tag_4:\n      callvalue\n      dup1\n      iszero\n      tag_24\n      jumpi\n      0x00\n      dup1\n      revert\n    tag_24:\n      pop\n      tag_25\n      tag_26\n      jump\t// in\n    tag_25:\n      mload(0x40)\n      tag_27\n      swap2\n      swap1\n      tag_28\n      jump\t// in\n    tag_27:\n      mload(0x40)\n      dup1\n      swap2\n      sub\n      swap1\n      return\n        /* \"lib/openzeppelin-contracts-upgradeable/lib/openzeppelin-contracts/contracts/proxy/utils/UUPSUpgradeable.sol\":3892:4106  function upgradeToAndCall(address newImplementation, bytes memory data) public payable virtual onlyProxy {... */\n    tag_5:\n      tag_29\n      0x04\n      dup1\n      calldatasize\n      sub\n      dup2\n      add\n      swap1\n      tag_30\n      swap2\n      swap1\n      tag_31\n      jump\t// in\n    tag_30:\n      tag_32\n      jump\t// in\n    tag_29:\n      stop\n        /* \"lib/openzeppelin-contracts-upgradeable/lib/openzeppelin-contracts/contracts/proxy/utils/UUPSUpgradeable.sol\":3439:3573  function proxiableUUID() external view virtual notDelegated returns (bytes32) {... */\n    tag_6:\n      callvalue\n      dup1\n      iszero\n      tag_33\n      jumpi\n      0x00\n      dup1\n      revert\n    tag_33:\n      pop\n      tag_34\n      tag_35\n      jump\t// in\n    tag_34:\n      mload(0x40)\n      tag_36\n      swap2\n      swap1\n      tag_37\n      jump\t// in\n    tag_36:\n      mload(0x40)\n      dup1\n      swap2\n      sub\n      swap1\n      return\n        /* \"src/MultiSig.sol\":7060:7879  function checkSignature(... */\n    tag_7:\n      callvalue\n      dup1\n      iszero\n      tag_38\n      jumpi\n      0x00\n      dup1\n      revert\n    tag_38:\n      pop\n      tag_39\n      0x04\n      dup1\n      calldatasize\n      sub\n      dup2\n      add\n      swap1\n      tag_40\n      swap2\n      swap1\n      tag_41\n      jump\t// in\n    tag_40:\n      tag_42\n      jump\t// in\n    tag_39:\n      mload(0x40)\n      tag_43\n      swap2\n      swap1\n      tag_28\n      jump\t// in\n    tag_43:\n      mload(0x40)\n      dup1\n      swap2\n      sub\n      swap1\n      return\n        /* \"src/MultiSig.sol\":6600:7052  function initialize(... */\n    tag_8:\n      callvalue\n      dup1\n      iszero\n      tag_44\n      jumpi\n      0x00\n      dup1\n      revert\n    tag_44:\n      pop\n      tag_45\n      0x04\n      dup1\n      calldatasize\n      sub\n      dup2\n      add\n      swap1\n      tag_46\n      swap2\n      swap1\n      tag_47\n      jump\t// in\n    tag_46:\n      tag_48\n      jump\t// in\n    tag_45:\n      stop\n        /* \"src/MultiSig.sol\":8088:8468  function execute(... */\n    tag_9:\n      callvalue\n      dup1\n      iszero\n      tag_49\n      jumpi\n      0x00\n      dup1\n      revert\n    tag_49:\n      pop\n      tag_50\n      0x04\n      dup1\n      calldatasize\n      sub\n      dup2\n      add\n      swap1\n      tag_51\n      swap2\n      swap1\n      tag_52\n      jump\t// in\n    tag_51:\n      tag_53\n      jump\t// in\n    tag_50:\n      stop\n        /* \"src/MultiSig.sol\":5018:5346  function toEthSignedMessageHash(... */\n    tag_10:\n      callvalue\n      dup1\n      iszero\n      tag_54\n      jumpi\n      0x00\n      dup1\n      revert\n    tag_54:\n      pop\n      tag_55\n      0x04\n      dup1\n      calldatasize\n      sub\n      dup2\n      add\n      swap1\n      tag_56\n      swap2\n      swap1\n      tag_57\n      jump\t// in\n    tag_56:\n      tag_58\n      jump\t// in\n    tag_55:\n      mload(0x40)\n      tag_59\n      swap2\n      swap1\n      tag_37\n      jump\t// in\n    tag_59:\n      mload(0x40)\n      dup1\n      swap2\n      sub\n      swap1\n      return\n        /* \"src/MultiSig.sol\":8605:8703  function getSigners() external view returns (address[] memory) {... */\n    tag_11:\n      callvalue\n      dup1\n      iszero\n      tag_60\n      jumpi\n      0x00\n      dup1\n      revert\n    tag_60:\n      pop\n      tag_61\n      tag_62\n      jump\t// in\n    tag_61:\n      mload(0x40)\n      tag_63\n      swap2\n      swap1\n      tag_64\n      jump\t// in\n    tag_63:\n      mload(0x40)\n      dup1\n      swap2\n      sub\n      swap1\n      return\n        /* \"lib/openzeppelin-contracts-upgradeable/lib/openzeppelin-contracts/contracts/proxy/utils/UUPSUpgradeable.sol\":1708:1766  string public constant UPGRADE_INTERFACE_VERSION = \"5.0.0\" */\n    tag_12:\n      callvalue\n      dup1\n      iszero\n      tag_65\n      jumpi\n      0x00\n      dup1\n      revert\n    tag_65:\n      pop\n      tag_66\n      tag_67\n      jump\t// in\n    tag_66:\n      mload(0x40)\n      tag_68\n      swap2\n      swap1\n      tag_69\n      jump\t// in\n    tag_68:\n      mload(0x40)\n      dup1\n      swap2\n      sub\n      swap1\n      return\n        /* \"src/MultiSig.sol\":8711:8941  function getTransactionHash(... */\n    tag_13:\n      callvalue\n      dup1\n      iszero\n      tag_70\n      jumpi\n      0x00\n      dup1\n      revert\n    tag_70:\n      pop\n      tag_71\n      0x04\n      dup1\n      calldatasize\n      sub\n      dup2\n      add\n      swap1\n      tag_72\n      swap2\n      swap1\n      tag_73\n      jump\t// in\n    tag_72:\n      tag_74\n      jump\t// in\n    tag_71:\n      mload(0x40)\n      tag_75\n      swap2\n      swap1\n      tag_37\n      jump\t// in\n    tag_75:\n      mload(0x40)\n      dup1\n      swap2\n      sub\n      swap1\n      return\n        /* \"src/MultiSig.sol\":1478:3052  function recover(... */\n    tag_21:\n        /* \"src/MultiSig.sol\":1579:1586  address */\n      0x00\n        /* \"src/MultiSig.sol\":1656:1665  bytes32 r */\n      dup1\n        /* \"src/MultiSig.sol\":1676:1685  bytes32 s */\n      0x00\n        /* \"src/MultiSig.sol\":1696:1703  uint8 v */\n      dup1\n        /* \"src/MultiSig.sol\":1936:1938  65 */\n      0x41\n        /* \"src/MultiSig.sol\":1916:1925  signature */\n      dup6\n        /* \"src/MultiSig.sol\":1916:1932  signature.length */\n      mload\n        /* \"src/MultiSig.sol\":1916:1938  signature.length == 65 */\n      sub\n        /* \"src/MultiSig.sol\":1912:3005  if (signature.length == 65) {... */\n      tag_77\n      jumpi\n        /* \"src/MultiSig.sol\":2203:2207  0x20 */\n      0x20\n        /* \"src/MultiSig.sol\":2192:2201  signature */\n      dup6\n        /* \"src/MultiSig.sol\":2188:2208  add(signature, 0x20) */\n      add\n        /* \"src/MultiSig.sol\":2182:2209  mload(add(signature, 0x20)) */\n      mload\n        /* \"src/MultiSig.sol\":2177:2209  r := mload(add(signature, 0x20)) */\n      swap3\n      pop\n        /* \"src/MultiSig.sol\":2253:2257  0x40 */\n      0x40\n        /* \"src/MultiSig.sol\":2242:2251  signature */\n      dup6\n        /* \"src/MultiSig.sol\":2238:2258  add(signature, 0x40) */\n      add\n        /* \"src/MultiSig.sol\":2232:2259  mload(add(signature, 0x40)) */\n      mload\n        /* \"src/MultiSig.sol\":2227:2259  s := mload(add(signature, 0x40)) */\n      swap2\n      pop\n        /* \"src/MultiSig.sol\":2311:2315  0x60 */\n      0x60\n        /* \"src/MultiSig.sol\":2300:2309  signature */\n      dup6\n        /* \"src/MultiSig.sol\":2296:2316  add(signature, 0x60) */\n      add\n        /* \"src/MultiSig.sol\":2290:2317  mload(add(signature, 0x60)) */\n      mload\n        /* \"src/MultiSig.sol\":2287:2288  0 */\n      0x00\n        /* \"src/MultiSig.sol\":2282:2318  byte(0, mload(add(signature, 0x60))) */\n      byte\n        /* \"src/MultiSig.sol\":2277:2318  v := byte(0, mload(add(signature, 0x60))) */\n      swap1\n      pop\n        /* \"src/MultiSig.sol\":1912:3005  if (signature.length == 65) {... */\n      jump(tag_78)\n    tag_77:\n        /* \"src/MultiSig.sol\":2374:2376  64 */\n      0x40\n        /* \"src/MultiSig.sol\":2354:2363  signature */\n      dup6\n        /* \"src/MultiSig.sol\":2354:2370  signature.length */\n      mload\n        /* \"src/MultiSig.sol\":2354:2376  signature.length == 64 */\n      sub\n        /* \"src/MultiSig.sol\":2350:3005  if (signature.length == 64) {... */\n      tag_79\n      jumpi\n        /* \"src/MultiSig.sol\":2646:2650  0x40 */\n      0x40\n        /* \"src/MultiSig.sol\":2635:2644  signature */\n      dup6\n        /* \"src/MultiSig.sol\":2631:2651  add(signature, 0x40) */\n      add\n        /* \"src/MultiSig.sol\":2625:2652  mload(add(signature, 0x40)) */\n      mload\n        /* \"src/MultiSig.sol\":2696:2700  0x20 */\n      0x20\n        /* \"src/MultiSig.sol\":2685:2694  signature */\n      dup7\n        /* \"src/MultiSig.sol\":2681:2701  add(signature, 0x20) */\n      add\n        /* \"src/MultiSig.sol\":2675:2702  mload(add(signature, 0x20)) */\n      mload\n        /* \"src/MultiSig.sol\":2670:2702  r := mload(add(signature, 0x20)) */\n      swap4\n      pop\n        /* \"src/MultiSig.sol\":2776:2842  0x7fffffffffffffffffffffffffffffffffffffffffffffffffffffffffffffff */\n      0x7fffffffffffffffffffffffffffffffffffffffffffffffffffffffffffffff\n        /* \"src/MultiSig.sol\":2751:2753  vs */\n      dup2\n        /* \"src/MultiSig.sol\":2725:2861  and(... */\n      and\n        /* \"src/MultiSig.sol\":2720:2861  s := and(... */\n      swap3\n      pop\n        /* \"src/MultiSig.sol\":2902:2904  27 */\n      0x1b\n        /* \"src/MultiSig.sol\":2897:2899  vs */\n      dup2\n        /* \"src/MultiSig.sol\":2892:2895  255 */\n      0xff\n        /* \"src/MultiSig.sol\":2888:2900  shr(255, vs) */\n      shr\n        /* \"src/MultiSig.sol\":2884:2905  add(shr(255, vs), 27) */\n      add\n        /* \"src/MultiSig.sol\":2879:2905  v := add(shr(255, vs), 27) */\n      swap2\n      pop\n        /* \"src/MultiSig.sol\":2596:2920  {... */\n      pop\n        /* \"src/MultiSig.sol\":2350:3005  if (signature.length == 64) {... */\n      jump(tag_80)\n    tag_79:\n        /* \"src/MultiSig.sol\":2952:2993  revert(\"ECDSA: invalid signature length\") */\n      mload(0x40)\n      0x08c379a000000000000000000000000000000000000000000000000000000000\n      dup2\n      mstore\n      0x04\n      add\n      tag_81\n      swap1\n      tag_82\n      jump\t// in\n    tag_81:\n      mload(0x40)\n      dup1\n      swap2\n      sub\n      swap1\n      revert\n        /* \"src/MultiSig.sol\":2350:3005  if (signature.length == 64) {... */\n    tag_80:\n        /* \"src/MultiSig.sol\":1912:3005  if (signature.length == 65) {... */\n    tag_78:\n        /* \"src/MultiSig.sol\":3022:3044  recover(hash, v, r, s) */\n      tag_83\n        /* \"src/MultiSig.sol\":3030:3034  hash */\n      dup7\n        /* \"src/MultiSig.sol\":3036:3037  v */\n      dup3\n        /* \"src/MultiSig.sol\":3039:3040  r */\n      dup6\n        /* \"src/MultiSig.sol\":3042:3043  s */\n      dup6\n        /* \"src/MultiSig.sol\":3022:3029  recover */\n      tag_84\n        /* \"src/MultiSig.sol\":3022:3044  recover(hash, v, r, s) */\n      jump\t// in\n    tag_83:\n        /* \"src/MultiSig.sol\":3015:3044  return recover(hash, v, r, s) */\n      swap4\n      pop\n      pop\n      pop\n      pop\n        /* \"src/MultiSig.sol\":1478:3052  function recover(... */\n      swap3\n      swap2\n      pop\n      pop\n      jump\t// out\n        /* \"src/MultiSig.sol\":8476:8597  function getMinimumRequiredSignatures() external view returns (uint256) {... */\n    tag_26:\n        /* \"src/MultiSig.sol\":8539:8546  uint256 */\n      0x00\n        /* \"src/MultiSig.sol\":8566:8589  s_minRequiredSignatures */\n      dup1\n      sload\n        /* \"src/MultiSig.sol\":8559:8589  return s_minRequiredSignatures */\n      swap1\n      pop\n        /* \"src/MultiSig.sol\":8476:8597  function getMinimumRequiredSignatures() external view returns (uint256) {... */\n      swap1\n      jump\t// out\n        /* \"lib/openzeppelin-contracts-upgradeable/lib/openzeppelin-contracts/contracts/proxy/utils/UUPSUpgradeable.sol\":3892:4106  function upgradeToAndCall(address newImplementation, bytes memory data) public payable virtual onlyProxy {... */\n    tag_32:\n        /* \"lib/openzeppelin-contracts-upgradeable/lib/openzeppelin-contracts/contracts/proxy/utils/UUPSUpgradeable.sol\":2542:2555  _checkProxy() */\n      tag_87\n        /* \"lib/openzeppelin-contracts-upgradeable/lib/openzeppelin-contracts/contracts/proxy/utils/UUPSUpgradeable.sol\":2542:2553  _checkProxy */\n      tag_88\n        /* \"lib/openzeppelin-contracts-upgradeable/lib/openzeppelin-contracts/contracts/proxy/utils/UUPSUpgradeable.sol\":2542:2555  _checkProxy() */\n      jump\t// in\n    tag_87:\n        /* \"lib/openzeppelin-contracts-upgradeable/lib/openzeppelin-contracts/contracts/proxy/utils/UUPSUpgradeable.sol\":4007:4043  _authorizeUpgrade(newImplementation) */\n      tag_90\n        /* \"lib/openzeppelin-contracts-upgradeable/lib/openzeppelin-contracts/contracts/proxy/utils/UUPSUpgradeable.sol\":4025:4042  newImplementation */\n      dup3\n        /* \"lib/openzeppelin-contracts-upgradeable/lib/openzeppelin-contracts/contracts/proxy/utils/UUPSUpgradeable.sol\":4007:4024  _authorizeUpgrade */\n      tag_91\n        /* \"lib/openzeppelin-contracts-upgradeable/lib/openzeppelin-contracts/contracts/proxy/utils/UUPSUpgradeable.sol\":4007:4043  _authorizeUpgrade(newImplementation) */\n      jump\t// in\n    tag_90:\n        /* \"lib/openzeppelin-contracts-upgradeable/lib/openzeppelin-contracts/contracts/proxy/utils/UUPSUpgradeable.sol\":4053:4099  _upgradeToAndCallUUPS(newImplementation, data) */\n      tag_92\n        /* \"lib/openzeppelin-contracts-upgradeable/lib/openzeppelin-contracts/contracts/proxy/utils/UUPSUpgradeable.sol\":4075:4092  newImplementation */\n      dup3\n        /* \"lib/openzeppelin-contracts-upgradeable/lib/openzeppelin-contracts/contracts/proxy/utils/UUPSUpgradeable.sol\":4094:4098  data */\n      dup3\n        /* \"lib/openzeppelin-contracts-upgradeable/lib/openzeppelin-contracts/contracts/proxy/utils/UUPSUpgradeable.sol\":4053:4074  _upgradeToAndCallUUPS */\n      tag_93\n        /* \"lib/openzeppelin-contracts-upgradeable/lib/openzeppelin-contracts/contracts/proxy/utils/UUPSUpgradeable.sol\":4053:4099  _upgradeToAndCallUUPS(newImplementation, data) */\n      jump\t// in\n    tag_92:\n        /* \"lib/openzeppelin-contracts-upgradeable/lib/openzeppelin-contracts/contracts/proxy/utils/UUPSUpgradeable.sol\":3892:4106  function upgradeToAndCall(address newImplementation, bytes memory data) public payable virtual onlyProxy {... */\n      pop\n      pop\n      jump\t// out\n        /* \"lib/openzeppelin-contracts-upgradeable/lib/openzeppelin-contracts/contracts/proxy/utils/UUPSUpgradeable.sol\":3439:3573  function proxiableUUID() external view virtual notDelegated returns (bytes32) {... */\n    tag_35:\n        /* \"lib/openzeppelin-contracts-upgradeable/lib/openzeppelin-contracts/contracts/proxy/utils/UUPSUpgradeable.sol\":3508:3515  bytes32 */\n      0x00\n        /* \"lib/openzeppelin-contracts-upgradeable/lib/openzeppelin-contracts/contracts/proxy/utils/UUPSUpgradeable.sol\":2813:2833  _checkNotDelegated() */\n      tag_95\n        /* \"lib/openzeppelin-contracts-upgradeable/lib/openzeppelin-contracts/contracts/proxy/utils/UUPSUpgradeable.sol\":2813:2831  _checkNotDelegated */\n      tag_96\n        /* \"lib/openzeppelin-contracts-upgradeable/lib/openzeppelin-contracts/contracts/proxy/utils/UUPSUpgradeable.sol\":2813:2833  _checkNotDelegated() */\n      jump\t// in\n    tag_95:\n        /* \"lib/openzeppelin-contracts-upgradeable/lib/openzeppelin-contracts/contracts/proxy/ERC1967/ERC1967Utils.sol\":1327:1393  0x360894a13ba1a3210667c828492db98dca3e2076cc3735a920a3ca505d382bbc */\n      0x360894a13ba1a3210667c828492db98dca3e2076cc3735a920a3ca505d382bbc\n        /* \"lib/openzeppelin-contracts-upgradeable/lib/openzeppelin-contracts/contracts/proxy/utils/UUPSUpgradeable.sol\":3534:3566  ERC1967Utils.IMPLEMENTATION_SLOT */\n      0x00\n      shl\n        /* \"lib/openzeppelin-contracts-upgradeable/lib/openzeppelin-contracts/contracts/proxy/utils/UUPSUpgradeable.sol\":3527:3566  return ERC1967Utils.IMPLEMENTATION_SLOT */\n      swap1\n      pop\n        /* \"lib/openzeppelin-contracts-upgradeable/lib/openzeppelin-contracts/contracts/proxy/utils/UUPSUpgradeable.sol\":3439:3573  function proxiableUUID() external view virtual notDelegated returns (bytes32) {... */\n      swap1\n      jump\t// out\n        /* \"src/MultiSig.sol\":7060:7879  function checkSignature(... */\n    tag_42:\n        /* \"src/MultiSig.sol\":7232:7239  uint256 */\n      0x00\n        /* \"src/MultiSig.sol\":7252:7272  bytes32 unsignedHash */\n      dup1\n        /* \"src/MultiSig.sol\":7275:7320  getTransactionHash(dest, functionData, nonce) */\n      tag_99\n        /* \"src/MultiSig.sol\":7294:7298  dest */\n      dup5\n        /* \"src/MultiSig.sol\":7300:7312  functionData */\n      dup8\n      dup8\n        /* \"src/MultiSig.sol\":7314:7319  nonce */\n      dup7\n        /* \"src/MultiSig.sol\":7275:7293  getTransactionHash */\n      tag_74\n        /* \"src/MultiSig.sol\":7275:7320  getTransactionHash(dest, functionData, nonce) */\n      jump\t// in\n    tag_99:\n        /* \"src/MultiSig.sol\":7252:7320  bytes32 unsignedHash = getTransactionHash(dest, functionData, nonce) */\n      swap1\n      pop\n        /* \"src/MultiSig.sol\":7331:7343  bytes32 hash */\n      0x00\n        /* \"src/MultiSig.sol\":7346:7382  toEthSignedMessageHash(unsignedHash) */\n      tag_100\n        /* \"src/MultiSig.sol\":7369:7381  unsignedHash */\n      dup3\n        /* \"src/MultiSig.sol\":7346:7368  toEthSignedMessageHash */\n      tag_58\n        /* \"src/MultiSig.sol\":7346:7382  toEthSignedMessageHash(unsignedHash) */\n      jump\t// in\n    tag_100:\n        /* \"src/MultiSig.sol\":7331:7382  bytes32 hash = toEthSignedMessageHash(unsignedHash) */\n      swap1\n      pop\n        /* \"src/MultiSig.sol\":7393:7418  bytes[] memory signatures */\n      0x00\n        /* \"src/MultiSig.sol\":7432:7441  signature */\n      dup10\n      dup10\n        /* \"src/MultiSig.sol\":7421:7453  abi.decode(signature, (bytes[])) */\n      dup2\n      add\n      swap1\n      tag_101\n      swap2\n      swap1\n      tag_102\n      jump\t// in\n    tag_101:\n        /* \"src/MultiSig.sol\":7393:7453  bytes[] memory signatures = abi.decode(signature, (bytes[])) */\n      swap1\n      pop\n        /* \"src/MultiSig.sol\":7464:7486  uint256 noOfSignatures */\n      0x00\n        /* \"src/MultiSig.sol\":7502:7511  uint256 i */\n      dup1\n        /* \"src/MultiSig.sol\":7514:7515  0 */\n      0x00\n        /* \"src/MultiSig.sol\":7502:7515  uint256 i = 0 */\n      swap1\n      pop\n        /* \"src/MultiSig.sol\":7497:7718  for (uint256 i = 0; i < signatures.length; i++) {... */\n    tag_103:\n        /* \"src/MultiSig.sol\":7521:7531  signatures */\n      dup3\n        /* \"src/MultiSig.sol\":7521:7538  signatures.length */\n      mload\n        /* \"src/MultiSig.sol\":7517:7518  i */\n      dup2\n        /* \"src/MultiSig.sol\":7517:7538  i < signatures.length */\n      lt\n        /* \"src/MultiSig.sol\":7497:7718  for (uint256 i = 0; i < signatures.length; i++) {... */\n      iszero\n      tag_104\n      jumpi\n        /* \"src/MultiSig.sol\":7560:7580  address ownerAddress */\n      0x00\n        /* \"src/MultiSig.sol\":7583:7611  recover(hash, signatures[i]) */\n      tag_106\n        /* \"src/MultiSig.sol\":7591:7595  hash */\n      dup6\n        /* \"src/MultiSig.sol\":7597:7607  signatures */\n      dup6\n        /* \"src/MultiSig.sol\":7608:7609  i */\n      dup5\n        /* \"src/MultiSig.sol\":7597:7610  signatures[i] */\n      dup2\n      mload\n      dup2\n      lt\n      tag_107\n      jumpi\n      tag_108\n      tag_109\n      jump\t// in\n    tag_108:\n    tag_107:\n      0x20\n      mul\n      0x20\n      add\n      add\n      mload\n        /* \"src/MultiSig.sol\":7583:7590  recover */\n      tag_21\n        /* \"src/MultiSig.sol\":7583:7611  recover(hash, signatures[i]) */\n      jump\t// in\n    tag_106:\n        /* \"src/MultiSig.sol\":7560:7611  address ownerAddress = recover(hash, signatures[i]) */\n      swap1\n      pop\n        /* \"src/MultiSig.sol\":7630:7640  s_isSigner */\n      0x02\n        /* \"src/MultiSig.sol\":7630:7654  s_isSigner[ownerAddress] */\n      0x00\n        /* \"src/MultiSig.sol\":7641:7653  ownerAddress */\n      dup3\n        /* \"src/MultiSig.sol\":7630:7654  s_isSigner[ownerAddress] */\n      0xffffffffffffffffffffffffffffffffffffffff\n      and\n      0xffffffffffffffffffffffffffffffffffffffff\n      and\n      dup2\n      mstore\n      0x20\n      add\n      swap1\n      dup2\n      mstore\n      0x20\n      add\n      0x00\n      keccak256\n      0x00\n      swap1\n      sload\n      swap1\n      0x0100\n      exp\n      swap1\n      div\n      0xff\n      and\n        /* \"src/MultiSig.sol\":7626:7707  if (s_isSigner[ownerAddress]) {... */\n      iszero\n      tag_110\n      jumpi\n        /* \"src/MultiSig.sol\":7675:7691  noOfSignatures++ */\n      dup3\n      dup1\n      tag_111\n      swap1\n      tag_112\n      jump\t// in\n    tag_111:\n      swap4\n      pop\n      pop\n        /* \"src/MultiSig.sol\":7626:7707  if (s_isSigner[ownerAddress]) {... */\n    tag_110:\n        /* \"src/MultiSig.sol\":7545:7718  {... */\n      pop\n        /* \"src/MultiSig.sol\":7540:7543  i++ */\n      dup1\n      dup1\n      0x01\n      add\n      swap2\n      pop\n      pop\n        /* \"src/MultiSig.sol\":7497:7718  for (uint256 i = 0; i < signatures.length; i++) {... */\n      jump(tag_103)\n    tag_104:\n      pop\n        /* \"src/MultiSig.sol\":7752:7775  s_minRequiredSignatures */\n      sload(0x00)\n        /* \"src/MultiSig.sol\":7734:7748  noOfSignatures */\n      dup2\n        /* \"src/MultiSig.sol\":7734:7775  noOfSignatures >= s_minRequiredSignatures */\n      lt\n        /* \"src/MultiSig.sol\":7730:7833  if (noOfSignatures >= s_minRequiredSignatures) {... */\n      tag_113\n      jumpi\n        /* \"src/MultiSig.sol\":6146:6147  0 */\n      0x00\n        /* \"src/MultiSig.sol\":7792:7821  return SIG_VALIDATION_SUCCESS */\n      swap5\n      pop\n      pop\n      pop\n      pop\n      pop\n      jump(tag_98)\n        /* \"src/MultiSig.sol\":7730:7833  if (noOfSignatures >= s_minRequiredSignatures) {... */\n    tag_113:\n        /* \"src/MultiSig.sol\":6088:6089  1 */\n      0x01\n        /* \"src/MultiSig.sol\":7843:7871  return SIG_VALIDATION_FAILED */\n      swap5\n      pop\n      pop\n      pop\n      pop\n      pop\n        /* \"src/MultiSig.sol\":7060:7879  function checkSignature(... */\n    tag_98:\n      swap7\n      swap6\n      pop\n      pop\n      pop\n      pop\n      pop\n      pop\n      jump\t// out\n        /* \"src/MultiSig.sol\":6600:7052  function initialize(... */\n    tag_48:\n        /* \"lib/openzeppelin-contracts-upgradeable/lib/openzeppelin-contracts/contracts/proxy/utils/Initializable.sol\":4158:4188  InitializableStorage storage $ */\n      0x00\n        /* \"lib/openzeppelin-contracts-upgradeable/lib/openzeppelin-contracts/contracts/proxy/utils/Initializable.sol\":4191:4217  _getInitializableStorage() */\n      tag_115\n        /* \"lib/openzeppelin-contracts-upgradeable/lib/openzeppelin-contracts/contracts/proxy/utils/Initializable.sol\":4191:4215  _getInitializableStorage */\n      tag_116\n        /* \"lib/openzeppelin-contracts-upgradeable/lib/openzeppelin-contracts/contracts/proxy/utils/Initializable.sol\":4191:4217  _getInitializableStorage() */\n      jump\t// in\n    tag_115:\n        /* \"lib/openzeppelin-contracts-upgradeable/lib/openzeppelin-contracts/contracts/proxy/utils/Initializable.sol\":4158:4217  InitializableStorage storage $ = _getInitializableStorage() */\n      swap1\n      pop\n        /* \"lib/openzeppelin-contracts-upgradeable/lib/openzeppelin-contracts/contracts/proxy/utils/Initializable.sol\":4279:4298  bool isTopLevelCall */\n      0x00\n        /* \"lib/openzeppelin-contracts-upgradeable/lib/openzeppelin-contracts/contracts/proxy/utils/Initializable.sol\":4302:4303  $ */\n      dup2\n        /* \"lib/openzeppelin-contracts-upgradeable/lib/openzeppelin-contracts/contracts/proxy/utils/Initializable.sol\":4302:4317  $._initializing */\n      0x00\n      add\n      0x08\n      swap1\n      sload\n      swap1\n      0x0100\n      exp\n      swap1\n      div\n      0xff\n      and\n        /* \"lib/openzeppelin-contracts-upgradeable/lib/openzeppelin-contracts/contracts/proxy/utils/Initializable.sol\":4301:4317  !$._initializing */\n      iszero\n        /* \"lib/openzeppelin-contracts-upgradeable/lib/openzeppelin-contracts/contracts/proxy/utils/Initializable.sol\":4279:4317  bool isTopLevelCall = !$._initializing */\n      swap1\n      pop\n        /* \"lib/openzeppelin-contracts-upgradeable/lib/openzeppelin-contracts/contracts/proxy/utils/Initializable.sol\":4327:4345  uint64 initialized */\n      0x00\n        /* \"lib/openzeppelin-contracts-upgradeable/lib/openzeppelin-contracts/contracts/proxy/utils/Initializable.sol\":4348:4349  $ */\n      dup3\n        /* \"lib/openzeppelin-contracts-upgradeable/lib/openzeppelin-contracts/contracts/proxy/utils/Initializable.sol\":4348:4362  $._initialized */\n      0x00\n      add\n      0x00\n      swap1\n      sload\n      swap1\n      0x0100\n      exp\n      swap1\n      div\n      0xffffffffffffffff\n      and\n        /* \"lib/openzeppelin-contracts-upgradeable/lib/openzeppelin-contracts/contracts/proxy/utils/Initializable.sol\":4327:4362  uint64 initialized = $._initialized */\n      swap1\n      pop\n        /* \"lib/openzeppelin-contracts-upgradeable/lib/openzeppelin-contracts/contracts/proxy/utils/Initializable.sol\":4706:4723  bool initialSetup */\n      0x00\n        /* \"lib/openzeppelin-contracts-upgradeable/lib/openzeppelin-contracts/contracts/proxy/utils/Initializable.sol\":4741:4742  0 */\n      dup1\n        /* \"lib/openzeppelin-contracts-upgradeable/lib/openzeppelin-contracts/contracts/proxy/utils/Initializable.sol\":4726:4737  initialized */\n      dup3\n        /* \"lib/openzeppelin-contracts-upgradeable/lib/openzeppelin-contracts/contracts/proxy/utils/Initializable.sol\":4726:4742  initialized == 0 */\n      0xffffffffffffffff\n      and\n      eq\n        /* \"lib/openzeppelin-contracts-upgradeable/lib/openzeppelin-contracts/contracts/proxy/utils/Initializable.sol\":4726:4760  initialized == 0 && isTopLevelCall */\n      dup1\n      iszero\n      tag_117\n      jumpi\n      pop\n        /* \"lib/openzeppelin-contracts-upgradeable/lib/openzeppelin-contracts/contracts/proxy/utils/Initializable.sol\":4746:4760  isTopLevelCall */\n      dup3\n        /* \"lib/openzeppelin-contracts-upgradeable/lib/openzeppelin-contracts/contracts/proxy/utils/Initializable.sol\":4726:4760  initialized == 0 && isTopLevelCall */\n    tag_117:\n        /* \"lib/openzeppelin-contracts-upgradeable/lib/openzeppelin-contracts/contracts/proxy/utils/Initializable.sol\":4706:4760  bool initialSetup = initialized == 0 && isTopLevelCall */\n      swap1\n      pop\n        /* \"lib/openzeppelin-contracts-upgradeable/lib/openzeppelin-contracts/contracts/proxy/utils/Initializable.sol\":4770:4787  bool construction */\n      0x00\n        /* \"lib/openzeppelin-contracts-upgradeable/lib/openzeppelin-contracts/contracts/proxy/utils/Initializable.sol\":4805:4806  1 */\n      0x01\n        /* \"lib/openzeppelin-contracts-upgradeable/lib/openzeppelin-contracts/contracts/proxy/utils/Initializable.sol\":4790:4801  initialized */\n      dup4\n        /* \"lib/openzeppelin-contracts-upgradeable/lib/openzeppelin-contracts/contracts/proxy/utils/Initializable.sol\":4790:4806  initialized == 1 */\n      0xffffffffffffffff\n      and\n      eq\n        /* \"lib/openzeppelin-contracts-upgradeable/lib/openzeppelin-contracts/contracts/proxy/utils/Initializable.sol\":4790:4840  initialized == 1 && address(this).code.length == 0 */\n      dup1\n      iszero\n      tag_118\n      jumpi\n      pop\n        /* \"lib/openzeppelin-contracts-upgradeable/lib/openzeppelin-contracts/contracts/proxy/utils/Initializable.sol\":4839:4840  0 */\n      0x00\n        /* \"lib/openzeppelin-contracts-upgradeable/lib/openzeppelin-contracts/contracts/proxy/utils/Initializable.sol\":4818:4822  this */\n      address\n        /* \"lib/openzeppelin-contracts-upgradeable/lib/openzeppelin-contracts/contracts/proxy/utils/Initializable.sol\":4810:4835  address(this).code.length */\n      0xffffffffffffffffffffffffffffffffffffffff\n      and\n      extcodesize\n        /* \"lib/openzeppelin-contracts-upgradeable/lib/openzeppelin-contracts/contracts/proxy/utils/Initializable.sol\":4810:4840  address(this).code.length == 0 */\n      eq\n        /* \"lib/openzeppelin-contracts-upgradeable/lib/openzeppelin-contracts/contracts/proxy/utils/Initializable.sol\":4790:4840  initialized == 1 && address(this).code.length == 0 */\n    tag_118:\n        /* \"lib/openzeppelin-contracts-upgradeable/lib/openzeppelin-contracts/contracts/proxy/utils/Initializable.sol\":4770:4840  bool construction = initialized == 1 && address(this).code.length == 0 */\n      swap1\n      pop\n        /* \"lib/openzeppelin-contracts-upgradeable/lib/openzeppelin-contracts/contracts/proxy/utils/Initializable.sol\":4856:4868  initialSetup */\n      dup2\n        /* \"lib/openzeppelin-contracts-upgradeable/lib/openzeppelin-contracts/contracts/proxy/utils/Initializable.sol\":4855:4868  !initialSetup */\n      iszero\n        /* \"lib/openzeppelin-contracts-upgradeable/lib/openzeppelin-contracts/contracts/proxy/utils/Initializable.sol\":4855:4885  !initialSetup && !construction */\n      dup1\n      iszero\n      tag_119\n      jumpi\n      pop\n        /* \"lib/openzeppelin-contracts-upgradeable/lib/openzeppelin-contracts/contracts/proxy/utils/Initializable.sol\":4873:4885  construction */\n      dup1\n        /* \"lib/openzeppelin-contracts-upgradeable/lib/openzeppelin-contracts/contracts/proxy/utils/Initializable.sol\":4872:4885  !construction */\n      iszero\n        /* \"lib/openzeppelin-contracts-upgradeable/lib/openzeppelin-contracts/contracts/proxy/utils/Initializable.sol\":4855:4885  !initialSetup && !construction */\n    tag_119:\n        /* \"lib/openzeppelin-contracts-upgradeable/lib/openzeppelin-contracts/contracts/proxy/utils/Initializable.sol\":4851:4942  if (!initialSetup && !construction) {... */\n      iszero\n      tag_120\n      jumpi\n        /* \"lib/openzeppelin-contracts-upgradeable/lib/openzeppelin-contracts/contracts/proxy/utils/Initializable.sol\":4908:4931  InvalidInitialization() */\n      mload(0x40)\n      0xf92ee8a900000000000000000000000000000000000000000000000000000000\n      dup2\n      mstore\n      0x04\n      add\n      mload(0x40)\n      dup1\n      swap2\n      sub\n      swap1\n      revert\n        /* \"lib/openzeppelin-contracts-upgradeable/lib/openzeppelin-contracts/contracts/proxy/utils/Initializable.sol\":4851:4942  if (!initialSetup && !construction) {... */\n    tag_120:\n        /* \"lib/openzeppelin-contracts-upgradeable/lib/openzeppelin-contracts/contracts/proxy/utils/Initializable.sol\":4968:4969  1 */\n      0x01\n        /* \"lib/openzeppelin-contracts-upgradeable/lib/openzeppelin-contracts/contracts/proxy/utils/Initializable.sol\":4951:4952  $ */\n      dup6\n        /* \"lib/openzeppelin-contracts-upgradeable/lib/openzeppelin-contracts/contracts/proxy/utils/Initializable.sol\":4951:4965  $._initialized */\n      0x00\n      add\n      0x00\n        /* \"lib/openzeppelin-contracts-upgradeable/lib/openzeppelin-contracts/contracts/proxy/utils/Initializable.sol\":4951:4969  $._initialized = 1 */\n      0x0100\n      exp\n      dup2\n      sload\n      dup2\n      0xffffffffffffffff\n      mul\n      not\n      and\n      swap1\n      dup4\n      0xffffffffffffffff\n      and\n      mul\n      or\n      swap1\n      sstore\n      pop\n        /* \"lib/openzeppelin-contracts-upgradeable/lib/openzeppelin-contracts/contracts/proxy/utils/Initializable.sol\":4983:4997  isTopLevelCall */\n      dup4\n        /* \"lib/openzeppelin-contracts-upgradeable/lib/openzeppelin-contracts/contracts/proxy/utils/Initializable.sol\":4979:5046  if (isTopLevelCall) {... */\n      iszero\n      tag_121\n      jumpi\n        /* \"lib/openzeppelin-contracts-upgradeable/lib/openzeppelin-contracts/contracts/proxy/utils/Initializable.sol\":5031:5035  true */\n      0x01\n        /* \"lib/openzeppelin-contracts-upgradeable/lib/openzeppelin-contracts/contracts/proxy/utils/Initializable.sol\":5013:5014  $ */\n      dup6\n        /* \"lib/openzeppelin-contracts-upgradeable/lib/openzeppelin-contracts/contracts/proxy/utils/Initializable.sol\":5013:5028  $._initializing */\n      0x00\n      add\n      0x08\n        /* \"lib/openzeppelin-contracts-upgradeable/lib/openzeppelin-contracts/contracts/proxy/utils/Initializable.sol\":5013:5035  $._initializing = true */\n      0x0100\n      exp\n      dup2\n      sload\n      dup2\n      0xff\n      mul\n      not\n      and\n      swap1\n      dup4\n      iszero\n      iszero\n      mul\n      or\n      swap1\n      sstore\n      pop\n        /* \"lib/openzeppelin-contracts-upgradeable/lib/openzeppelin-contracts/contracts/proxy/utils/Initializable.sol\":4979:5046  if (isTopLevelCall) {... */\n    tag_121:\n        /* \"src/MultiSig.sol\":6766:6767  0 */\n      0x00\n        /* \"src/MultiSig.sol\":6742:6755  initialOwners */\n      dup8\n        /* \"src/MultiSig.sol\":6742:6762  initialOwners.length */\n      mload\n        /* \"src/MultiSig.sol\":6742:6767  initialOwners.length == 0 */\n      sub\n        /* \"src/MultiSig.sol\":6738:6828  if (initialOwners.length == 0) {... */\n      tag_123\n      jumpi\n        /* \"src/MultiSig.sol\":6791:6816  MultiSigWallet_NoOwners() */\n      mload(0x40)\n      0x30399c7700000000000000000000000000000000000000000000000000000000\n      dup2\n      mstore\n      0x04\n      add\n      mload(0x40)\n      dup1\n      swap2\n      sub\n      swap1\n      revert\n        /* \"src/MultiSig.sol\":6738:6828  if (initialOwners.length == 0) {... */\n    tag_123:\n        /* \"src/MultiSig.sol\":6850:6863  initialOwners */\n      dup7\n        /* \"src/MultiSig.sol\":6838:6847  s_signers */\n      0x01\n        /* \"src/MultiSig.sol\":6838:6863  s_signers = initialOwners */\n      swap1\n      dup1\n      mload\n      swap1\n      0x20\n      add\n      swap1\n      tag_124\n      swap3\n      swap2\n      swap1\n      tag_125\n      jump\t// in\n    tag_124:\n      pop\n        /* \"src/MultiSig.sol\":6879:6888  uint256 i */\n      0x00\n        /* \"src/MultiSig.sol\":6874:6987  for (uint256 i = 0; i < initialOwners.length; i++) {... */\n    tag_126:\n        /* \"src/MultiSig.sol\":6898:6911  initialOwners */\n      dup8\n        /* \"src/MultiSig.sol\":6898:6918  initialOwners.length */\n      mload\n        /* \"src/MultiSig.sol\":6894:6895  i */\n      dup2\n        /* \"src/MultiSig.sol\":6894:6918  i < initialOwners.length */\n      lt\n        /* \"src/MultiSig.sol\":6874:6987  for (uint256 i = 0; i < initialOwners.length; i++) {... */\n      iszero\n      tag_127\n      jumpi\n        /* \"src/MultiSig.sol\":6971:6975  true */\n      0x01\n        /* \"src/MultiSig.sol\":6940:6950  s_isSigner */\n      0x02\n        /* \"src/MultiSig.sol\":6940:6968  s_isSigner[initialOwners[i]] */\n      0x00\n        /* \"src/MultiSig.sol\":6951:6964  initialOwners */\n      dup11\n        /* \"src/MultiSig.sol\":6965:6966  i */\n      dup5\n        /* \"src/MultiSig.sol\":6951:6967  initialOwners[i] */\n      dup2\n      mload\n      dup2\n      lt\n      tag_129\n      jumpi\n      tag_130\n      tag_109\n      jump\t// in\n    tag_130:\n    tag_129:\n      0x20\n      mul\n      0x20\n      add\n      add\n      mload\n        /* \"src/MultiSig.sol\":6940:6968  s_isSigner[initialOwners[i]] */\n      0xffffffffffffffffffffffffffffffffffffffff\n      and\n      0xffffffffffffffffffffffffffffffffffffffff\n      and\n      dup2\n      mstore\n      0x20\n      add\n      swap1\n      dup2\n      mstore\n      0x20\n      add\n      0x00\n      keccak256\n      0x00\n        /* \"src/MultiSig.sol\":6940:6975  s_isSigner[initialOwners[i]] = true */\n      0x0100\n      exp\n      dup2\n      sload\n      dup2\n      0xff\n      mul\n      not\n      and\n      swap1\n      dup4\n      iszero\n      iszero\n      mul\n      or\n      swap1\n      sstore\n      pop\n        /* \"src/MultiSig.sol\":6920:6923  i++ */\n      dup1\n      dup1\n      0x01\n      add\n      swap2\n      pop\n      pop\n        /* \"src/MultiSig.sol\":6874:6987  for (uint256 i = 0; i < initialOwners.length; i++) {... */\n      jump(tag_126)\n    tag_127:\n      pop\n        /* \"src/MultiSig.sol\":7023:7044  minRequiredSignatures */\n      dup6\n        /* \"src/MultiSig.sol\":6997:7020  s_minRequiredSignatures */\n      0x00\n        /* \"src/MultiSig.sol\":6997:7044  s_minRequiredSignatures = minRequiredSignatures */\n      dup2\n      swap1\n      sstore\n      pop\n        /* \"lib/openzeppelin-contracts-upgradeable/lib/openzeppelin-contracts/contracts/proxy/utils/Initializable.sol\":5070:5084  isTopLevelCall */\n      dup4\n        /* \"lib/openzeppelin-contracts-upgradeable/lib/openzeppelin-contracts/contracts/proxy/utils/Initializable.sol\":5066:5167  if (isTopLevelCall) {... */\n      iszero\n      tag_131\n      jumpi\n        /* \"lib/openzeppelin-contracts-upgradeable/lib/openzeppelin-contracts/contracts/proxy/utils/Initializable.sol\":5118:5123  false */\n      0x00\n        /* \"lib/openzeppelin-contracts-upgradeable/lib/openzeppelin-contracts/contracts/proxy/utils/Initializable.sol\":5100:5101  $ */\n      dup6\n        /* \"lib/openzeppelin-contracts-upgradeable/lib/openzeppelin-contracts/contracts/proxy/utils/Initializable.sol\":5100:5115  $._initializing */\n      0x00\n      add\n      0x08\n        /* \"lib/openzeppelin-contracts-upgradeable/lib/openzeppelin-contracts/contracts/proxy/utils/Initializable.sol\":5100:5123  $._initializing = false */\n      0x0100\n      exp\n      dup2\n      sload\n      dup2\n      0xff\n      mul\n      not\n      and\n      swap1\n      dup4\n      iszero\n      iszero\n      mul\n      or\n      swap1\n      sstore\n      pop\n        /* \"lib/openzeppelin-contracts-upgradeable/lib/openzeppelin-contracts/contracts/proxy/utils/Initializable.sol\":5142:5156  Initialized(1) */\n      0xc7f505b2f371ae2175ee4913f4499e1f2633a7b5936321eed1cdaeb6115181d2\n        /* \"lib/openzeppelin-contracts-upgradeable/lib/openzeppelin-contracts/contracts/proxy/utils/Initializable.sol\":5154:5155  1 */\n      0x01\n        /* \"lib/openzeppelin-contracts-upgradeable/lib/openzeppelin-contracts/contracts/proxy/utils/Initializable.sol\":5142:5156  Initialized(1) */\n      mload(0x40)\n      tag_132\n      swap2\n      swap1\n      tag_133\n      jump\t// in\n    tag_132:\n      mload(0x40)\n      dup1\n      swap2\n      sub\n      swap1\n      log1\n        /* \"lib/openzeppelin-contracts-upgradeable/lib/openzeppelin-contracts/contracts/proxy/utils/Initializable.sol\":5066:5167  if (isTopLevelCall) {... */\n    tag_131:\n        /* \"lib/openzeppelin-contracts-upgradeable/lib/openzeppelin-contracts/contracts/proxy/utils/Initializable.sol\":4092:5173  {... */\n      pop\n      pop\n      pop\n      pop\n      pop\n        /* \"src/MultiSig.sol\":6600:7052  function initialize(... */\n      pop\n      pop\n      jump\t// out\n        /* \"src/MultiSig.sol\":8088:8468  function execute(... */\n    tag_53:\n        /* \"src/MultiSig.sol\":6482:6487  false */\n      0x00\n        /* \"src/MultiSig.sol\":6456:6487  s_isSigner[msg.sender] == false */\n      iszero\n      iszero\n        /* \"src/MultiSig.sol\":6456:6466  s_isSigner */\n      0x02\n        /* \"src/MultiSig.sol\":6456:6478  s_isSigner[msg.sender] */\n      0x00\n        /* \"src/MultiSig.sol\":6467:6477  msg.sender */\n      caller\n        /* \"src/MultiSig.sol\":6456:6478  s_isSigner[msg.sender] */\n      0xffffffffffffffffffffffffffffffffffffffff\n      and\n      0xffffffffffffffffffffffffffffffffffffffff\n      and\n      dup2\n      mstore\n      0x20\n      add\n      swap1\n      dup2\n      mstore\n      0x20\n      add\n      0x00\n      keccak256\n      0x00\n      swap1\n      sload\n      swap1\n      0x0100\n      exp\n      swap1\n      div\n      0xff\n      and\n        /* \"src/MultiSig.sol\":6456:6487  s_isSigner[msg.sender] == false */\n      iszero\n      iszero\n      sub\n        /* \"src/MultiSig.sol\":6452:6549  if (s_isSigner[msg.sender] == false) {... */\n      tag_135\n      jumpi\n        /* \"src/MultiSig.sol\":6511:6537  MultiSigWallet_NotSigner() */\n      mload(0x40)\n      0x6ee9bcf200000000000000000000000000000000000000000000000000000000\n      dup2\n      mstore\n      0x04\n      add\n      mload(0x40)\n      dup1\n      swap2\n      sub\n      swap1\n      revert\n        /* \"src/MultiSig.sol\":6452:6549  if (s_isSigner[msg.sender] == false) {... */\n    tag_135:\n        /* \"src/MultiSig.sol\":6146:6147  0 */\n      0x00\n        /* \"src/MultiSig.sol\":8286:8338  checkSignature(signature, functionData, dest, nonce) */\n      tag_137\n        /* \"src/MultiSig.sol\":8301:8310  signature */\n      dup5\n      dup5\n        /* \"src/MultiSig.sol\":8312:8324  functionData */\n      dup9\n      dup9\n        /* \"src/MultiSig.sol\":8326:8330  dest */\n      dup12\n        /* \"src/MultiSig.sol\":8332:8337  nonce */\n      dup8\n        /* \"src/MultiSig.sol\":8286:8300  checkSignature */\n      tag_42\n        /* \"src/MultiSig.sol\":8286:8338  checkSignature(signature, functionData, dest, nonce) */\n      jump\t// in\n    tag_137:\n        /* \"src/MultiSig.sol\":8286:8381  checkSignature(signature, functionData, dest, nonce) ==... */\n      eq\n        /* \"src/MultiSig.sol\":8264:8424  require(... */\n      tag_138\n      jumpi\n      mload(0x40)\n      0x08c379a000000000000000000000000000000000000000000000000000000000\n      dup2\n      mstore\n      0x04\n      add\n      tag_139\n      swap1\n      tag_140\n      jump\t// in\n    tag_139:\n      mload(0x40)\n      dup1\n      swap2\n      sub\n      swap1\n      revert\n    tag_138:\n        /* \"src/MultiSig.sol\":8435:8460  _call(dest, functionData) */\n      tag_141\n        /* \"src/MultiSig.sol\":8441:8445  dest */\n      dup7\n        /* \"src/MultiSig.sol\":8447:8459  functionData */\n      dup7\n      dup7\n        /* \"src/MultiSig.sol\":8435:8440  _call */\n      tag_142\n        /* \"src/MultiSig.sol\":8435:8460  _call(dest, functionData) */\n      jump\t// in\n    tag_141:\n        /* \"src/MultiSig.sol\":8088:8468  function execute(... */\n      pop\n      pop\n      pop\n      pop\n      pop\n      pop\n      jump\t// out\n        /* \"src/MultiSig.sol\":5018:5346  function toEthSignedMessageHash(... */\n    tag_58:\n        /* \"src/MultiSig.sol\":5101:5108  bytes32 */\n      0x00\n        /* \"src/MultiSig.sol\":5318:5322  hash */\n      dup2\n        /* \"src/MultiSig.sol\":5265:5323  abi.encodePacked(\"\\x19Ethereum Signed Message:\\n32\", hash) */\n      add(0x20, mload(0x40))\n      tag_144\n      swap2\n      swap1\n      tag_145\n      jump\t// in\n    tag_144:\n      mload(0x40)\n      0x20\n      dup2\n      dup4\n      sub\n      sub\n      dup2\n      mstore\n      swap1\n      0x40\n      mstore\n        /* \"src/MultiSig.sol\":5237:5338  keccak256(... */\n      dup1\n      mload\n      swap1\n      0x20\n      add\n      keccak256\n        /* \"src/MultiSig.sol\":5217:5338  return... */\n      swap1\n      pop\n        /* \"src/MultiSig.sol\":5018:5346  function toEthSignedMessageHash(... */\n      swap2\n      swap1\n      pop\n      jump\t// out\n        /* \"src/MultiSig.sol\":8605:8703  function getSigners() external view returns (address[] memory) {... */\n    tag_62:\n        /* \"src/MultiSig.sol\":8650:8666  address[] memory */\n      0x60\n        /* \"src/MultiSig.sol\":8686:8695  s_signers */\n      0x01\n        /* \"src/MultiSig.sol\":8679:8695  return s_signers */\n      dup1\n      sload\n      dup1\n      0x20\n      mul\n      0x20\n      add\n      mload(0x40)\n      swap1\n      dup2\n      add\n      0x40\n      mstore\n      dup1\n      swap3\n      swap2\n      swap1\n      dup2\n      dup2\n      mstore\n      0x20\n      add\n      dup3\n      dup1\n      sload\n      dup1\n      iszero\n      tag_147\n      jumpi\n      0x20\n      mul\n      dup3\n      add\n      swap2\n      swap1\n      0x00\n      mstore\n      keccak256(0x00, 0x20)\n      swap1\n    tag_148:\n      dup2\n      0x00\n      swap1\n      sload\n      swap1\n      0x0100\n      exp\n      swap1\n      div\n      0xffffffffffffffffffffffffffffffffffffffff\n      and\n      0xffffffffffffffffffffffffffffffffffffffff\n      and\n      dup2\n      mstore\n      0x20\n      add\n      swap1\n      0x01\n      add\n      swap1\n      dup1\n      dup4\n      gt\n      tag_148\n      jumpi\n    tag_147:\n      pop\n      pop\n      pop\n      pop\n      pop\n      swap1\n      pop\n        /* \"src/MultiSig.sol\":8605:8703  function getSigners() external view returns (address[] memory) {... */\n      swap1\n      jump\t// out\n        /* \"lib/openzeppelin-contracts-upgradeable/lib/openzeppelin-contracts/contracts/proxy/utils/UUPSUpgradeable.sol\":1708:1766  string public constant UPGRADE_INTERFACE_VERSION = \"5.0.0\" */\n    tag_67:\n      mload(0x40)\n      dup1\n      0x40\n      add\n      0x40\n      mstore\n      dup1\n      0x05\n      dup2\n      mstore\n      0x20\n      add\n      0x352e302e30000000000000000000000000000000000000000000000000000000\n      dup2\n      mstore\n      pop\n      dup2\n      jump\t// out\n        /* \"src/MultiSig.sol\":8711:8941  function getTransactionHash(... */\n    tag_74:\n        /* \"src/MultiSig.sol\":8852:8859  bytes32 */\n      0x00\n        /* \"src/MultiSig.sol\":8906:8910  dest */\n      dup5\n        /* \"src/MultiSig.sol\":8912:8924  functionData */\n      dup5\n      dup5\n        /* \"src/MultiSig.sol\":8926:8931  nonce */\n      dup5\n        /* \"src/MultiSig.sol\":8889:8932  abi.encodePacked(dest, functionData, nonce) */\n      add(0x20, mload(0x40))\n      tag_150\n      swap5\n      swap4\n      swap3\n      swap2\n      swap1\n      tag_151\n      jump\t// in\n    tag_150:\n      mload(0x40)\n      0x20\n      dup2\n      dup4\n      sub\n      sub\n      dup2\n      mstore\n      swap1\n      0x40\n      mstore\n        /* \"src/MultiSig.sol\":8879:8933  keccak256(abi.encodePacked(dest, functionData, nonce)) */\n      dup1\n      mload\n      swap1\n      0x20\n      add\n      keccak256\n        /* \"src/MultiSig.sol\":8872:8933  return keccak256(abi.encodePacked(dest, functionData, nonce)) */\n      swap1\n      pop\n        /* \"src/MultiSig.sol\":8711:8941  function getTransactionHash(... */\n      swap5\n      swap4\n      pop\n      pop\n      pop\n      pop\n      jump\t// out\n        /* \"src/MultiSig.sol\":3191:4718  function recover(... */\n    tag_84:\n        /* \"src/MultiSig.sol\":3319:3326  address */\n      0x00\n        /* \"src/MultiSig.sol\":4275:4341  0x7FFFFFFFFFFFFFFFFFFFFFFFFFFFFFFF5D576E7357A4501DDFE92F46681B20A0 */\n      0x7fffffffffffffffffffffffffffffff5d576e7357a4501ddfe92f46681b20a0\n        /* \"src/MultiSig.sol\":4252:4253  s */\n      dup3\n        /* \"src/MultiSig.sol\":4244:4254  uint256(s) */\n      0x00\n      shr\n        /* \"src/MultiSig.sol\":4244:4341  uint256(s) <=... */\n      gt\n      iszero\n        /* \"src/MultiSig.sol\":4222:4403  require(... */\n      tag_153\n      jumpi\n      mload(0x40)\n      0x08c379a000000000000000000000000000000000000000000000000000000000\n      dup2\n      mstore\n      0x04\n      add\n      tag_154\n      swap1\n      tag_155\n      jump\t// in\n    tag_154:\n      mload(0x40)\n      dup1\n      swap2\n      sub\n      swap1\n      revert\n    tag_153:\n        /* \"src/MultiSig.sol\":4427:4429  27 */\n      0x1b\n        /* \"src/MultiSig.sol\":4422:4423  v */\n      dup5\n        /* \"src/MultiSig.sol\":4422:4429  v == 27 */\n      0xff\n      and\n      eq\n        /* \"src/MultiSig.sol\":4422:4440  v == 27 || v == 28 */\n      dup1\n      tag_156\n      jumpi\n      pop\n        /* \"src/MultiSig.sol\":4438:4440  28 */\n      0x1c\n        /* \"src/MultiSig.sol\":4433:4434  v */\n      dup5\n        /* \"src/MultiSig.sol\":4433:4440  v == 28 */\n      0xff\n      and\n      eq\n        /* \"src/MultiSig.sol\":4422:4440  v == 27 || v == 28 */\n    tag_156:\n        /* \"src/MultiSig.sol\":4414:4479  require(v == 27 || v == 28, \"ECDSA: invalid signature 'v' value\") */\n      tag_157\n      jumpi\n      mload(0x40)\n      0x08c379a000000000000000000000000000000000000000000000000000000000\n      dup2\n      mstore\n      0x04\n      add\n      tag_158\n      swap1\n      tag_159\n      jump\t// in\n    tag_158:\n      mload(0x40)\n      dup1\n      swap2\n      sub\n      swap1\n      revert\n    tag_157:\n        /* \"src/MultiSig.sol\":4577:4591  address signer */\n      0x00\n        /* \"src/MultiSig.sol\":4594:4618  ecrecover(hash, v, r, s) */\n      0x01\n        /* \"src/MultiSig.sol\":4604:4608  hash */\n      dup7\n        /* \"src/MultiSig.sol\":4610:4611  v */\n      dup7\n        /* \"src/MultiSig.sol\":4613:4614  r */\n      dup7\n        /* \"src/MultiSig.sol\":4616:4617  s */\n      dup7\n        /* \"src/MultiSig.sol\":4594:4618  ecrecover(hash, v, r, s) */\n      mload(0x40)\n      0x00\n      dup2\n      mstore\n      0x20\n      add\n      0x40\n      mstore\n      mload(0x40)\n      tag_160\n      swap5\n      swap4\n      swap3\n      swap2\n      swap1\n      tag_161\n      jump\t// in\n    tag_160:\n      0x20\n      mload(0x40)\n      0x20\n      dup2\n      sub\n      swap1\n      dup1\n      dup5\n      sub\n      swap1\n      dup6\n      gas\n      staticcall\n      iszero\n      dup1\n      iszero\n      tag_163\n      jumpi\n      returndatasize\n      0x00\n      dup1\n      returndatacopy\n      revert(0x00, returndatasize)\n    tag_163:\n      pop\n      pop\n      pop\n      mload(sub(mload(0x40), 0x20))\n        /* \"src/MultiSig.sol\":4577:4618  address signer = ecrecover(hash, v, r, s) */\n      swap1\n      pop\n        /* \"src/MultiSig.sol\":4655:4656  0 */\n      0x00\n        /* \"src/MultiSig.sol\":4637:4657  signer != address(0) */\n      0xffffffffffffffffffffffffffffffffffffffff\n      and\n        /* \"src/MultiSig.sol\":4637:4643  signer */\n      dup2\n        /* \"src/MultiSig.sol\":4637:4657  signer != address(0) */\n      0xffffffffffffffffffffffffffffffffffffffff\n      and\n      sub\n        /* \"src/MultiSig.sol\":4629:4686  require(signer != address(0), \"ECDSA: invalid signature\") */\n      tag_164\n      jumpi\n      mload(0x40)\n      0x08c379a000000000000000000000000000000000000000000000000000000000\n      dup2\n      mstore\n      0x04\n      add\n      tag_165\n      swap1\n      tag_166\n      jump\t// in\n    tag_165:\n      mload(0x40)\n      dup1\n      swap2\n      sub\n      swap1\n      revert\n    tag_164:\n        /* \"src/MultiSig.sol\":4704:4710  signer */\n      dup1\n        /* \"src/MultiSig.sol\":4697:4710  return signer */\n      swap2\n      pop\n      pop\n        /* \"src/MultiSig.sol\":3191:4718  function recover(... */\n      swap5\n      swap4\n      pop\n      pop\n      pop\n      pop\n      jump\t// out\n        /* \"lib/openzeppelin-contracts-upgradeable/lib/openzeppelin-contracts/contracts/proxy/utils/UUPSUpgradeable.sol\":4333:4645  function _checkProxy() internal view virtual {... */\n    tag_88:\n        /* \"lib/openzeppelin-contracts-upgradeable/lib/openzeppelin-contracts/contracts/proxy/utils/UUPSUpgradeable.sol\":4422:4428  __self */\n      immutable(\"0x71c24ce59180130dc1b5c3ebcbddeb1cf32dae46f5ec55f50a3074f581ef8c07\")\n        /* \"lib/openzeppelin-contracts-upgradeable/lib/openzeppelin-contracts/contracts/proxy/utils/UUPSUpgradeable.sol\":4405:4428  address(this) == __self */\n      0xffffffffffffffffffffffffffffffffffffffff\n      and\n        /* \"lib/openzeppelin-contracts-upgradeable/lib/openzeppelin-contracts/contracts/proxy/utils/UUPSUpgradeable.sol\":4413:4417  this */\n      address\n        /* \"lib/openzeppelin-contracts-upgradeable/lib/openzeppelin-contracts/contracts/proxy/utils/UUPSUpgradeable.sol\":4405:4428  address(this) == __self */\n      0xffffffffffffffffffffffffffffffffffffffff\n      and\n      eq\n        /* \"lib/openzeppelin-contracts-upgradeable/lib/openzeppelin-contracts/contracts/proxy/utils/UUPSUpgradeable.sol\":4405:4525  address(this) == __self || // Must be called through delegatecall... */\n      dup1\n      tag_168\n      jumpi\n      pop\n        /* \"lib/openzeppelin-contracts-upgradeable/lib/openzeppelin-contracts/contracts/proxy/utils/UUPSUpgradeable.sol\":4519:4525  __self */\n      immutable(\"0x71c24ce59180130dc1b5c3ebcbddeb1cf32dae46f5ec55f50a3074f581ef8c07\")\n        /* \"lib/openzeppelin-contracts-upgradeable/lib/openzeppelin-contracts/contracts/proxy/utils/UUPSUpgradeable.sol\":4483:4525  ERC1967Utils.getImplementation() != __self */\n      0xffffffffffffffffffffffffffffffffffffffff\n      and\n        /* \"lib/openzeppelin-contracts-upgradeable/lib/openzeppelin-contracts/contracts/proxy/utils/UUPSUpgradeable.sol\":4483:4515  ERC1967Utils.getImplementation() */\n      tag_169\n        /* \"lib/openzeppelin-contracts-upgradeable/lib/openzeppelin-contracts/contracts/proxy/utils/UUPSUpgradeable.sol\":4483:4513  ERC1967Utils.getImplementation */\n      tag_170\n        /* \"lib/openzeppelin-contracts-upgradeable/lib/openzeppelin-contracts/contracts/proxy/utils/UUPSUpgradeable.sol\":4483:4515  ERC1967Utils.getImplementation() */\n      jump\t// in\n    tag_169:\n        /* \"lib/openzeppelin-contracts-upgradeable/lib/openzeppelin-contracts/contracts/proxy/utils/UUPSUpgradeable.sol\":4483:4525  ERC1967Utils.getImplementation() != __self */\n      0xffffffffffffffffffffffffffffffffffffffff\n      and\n      eq\n      iszero\n        /* \"lib/openzeppelin-contracts-upgradeable/lib/openzeppelin-contracts/contracts/proxy/utils/UUPSUpgradeable.sol\":4405:4525  address(this) == __self || // Must be called through delegatecall... */\n    tag_168:\n        /* \"lib/openzeppelin-contracts-upgradeable/lib/openzeppelin-contracts/contracts/proxy/utils/UUPSUpgradeable.sol\":4388:4639  if (... */\n      iszero\n      tag_171\n      jumpi\n        /* \"lib/openzeppelin-contracts-upgradeable/lib/openzeppelin-contracts/contracts/proxy/utils/UUPSUpgradeable.sol\":4599:4628  UUPSUnauthorizedCallContext() */\n      mload(0x40)\n      0xe07c8dba00000000000000000000000000000000000000000000000000000000\n      dup2\n      mstore\n      0x04\n      add\n      mload(0x40)\n      dup1\n      swap2\n      sub\n      swap1\n      revert\n        /* \"lib/openzeppelin-contracts-upgradeable/lib/openzeppelin-contracts/contracts/proxy/utils/UUPSUpgradeable.sol\":4388:4639  if (... */\n    tag_171:\n        /* \"lib/openzeppelin-contracts-upgradeable/lib/openzeppelin-contracts/contracts/proxy/utils/UUPSUpgradeable.sol\":4333:4645  function _checkProxy() internal view virtual {... */\n      jump\t// out\n        /* \"src/MultiSig.sol\":8949:9010  function _authorizeUpgrade(address) internal view override {} */\n    tag_91:\n      pop\n      jump\t// out\n        /* \"lib/openzeppelin-contracts-upgradeable/lib/openzeppelin-contracts/contracts/proxy/utils/UUPSUpgradeable.sol\":5786:6324  function _upgradeToAndCallUUPS(address newImplementation, bytes memory data) private {... */\n    tag_93:\n        /* \"lib/openzeppelin-contracts-upgradeable/lib/openzeppelin-contracts/contracts/proxy/utils/UUPSUpgradeable.sol\":5903:5920  newImplementation */\n      dup2\n        /* \"lib/openzeppelin-contracts-upgradeable/lib/openzeppelin-contracts/contracts/proxy/utils/UUPSUpgradeable.sol\":5885:5935  IERC1822Proxiable(newImplementation).proxiableUUID */\n      0xffffffffffffffffffffffffffffffffffffffff\n      and\n      0x52d1902d\n        /* \"lib/openzeppelin-contracts-upgradeable/lib/openzeppelin-contracts/contracts/proxy/utils/UUPSUpgradeable.sol\":5885:5937  IERC1822Proxiable(newImplementation).proxiableUUID() */\n      mload(0x40)\n      dup2\n      0xffffffff\n      and\n      0xe0\n      shl\n      dup2\n      mstore\n      0x04\n      add\n      0x20\n      mload(0x40)\n      dup1\n      dup4\n      sub\n      dup2\n      dup7\n      gas\n      staticcall\n      swap3\n      pop\n      pop\n      pop\n      dup1\n      iszero\n      tag_174\n      jumpi\n      pop\n      mload(0x40)\n      returndatasize\n      not(0x1f)\n      0x1f\n      dup3\n      add\n      and\n      dup3\n      add\n      dup1\n      0x40\n      mstore\n      pop\n      dup2\n      add\n      swap1\n      tag_175\n      swap2\n      swap1\n      tag_176\n      jump\t// in\n    tag_175:\n      0x01\n    tag_174:\n        /* \"lib/openzeppelin-contracts-upgradeable/lib/openzeppelin-contracts/contracts/proxy/utils/UUPSUpgradeable.sol\":5881:6318  try IERC1822Proxiable(newImplementation).proxiableUUID() returns (bytes32 slot) {... */\n      tag_177\n      jumpi\n        /* \"lib/openzeppelin-contracts-upgradeable/lib/openzeppelin-contracts/contracts/proxy/utils/UUPSUpgradeable.sol\":6289:6306  newImplementation */\n      dup2\n        /* \"lib/openzeppelin-contracts-upgradeable/lib/openzeppelin-contracts/contracts/proxy/utils/UUPSUpgradeable.sol\":6247:6307  ERC1967Utils.ERC1967InvalidImplementation(newImplementation) */\n      mload(0x40)\n      0x4c9c8ce300000000000000000000000000000000000000000000000000000000\n      dup2\n      mstore\n      0x04\n      add\n      tag_181\n      swap2\n      swap1\n      tag_23\n      jump\t// in\n    tag_181:\n      mload(0x40)\n      dup1\n      swap2\n      sub\n      swap1\n      revert\n        /* \"lib/openzeppelin-contracts-upgradeable/lib/openzeppelin-contracts/contracts/proxy/utils/UUPSUpgradeable.sol\":5881:6318  try IERC1822Proxiable(newImplementation).proxiableUUID() returns (bytes32 slot) {... */\n    tag_177:\n        /* \"lib/openzeppelin-contracts-upgradeable/lib/openzeppelin-contracts/contracts/proxy/ERC1967/ERC1967Utils.sol\":1327:1393  0x360894a13ba1a3210667c828492db98dca3e2076cc3735a920a3ca505d382bbc */\n      0x360894a13ba1a3210667c828492db98dca3e2076cc3735a920a3ca505d382bbc\n        /* \"lib/openzeppelin-contracts-upgradeable/lib/openzeppelin-contracts/contracts/proxy/utils/UUPSUpgradeable.sol\":5987:6019  ERC1967Utils.IMPLEMENTATION_SLOT */\n      0x00\n      shl\n        /* \"lib/openzeppelin-contracts-upgradeable/lib/openzeppelin-contracts/contracts/proxy/utils/UUPSUpgradeable.sol\":5979:5983  slot */\n      dup2\n        /* \"lib/openzeppelin-contracts-upgradeable/lib/openzeppelin-contracts/contracts/proxy/utils/UUPSUpgradeable.sol\":5979:6019  slot != ERC1967Utils.IMPLEMENTATION_SLOT */\n      eq\n        /* \"lib/openzeppelin-contracts-upgradeable/lib/openzeppelin-contracts/contracts/proxy/utils/UUPSUpgradeable.sol\":5975:6095  if (slot != ERC1967Utils.IMPLEMENTATION_SLOT) {... */\n      tag_183\n      jumpi\n        /* \"lib/openzeppelin-contracts-upgradeable/lib/openzeppelin-contracts/contracts/proxy/utils/UUPSUpgradeable.sol\":6075:6079  slot */\n      dup1\n        /* \"lib/openzeppelin-contracts-upgradeable/lib/openzeppelin-contracts/contracts/proxy/utils/UUPSUpgradeable.sol\":6046:6080  UUPSUnsupportedProxiableUUID(slot) */\n      mload(0x40)\n      0xaa1d49a400000000000000000000000000000000000000000000000000000000\n      dup2\n      mstore\n      0x04\n      add\n      tag_184\n      swap2\n      swap1\n      tag_37\n      jump\t// in\n    tag_184:\n      mload(0x40)\n      dup1\n      swap2\n      sub\n      swap1\n      revert\n        /* \"lib/openzeppelin-contracts-upgradeable/lib/openzeppelin-contracts/contracts/proxy/utils/UUPSUpgradeable.sol\":5975:6095  if (slot != ERC1967Utils.IMPLEMENTATION_SLOT) {... */\n    tag_183:\n        /* \"lib/openzeppelin-contracts-upgradeable/lib/openzeppelin-contracts/contracts/proxy/utils/UUPSUpgradeable.sol\":6108:6162  ERC1967Utils.upgradeToAndCall(newImplementation, data) */\n      tag_185\n        /* \"lib/openzeppelin-contracts-upgradeable/lib/openzeppelin-contracts/contracts/proxy/utils/UUPSUpgradeable.sol\":6138:6155  newImplementation */\n      dup4\n        /* \"lib/openzeppelin-contracts-upgradeable/lib/openzeppelin-contracts/contracts/proxy/utils/UUPSUpgradeable.sol\":6157:6161  data */\n      dup4\n        /* \"lib/openzeppelin-contracts-upgradeable/lib/openzeppelin-contracts/contracts/proxy/utils/UUPSUpgradeable.sol\":6108:6137  ERC1967Utils.upgradeToAndCall */\n      tag_186\n        /* \"lib/openzeppelin-contracts-upgradeable/lib/openzeppelin-contracts/contracts/proxy/utils/UUPSUpgradeable.sol\":6108:6162  ERC1967Utils.upgradeToAndCall(newImplementation, data) */\n      jump\t// in\n    tag_185:\n        /* \"lib/openzeppelin-contracts-upgradeable/lib/openzeppelin-contracts/contracts/proxy/utils/UUPSUpgradeable.sol\":5938:6173  returns (bytes32 slot) {... */\n      pop\n        /* \"lib/openzeppelin-contracts-upgradeable/lib/openzeppelin-contracts/contracts/proxy/utils/UUPSUpgradeable.sol\":5786:6324  function _upgradeToAndCallUUPS(address newImplementation, bytes memory data) private {... */\n      pop\n      pop\n      jump\t// out\n        /* \"lib/openzeppelin-contracts-upgradeable/lib/openzeppelin-contracts/contracts/proxy/utils/UUPSUpgradeable.sol\":4762:4975  function _checkNotDelegated() internal view virtual {... */\n    tag_96:\n        /* \"lib/openzeppelin-contracts-upgradeable/lib/openzeppelin-contracts/contracts/proxy/utils/UUPSUpgradeable.sol\":4845:4851  __self */\n      immutable(\"0x71c24ce59180130dc1b5c3ebcbddeb1cf32dae46f5ec55f50a3074f581ef8c07\")\n        /* \"lib/openzeppelin-contracts-upgradeable/lib/openzeppelin-contracts/contracts/proxy/utils/UUPSUpgradeable.sol\":4828:4851  address(this) != __self */\n      0xffffffffffffffffffffffffffffffffffffffff\n      and\n        /* \"lib/openzeppelin-contracts-upgradeable/lib/openzeppelin-contracts/contracts/proxy/utils/UUPSUpgradeable.sol\":4836:4840  this */\n      address\n        /* \"lib/openzeppelin-contracts-upgradeable/lib/openzeppelin-contracts/contracts/proxy/utils/UUPSUpgradeable.sol\":4828:4851  address(this) != __self */\n      0xffffffffffffffffffffffffffffffffffffffff\n      and\n      eq\n        /* \"lib/openzeppelin-contracts-upgradeable/lib/openzeppelin-contracts/contracts/proxy/utils/UUPSUpgradeable.sol\":4824:4969  if (address(this) != __self) {... */\n      tag_188\n      jumpi\n        /* \"lib/openzeppelin-contracts-upgradeable/lib/openzeppelin-contracts/contracts/proxy/utils/UUPSUpgradeable.sol\":4929:4958  UUPSUnauthorizedCallContext() */\n      mload(0x40)\n      0xe07c8dba00000000000000000000000000000000000000000000000000000000\n      dup2\n      mstore\n      0x04\n      add\n      mload(0x40)\n      dup1\n      swap2\n      sub\n      swap1\n      revert\n        /* \"lib/openzeppelin-contracts-upgradeable/lib/openzeppelin-contracts/contracts/proxy/utils/UUPSUpgradeable.sol\":4824:4969  if (address(this) != __self) {... */\n    tag_188:\n        /* \"lib/openzeppelin-contracts-upgradeable/lib/openzeppelin-contracts/contracts/proxy/utils/UUPSUpgradeable.sol\":4762:4975  function _checkNotDelegated() internal view virtual {... */\n      jump\t// out\n        /* \"lib/openzeppelin-contracts-upgradeable/lib/openzeppelin-contracts/contracts/proxy/utils/Initializable.sol\":8737:8907  function _getInitializableStorage() private pure returns (InitializableStorage storage $) {... */\n    tag_116:\n        /* \"lib/openzeppelin-contracts-upgradeable/lib/openzeppelin-contracts/contracts/proxy/utils/Initializable.sol\":8795:8825  InitializableStorage storage $ */\n      0x00\n        /* \"lib/openzeppelin-contracts-upgradeable/lib/openzeppelin-contracts/contracts/proxy/utils/Initializable.sol\":8870:8891  INITIALIZABLE_STORAGE */\n      0xf0c57e16840df040f15088dc2f81fe391c3923bec73e23a9662efc9c229c6a00\n        /* \"lib/openzeppelin-contracts-upgradeable/lib/openzeppelin-contracts/contracts/proxy/utils/Initializable.sol\":8860:8891  $.slot := INITIALIZABLE_STORAGE */\n      swap1\n      pop\n        /* \"lib/openzeppelin-contracts-upgradeable/lib/openzeppelin-contracts/contracts/proxy/utils/Initializable.sol\":8737:8907  function _getInitializableStorage() private pure returns (InitializableStorage storage $) {... */\n      swap1\n      jump\t// out\n        /* \"src/MultiSig.sol\":7887:8080  function _call(address target, bytes calldata data) internal {... */\n    tag_142:\n        /* \"src/MultiSig.sol\":7960:7972  bool success */\n      0x00\n        /* \"src/MultiSig.sol\":7978:7984  target */\n      dup4\n        /* \"src/MultiSig.sol\":7978:7989  target.call */\n      0xffffffffffffffffffffffffffffffffffffffff\n      and\n        /* \"src/MultiSig.sol\":7990:7994  data */\n      dup4\n      dup4\n        /* \"src/MultiSig.sol\":7978:7995  target.call(data) */\n      mload(0x40)\n      tag_191\n      swap3\n      swap2\n      swap1\n      tag_192\n      jump\t// in\n    tag_191:\n      0x00\n      mload(0x40)\n      dup1\n      dup4\n      sub\n      dup2\n      0x00\n      dup7\n      gas\n      call\n      swap2\n      pop\n      pop\n      returndatasize\n      dup1\n      0x00\n      dup2\n      eq\n      tag_195\n      jumpi\n      mload(0x40)\n      swap2\n      pop\n      and(add(returndatasize, 0x3f), not(0x1f))\n      dup3\n      add\n      0x40\n      mstore\n      returndatasize\n      dup3\n      mstore\n      returndatasize\n      0x00\n      0x20\n      dup5\n      add\n      returndatacopy\n      jump(tag_194)\n    tag_195:\n      0x60\n      swap2\n      pop\n    tag_194:\n      pop\n        /* \"src/MultiSig.sol\":7959:7995  (bool success, ) = target.call(data) */\n      pop\n      swap1\n      pop\n        /* \"src/MultiSig.sol\":8011:8018  success */\n      dup1\n        /* \"src/MultiSig.sol\":8006:8073  if (!success) {... */\n      tag_196\n      jumpi\n        /* \"src/MultiSig.sol\":8035:8061  revert(\"Execution Failed\") */\n      mload(0x40)\n      0x08c379a000000000000000000000000000000000000000000000000000000000\n      dup2\n      mstore\n      0x04\n      add\n      tag_197\n      swap1\n      tag_198\n      jump\t// in\n    tag_197:\n      mload(0x40)\n      dup1\n      swap2\n      sub\n      swap1\n      revert\n        /* \"src/MultiSig.sol\":8006:8073  if (!success) {... */\n    tag_196:\n        /* \"src/MultiSig.sol\":7948:8080  {... */\n      pop\n        /* \"src/MultiSig.sol\":7887:8080  function _call(address target, bytes calldata data) internal {... */\n      pop\n      pop\n      pop\n      jump\t// out\n        /* \"lib/openzeppelin-contracts-upgradeable/lib/openzeppelin-contracts/contracts/proxy/ERC1967/ERC1967Utils.sol\":1957:2095  function getImplementation() internal view returns (address) {... */\n    tag_170:\n        /* \"lib/openzeppelin-contracts-upgradeable/lib/openzeppelin-contracts/contracts/proxy/ERC1967/ERC1967Utils.sol\":2009:2016  address */\n      0x00\n        /* \"lib/openzeppelin-contracts-upgradeable/lib/openzeppelin-contracts/contracts/proxy/ERC1967/ERC1967Utils.sol\":2035:2082  StorageSlot.getAddressSlot(IMPLEMENTATION_SLOT) */\n      tag_200\n        /* \"lib/openzeppelin-contracts-upgradeable/lib/openzeppelin-contracts/contracts/proxy/ERC1967/ERC1967Utils.sol\":1327:1393  0x360894a13ba1a3210667c828492db98dca3e2076cc3735a920a3ca505d382bbc */\n      0x360894a13ba1a3210667c828492db98dca3e2076cc3735a920a3ca505d382bbc\n        /* \"lib/openzeppelin-contracts-upgradeable/lib/openzeppelin-contracts/contracts/proxy/ERC1967/ERC1967Utils.sol\":2062:2081  IMPLEMENTATION_SLOT */\n      0x00\n      shl\n        /* \"lib/openzeppelin-contracts-upgradeable/lib/openzeppelin-contracts/contracts/proxy/ERC1967/ERC1967Utils.sol\":2035:2061  StorageSlot.getAddressSlot */\n      tag_201\n        /* \"lib/openzeppelin-contracts-upgradeable/lib/openzeppelin-contracts/contracts/proxy/ERC1967/ERC1967Utils.sol\":2035:2082  StorageSlot.getAddressSlot(IMPLEMENTATION_SLOT) */\n      jump\t// in\n    tag_200:\n        /* \"lib/openzeppelin-contracts-upgradeable/lib/openzeppelin-contracts/contracts/proxy/ERC1967/ERC1967Utils.sol\":2035:2088  StorageSlot.getAddressSlot(IMPLEMENTATION_SLOT).value */\n      0x00\n      add\n      0x00\n      swap1\n      sload\n      swap1\n      0x0100\n      exp\n      swap1\n      div\n      0xffffffffffffffffffffffffffffffffffffffff\n      and\n        /* \"lib/openzeppelin-contracts-upgradeable/lib/openzeppelin-contracts/contracts/proxy/ERC1967/ERC1967Utils.sol\":2028:2088  return StorageSlot.getAddressSlot(IMPLEMENTATION_SLOT).value */\n      swap1\n      pop\n        /* \"lib/openzeppelin-contracts-upgradeable/lib/openzeppelin-contracts/contracts/proxy/ERC1967/ERC1967Utils.sol\":1957:2095  function getImplementation() internal view returns (address) {... */\n      swap1\n      jump\t// out\n        /* \"lib/openzeppelin-contracts-upgradeable/lib/openzeppelin-contracts/contracts/proxy/ERC1967/ERC1967Utils.sol\":2779:3114  function upgradeToAndCall(address newImplementation, bytes memory data) internal {... */\n    tag_186:\n        /* \"lib/openzeppelin-contracts-upgradeable/lib/openzeppelin-contracts/contracts/proxy/ERC1967/ERC1967Utils.sol\":2870:2907  _setImplementation(newImplementation) */\n      tag_203\n        /* \"lib/openzeppelin-contracts-upgradeable/lib/openzeppelin-contracts/contracts/proxy/ERC1967/ERC1967Utils.sol\":2889:2906  newImplementation */\n      dup3\n        /* \"lib/openzeppelin-contracts-upgradeable/lib/openzeppelin-contracts/contracts/proxy/ERC1967/ERC1967Utils.sol\":2870:2888  _setImplementation */\n      tag_204\n        /* \"lib/openzeppelin-contracts-upgradeable/lib/openzeppelin-contracts/contracts/proxy/ERC1967/ERC1967Utils.sol\":2870:2907  _setImplementation(newImplementation) */\n      jump\t// in\n    tag_203:\n        /* \"lib/openzeppelin-contracts-upgradeable/lib/openzeppelin-contracts/contracts/proxy/ERC1967/ERC1967Utils.sol\":2931:2948  newImplementation */\n      dup2\n        /* \"lib/openzeppelin-contracts-upgradeable/lib/openzeppelin-contracts/contracts/proxy/ERC1967/ERC1967Utils.sol\":2922:2949  Upgraded(newImplementation) */\n      0xffffffffffffffffffffffffffffffffffffffff\n      and\n      0xbc7cd75a20ee27fd9adebab32041f755214dbc6bffa90cc0225b39da2e5c2d3b\n      mload(0x40)\n      mload(0x40)\n      dup1\n      swap2\n      sub\n      swap1\n      log2\n        /* \"lib/openzeppelin-contracts-upgradeable/lib/openzeppelin-contracts/contracts/proxy/ERC1967/ERC1967Utils.sol\":2978:2979  0 */\n      0x00\n        /* \"lib/openzeppelin-contracts-upgradeable/lib/openzeppelin-contracts/contracts/proxy/ERC1967/ERC1967Utils.sol\":2964:2968  data */\n      dup2\n        /* \"lib/openzeppelin-contracts-upgradeable/lib/openzeppelin-contracts/contracts/proxy/ERC1967/ERC1967Utils.sol\":2964:2975  data.length */\n      mload\n        /* \"lib/openzeppelin-contracts-upgradeable/lib/openzeppelin-contracts/contracts/proxy/ERC1967/ERC1967Utils.sol\":2964:2979  data.length > 0 */\n      gt\n        /* \"lib/openzeppelin-contracts-upgradeable/lib/openzeppelin-contracts/contracts/proxy/ERC1967/ERC1967Utils.sol\":2960:3108  if (data.length > 0) {... */\n      iszero\n      tag_205\n      jumpi\n        /* \"lib/openzeppelin-contracts-upgradeable/lib/openzeppelin-contracts/contracts/proxy/ERC1967/ERC1967Utils.sol\":2995:3048  Address.functionDelegateCall(newImplementation, data) */\n      tag_206\n        /* \"lib/openzeppelin-contracts-upgradeable/lib/openzeppelin-contracts/contracts/proxy/ERC1967/ERC1967Utils.sol\":3024:3041  newImplementation */\n      dup3\n        /* \"lib/openzeppelin-contracts-upgradeable/lib/openzeppelin-contracts/contracts/proxy/ERC1967/ERC1967Utils.sol\":3043:3047  data */\n      dup3\n        /* \"lib/openzeppelin-contracts-upgradeable/lib/openzeppelin-contracts/contracts/proxy/ERC1967/ERC1967Utils.sol\":2995:3023  Address.functionDelegateCall */\n      tag_207\n        /* \"lib/openzeppelin-contracts-upgradeable/lib/openzeppelin-contracts/contracts/proxy/ERC1967/ERC1967Utils.sol\":2995:3048  Address.functionDelegateCall(newImplementation, data) */\n      jump\t// in\n    tag_206:\n      pop\n        /* \"lib/openzeppelin-contracts-upgradeable/lib/openzeppelin-contracts/contracts/proxy/ERC1967/ERC1967Utils.sol\":2960:3108  if (data.length > 0) {... */\n      jump(tag_208)\n    tag_205:\n        /* \"lib/openzeppelin-contracts-upgradeable/lib/openzeppelin-contracts/contracts/proxy/ERC1967/ERC1967Utils.sol\":3079:3097  _checkNonPayable() */\n      tag_209\n        /* \"lib/openzeppelin-contracts-upgradeable/lib/openzeppelin-contracts/contracts/proxy/ERC1967/ERC1967Utils.sol\":3079:3095  _checkNonPayable */\n      tag_210\n        /* \"lib/openzeppelin-contracts-upgradeable/lib/openzeppelin-contracts/contracts/proxy/ERC1967/ERC1967Utils.sol\":3079:3097  _checkNonPayable() */\n      jump\t// in\n    tag_209:\n        /* \"lib/openzeppelin-contracts-upgradeable/lib/openzeppelin-contracts/contracts/proxy/ERC1967/ERC1967Utils.sol\":2960:3108  if (data.length > 0) {... */\n    tag_208:\n        /* \"lib/openzeppelin-contracts-upgradeable/lib/openzeppelin-contracts/contracts/proxy/ERC1967/ERC1967Utils.sol\":2779:3114  function upgradeToAndCall(address newImplementation, bytes memory data) internal {... */\n      pop\n      pop\n      jump\t// out\n        /* \"lib/openzeppelin-contracts-upgradeable/lib/openzeppelin-contracts/contracts/utils/StorageSlot.sol\":1684:1874  function getAddressSlot(bytes32 slot) internal pure returns (AddressSlot storage r) {... */\n    tag_201:\n        /* \"lib/openzeppelin-contracts-upgradeable/lib/openzeppelin-contracts/contracts/utils/StorageSlot.sol\":1745:1766  AddressSlot storage r */\n      0x00\n        /* \"lib/openzeppelin-contracts-upgradeable/lib/openzeppelin-contracts/contracts/utils/StorageSlot.sol\":1854:1858  slot */\n      dup2\n        /* \"lib/openzeppelin-contracts-upgradeable/lib/openzeppelin-contracts/contracts/utils/StorageSlot.sol\":1844:1858  r.slot := slot */\n      swap1\n      pop\n        /* \"lib/openzeppelin-contracts-upgradeable/lib/openzeppelin-contracts/contracts/utils/StorageSlot.sol\":1684:1874  function getAddressSlot(bytes32 slot) internal pure returns (AddressSlot storage r) {... */\n      swap2\n      swap1\n      pop\n      jump\t// out\n        /* \"lib/openzeppelin-contracts-upgradeable/lib/openzeppelin-contracts/contracts/proxy/ERC1967/ERC1967Utils.sol\":2186:2467  function _setImplementation(address newImplementation) private {... */\n    tag_204:\n        /* \"lib/openzeppelin-contracts-upgradeable/lib/openzeppelin-contracts/contracts/proxy/ERC1967/ERC1967Utils.sol\":2296:2297  0 */\n      0x00\n        /* \"lib/openzeppelin-contracts-upgradeable/lib/openzeppelin-contracts/contracts/proxy/ERC1967/ERC1967Utils.sol\":2263:2280  newImplementation */\n      dup2\n        /* \"lib/openzeppelin-contracts-upgradeable/lib/openzeppelin-contracts/contracts/proxy/ERC1967/ERC1967Utils.sol\":2263:2292  newImplementation.code.length */\n      0xffffffffffffffffffffffffffffffffffffffff\n      and\n      extcodesize\n        /* \"lib/openzeppelin-contracts-upgradeable/lib/openzeppelin-contracts/contracts/proxy/ERC1967/ERC1967Utils.sol\":2263:2297  newImplementation.code.length == 0 */\n      sub\n        /* \"lib/openzeppelin-contracts-upgradeable/lib/openzeppelin-contracts/contracts/proxy/ERC1967/ERC1967Utils.sol\":2259:2378  if (newImplementation.code.length == 0) {... */\n      tag_213\n      jumpi\n        /* \"lib/openzeppelin-contracts-upgradeable/lib/openzeppelin-contracts/contracts/proxy/ERC1967/ERC1967Utils.sol\":2349:2366  newImplementation */\n      dup1\n        /* \"lib/openzeppelin-contracts-upgradeable/lib/openzeppelin-contracts/contracts/proxy/ERC1967/ERC1967Utils.sol\":2320:2367  ERC1967InvalidImplementation(newImplementation) */\n      mload(0x40)\n      0x4c9c8ce300000000000000000000000000000000000000000000000000000000\n      dup2\n      mstore\n      0x04\n      add\n      tag_214\n      swap2\n      swap1\n      tag_23\n      jump\t// in\n    tag_214:\n      mload(0x40)\n      dup1\n      swap2\n      sub\n      swap1\n      revert\n        /* \"lib/openzeppelin-contracts-upgradeable/lib/openzeppelin-contracts/contracts/proxy/ERC1967/ERC1967Utils.sol\":2259:2378  if (newImplementation.code.length == 0) {... */\n    tag_213:\n        /* \"lib/openzeppelin-contracts-upgradeable/lib/openzeppelin-contracts/contracts/proxy/ERC1967/ERC1967Utils.sol\":2443:2460  newImplementation */\n      dup1\n        /* \"lib/openzeppelin-contracts-upgradeable/lib/openzeppelin-contracts/contracts/proxy/ERC1967/ERC1967Utils.sol\":2387:2434  StorageSlot.getAddressSlot(IMPLEMENTATION_SLOT) */\n      tag_215\n        /* \"lib/openzeppelin-contracts-upgradeable/lib/openzeppelin-contracts/contracts/proxy/ERC1967/ERC1967Utils.sol\":1327:1393  0x360894a13ba1a3210667c828492db98dca3e2076cc3735a920a3ca505d382bbc */\n      0x360894a13ba1a3210667c828492db98dca3e2076cc3735a920a3ca505d382bbc\n        /* \"lib/openzeppelin-contracts-upgradeable/lib/openzeppelin-contracts/contracts/proxy/ERC1967/ERC1967Utils.sol\":2414:2433  IMPLEMENTATION_SLOT */\n      0x00\n      shl\n        /* \"lib/openzeppelin-contracts-upgradeable/lib/openzeppelin-contracts/contracts/proxy/ERC1967/ERC1967Utils.sol\":2387:2413  StorageSlot.getAddressSlot */\n      tag_201\n        /* \"lib/openzeppelin-contracts-upgradeable/lib/openzeppelin-contracts/contracts/proxy/ERC1967/ERC1967Utils.sol\":2387:2434  StorageSlot.getAddressSlot(IMPLEMENTATION_SLOT) */\n      jump\t// in\n    tag_215:\n        /* \"lib/openzeppelin-contracts-upgradeable/lib/openzeppelin-contracts/contracts/proxy/ERC1967/ERC1967Utils.sol\":2387:2440  StorageSlot.getAddressSlot(IMPLEMENTATION_SLOT).value */\n      0x00\n      add\n      0x00\n        /* \"lib/openzeppelin-contracts-upgradeable/lib/openzeppelin-contracts/contracts/proxy/ERC1967/ERC1967Utils.sol\":2387:2460  StorageSlot.getAddressSlot(IMPLEMENTATION_SLOT).value = newImplementation */\n      0x0100\n      exp\n      dup2\n      sload\n      dup2\n      0xffffffffffffffffffffffffffffffffffffffff\n      mul\n      not\n      and\n      swap1\n      dup4\n      0xffffffffffffffffffffffffffffffffffffffff\n      and\n      mul\n      or\n      swap1\n      sstore\n      pop\n        /* \"lib/openzeppelin-contracts-upgradeable/lib/openzeppelin-contracts/contracts/proxy/ERC1967/ERC1967Utils.sol\":2186:2467  function _setImplementation(address newImplementation) private {... */\n      pop\n      jump\t// out\n        /* \"lib/openzeppelin-contracts-upgradeable/lib/openzeppelin-contracts/contracts/utils/Address.sol\":4106:4359  function functionDelegateCall(address target, bytes memory data) internal returns (bytes memory) {... */\n    tag_207:\n        /* \"lib/openzeppelin-contracts-upgradeable/lib/openzeppelin-contracts/contracts/utils/Address.sol\":4189:4201  bytes memory */\n      0x60\n        /* \"lib/openzeppelin-contracts-upgradeable/lib/openzeppelin-contracts/contracts/utils/Address.sol\":4214:4226  bool success */\n      0x00\n        /* \"lib/openzeppelin-contracts-upgradeable/lib/openzeppelin-contracts/contracts/utils/Address.sol\":4228:4251  bytes memory returndata */\n      dup1\n        /* \"lib/openzeppelin-contracts-upgradeable/lib/openzeppelin-contracts/contracts/utils/Address.sol\":4255:4261  target */\n      dup5\n        /* \"lib/openzeppelin-contracts-upgradeable/lib/openzeppelin-contracts/contracts/utils/Address.sol\":4255:4274  target.delegatecall */\n      0xffffffffffffffffffffffffffffffffffffffff\n      and\n        /* \"lib/openzeppelin-contracts-upgradeable/lib/openzeppelin-contracts/contracts/utils/Address.sol\":4275:4279  data */\n      dup5\n        /* \"lib/openzeppelin-contracts-upgradeable/lib/openzeppelin-contracts/contracts/utils/Address.sol\":4255:4280  target.delegatecall(data) */\n      mload(0x40)\n      tag_217\n      swap2\n      swap1\n      tag_218\n      jump\t// in\n    tag_217:\n      0x00\n      mload(0x40)\n      dup1\n      dup4\n      sub\n      dup2\n      dup6\n      gas\n      delegatecall\n      swap2\n      pop\n      pop\n      returndatasize\n      dup1\n      0x00\n      dup2\n      eq\n      tag_221\n      jumpi\n      mload(0x40)\n      swap2\n      pop\n      and(add(returndatasize, 0x3f), not(0x1f))\n      dup3\n      add\n      0x40\n      mstore\n      returndatasize\n      dup3\n      mstore\n      returndatasize\n      0x00\n      0x20\n      dup5\n      add\n      returndatacopy\n      jump(tag_220)\n    tag_221:\n      0x60\n      swap2\n      pop\n    tag_220:\n      pop\n        /* \"lib/openzeppelin-contracts-upgradeable/lib/openzeppelin-contracts/contracts/utils/Address.sol\":4213:4280  (bool success, bytes memory returndata) = target.delegatecall(data) */\n      swap2\n      pop\n      swap2\n      pop\n        /* \"lib/openzeppelin-contracts-upgradeable/lib/openzeppelin-contracts/contracts/utils/Address.sol\":4297:4352  verifyCallResultFromTarget(target, success, returndata) */\n      tag_222\n        /* \"lib/openzeppelin-contracts-upgradeable/lib/openzeppelin-contracts/contracts/utils/Address.sol\":4324:4330  target */\n      dup6\n        /* \"lib/openzeppelin-contracts-upgradeable/lib/openzeppelin-contracts/contracts/utils/Address.sol\":4332:4339  success */\n      dup4\n        /* \"lib/openzeppelin-contracts-upgradeable/lib/openzeppelin-contracts/contracts/utils/Address.sol\":4341:4351  returndata */\n      dup4\n        /* \"lib/openzeppelin-contracts-upgradeable/lib/openzeppelin-contracts/contracts/utils/Address.sol\":4297:4323  verifyCallResultFromTarget */\n      tag_223\n        /* \"lib/openzeppelin-contracts-upgradeable/lib/openzeppelin-contracts/contracts/utils/Address.sol\":4297:4352  verifyCallResultFromTarget(target, success, returndata) */\n      jump\t// in\n    tag_222:\n        /* \"lib/openzeppelin-contracts-upgradeable/lib/openzeppelin-contracts/contracts/utils/Address.sol\":4290:4352  return verifyCallResultFromTarget(target, success, returndata) */\n      swap3\n      pop\n      pop\n      pop\n        /* \"lib/openzeppelin-contracts-upgradeable/lib/openzeppelin-contracts/contracts/utils/Address.sol\":4106:4359  function functionDelegateCall(address target, bytes memory data) internal returns (bytes memory) {... */\n      swap3\n      swap2\n      pop\n      pop\n      jump\t// out\n        /* \"lib/openzeppelin-contracts-upgradeable/lib/openzeppelin-contracts/contracts/proxy/ERC1967/ERC1967Utils.sol\":6598:6720  function _checkNonPayable() private {... */\n    tag_210:\n        /* \"lib/openzeppelin-contracts-upgradeable/lib/openzeppelin-contracts/contracts/proxy/ERC1967/ERC1967Utils.sol\":6660:6661  0 */\n      0x00\n        /* \"lib/openzeppelin-contracts-upgradeable/lib/openzeppelin-contracts/contracts/proxy/ERC1967/ERC1967Utils.sol\":6648:6657  msg.value */\n      callvalue\n        /* \"lib/openzeppelin-contracts-upgradeable/lib/openzeppelin-contracts/contracts/proxy/ERC1967/ERC1967Utils.sol\":6648:6661  msg.value > 0 */\n      gt\n        /* \"lib/openzeppelin-contracts-upgradeable/lib/openzeppelin-contracts/contracts/proxy/ERC1967/ERC1967Utils.sol\":6644:6714  if (msg.value > 0) {... */\n      iszero\n      tag_225\n      jumpi\n        /* \"lib/openzeppelin-contracts-upgradeable/lib/openzeppelin-contracts/contracts/proxy/ERC1967/ERC1967Utils.sol\":6684:6703  ERC1967NonPayable() */\n      mload(0x40)\n      0xb398979f00000000000000000000000000000000000000000000000000000000\n      dup2\n      mstore\n      0x04\n      add\n      mload(0x40)\n      dup1\n      swap2\n      sub\n      swap1\n      revert\n        /* \"lib/openzeppelin-contracts-upgradeable/lib/openzeppelin-contracts/contracts/proxy/ERC1967/ERC1967Utils.sol\":6644:6714  if (msg.value > 0) {... */\n    tag_225:\n        /* \"lib/openzeppelin-contracts-upgradeable/lib/openzeppelin-contracts/contracts/proxy/ERC1967/ERC1967Utils.sol\":6598:6720  function _checkNonPayable() private {... */\n      jump\t// out\n        /* \"lib/openzeppelin-contracts-upgradeable/lib/openzeppelin-contracts/contracts/utils/Address.sol\":4625:5207  function verifyCallResultFromTarget(... */\n    tag_223:\n        /* \"lib/openzeppelin-contracts-upgradeable/lib/openzeppelin-contracts/contracts/utils/Address.sol\":4769:4781  bytes memory */\n      0x60\n        /* \"lib/openzeppelin-contracts-upgradeable/lib/openzeppelin-contracts/contracts/utils/Address.sol\":4798:4805  success */\n      dup3\n        /* \"lib/openzeppelin-contracts-upgradeable/lib/openzeppelin-contracts/contracts/utils/Address.sol\":4793:5201  if (!success) {... */\n      tag_227\n      jumpi\n        /* \"lib/openzeppelin-contracts-upgradeable/lib/openzeppelin-contracts/contracts/utils/Address.sol\":4821:4840  _revert(returndata) */\n      tag_228\n        /* \"lib/openzeppelin-contracts-upgradeable/lib/openzeppelin-contracts/contracts/utils/Address.sol\":4829:4839  returndata */\n      dup3\n        /* \"lib/openzeppelin-contracts-upgradeable/lib/openzeppelin-contracts/contracts/utils/Address.sol\":4821:4828  _revert */\n      tag_229\n        /* \"lib/openzeppelin-contracts-upgradeable/lib/openzeppelin-contracts/contracts/utils/Address.sol\":4821:4840  _revert(returndata) */\n      jump\t// in\n    tag_228:\n        /* \"lib/openzeppelin-contracts-upgradeable/lib/openzeppelin-contracts/contracts/utils/Address.sol\":4793:5201  if (!success) {... */\n      jump(tag_230)\n    tag_227:\n        /* \"lib/openzeppelin-contracts-upgradeable/lib/openzeppelin-contracts/contracts/utils/Address.sol\":5066:5067  0 */\n      0x00\n        /* \"lib/openzeppelin-contracts-upgradeable/lib/openzeppelin-contracts/contracts/utils/Address.sol\":5045:5055  returndata */\n      dup3\n        /* \"lib/openzeppelin-contracts-upgradeable/lib/openzeppelin-contracts/contracts/utils/Address.sol\":5045:5062  returndata.length */\n      mload\n        /* \"lib/openzeppelin-contracts-upgradeable/lib/openzeppelin-contracts/contracts/utils/Address.sol\":5045:5067  returndata.length == 0 */\n      eq\n        /* \"lib/openzeppelin-contracts-upgradeable/lib/openzeppelin-contracts/contracts/utils/Address.sol\":5045:5094  returndata.length == 0 && target.code.length == 0 */\n      dup1\n      iszero\n      tag_231\n      jumpi\n      pop\n        /* \"lib/openzeppelin-contracts-upgradeable/lib/openzeppelin-contracts/contracts/utils/Address.sol\":5093:5094  0 */\n      0x00\n        /* \"lib/openzeppelin-contracts-upgradeable/lib/openzeppelin-contracts/contracts/utils/Address.sol\":5071:5077  target */\n      dup5\n        /* \"lib/openzeppelin-contracts-upgradeable/lib/openzeppelin-contracts/contracts/utils/Address.sol\":5071:5089  target.code.length */\n      0xffffffffffffffffffffffffffffffffffffffff\n      and\n      extcodesize\n        /* \"lib/openzeppelin-contracts-upgradeable/lib/openzeppelin-contracts/contracts/utils/Address.sol\":5071:5094  target.code.length == 0 */\n      eq\n        /* \"lib/openzeppelin-contracts-upgradeable/lib/openzeppelin-contracts/contracts/utils/Address.sol\":5045:5094  returndata.length == 0 && target.code.length == 0 */\n    tag_231:\n        /* \"lib/openzeppelin-contracts-upgradeable/lib/openzeppelin-contracts/contracts/utils/Address.sol\":5041:5160  if (returndata.length == 0 && target.code.length == 0) {... */\n      iszero\n      tag_232\n      jumpi\n        /* \"lib/openzeppelin-contracts-upgradeable/lib/openzeppelin-contracts/contracts/utils/Address.sol\":5138:5144  target */\n      dup4\n        /* \"lib/openzeppelin-contracts-upgradeable/lib/openzeppelin-contracts/contracts/utils/Address.sol\":5121:5145  AddressEmptyCode(target) */\n      mload(0x40)\n      0x9996b31500000000000000000000000000000000000000000000000000000000\n      dup2\n      mstore\n      0x04\n      add\n      tag_233\n      swap2\n      swap1\n      tag_23\n      jump\t// in\n    tag_233:\n      mload(0x40)\n      dup1\n      swap2\n      sub\n      swap1\n      revert\n        /* \"lib/openzeppelin-contracts-upgradeable/lib/openzeppelin-contracts/contracts/utils/Address.sol\":5041:5160  if (returndata.length == 0 && target.code.length == 0) {... */\n    tag_232:\n        /* \"lib/openzeppelin-contracts-upgradeable/lib/openzeppelin-contracts/contracts/utils/Address.sol\":5180:5190  returndata */\n      dup2\n        /* \"lib/openzeppelin-contracts-upgradeable/lib/openzeppelin-contracts/contracts/utils/Address.sol\":5173:5190  return returndata */\n      swap1\n      pop\n      jump(tag_226)\n        /* \"lib/openzeppelin-contracts-upgradeable/lib/openzeppelin-contracts/contracts/utils/Address.sol\":4793:5201  if (!success) {... */\n    tag_230:\n        /* \"lib/openzeppelin-contracts-upgradeable/lib/openzeppelin-contracts/contracts/utils/Address.sol\":4625:5207  function verifyCallResultFromTarget(... */\n    tag_226:\n      swap4\n      swap3\n      pop\n      pop\n      pop\n      jump\t// out\n        /* \"lib/openzeppelin-contracts-upgradeable/lib/openzeppelin-contracts/contracts/utils/Address.sol\":5743:6259  function _revert(bytes memory returndata) private pure {... */\n    tag_229:\n        /* \"lib/openzeppelin-contracts-upgradeable/lib/openzeppelin-contracts/contracts/utils/Address.sol\":5894:5895  0 */\n      0x00\n        /* \"lib/openzeppelin-contracts-upgradeable/lib/openzeppelin-contracts/contracts/utils/Address.sol\":5874:5884  returndata */\n      dup2\n        /* \"lib/openzeppelin-contracts-upgradeable/lib/openzeppelin-contracts/contracts/utils/Address.sol\":5874:5891  returndata.length */\n      mload\n        /* \"lib/openzeppelin-contracts-upgradeable/lib/openzeppelin-contracts/contracts/utils/Address.sol\":5874:5895  returndata.length > 0 */\n      gt\n        /* \"lib/openzeppelin-contracts-upgradeable/lib/openzeppelin-contracts/contracts/utils/Address.sol\":5870:6253  if (returndata.length > 0) {... */\n      iszero\n      tag_235\n      jumpi\n        /* \"lib/openzeppelin-contracts-upgradeable/lib/openzeppelin-contracts/contracts/utils/Address.sol\":6102:6112  returndata */\n      dup1\n        /* \"lib/openzeppelin-contracts-upgradeable/lib/openzeppelin-contracts/contracts/utils/Address.sol\":6096:6113  mload(returndata) */\n      mload\n        /* \"lib/openzeppelin-contracts-upgradeable/lib/openzeppelin-contracts/contracts/utils/Address.sol\":6158:6173  returndata_size */\n      dup1\n        /* \"lib/openzeppelin-contracts-upgradeable/lib/openzeppelin-contracts/contracts/utils/Address.sol\":6145:6155  returndata */\n      dup3\n        /* \"lib/openzeppelin-contracts-upgradeable/lib/openzeppelin-contracts/contracts/utils/Address.sol\":6141:6143  32 */\n      0x20\n        /* \"lib/openzeppelin-contracts-upgradeable/lib/openzeppelin-contracts/contracts/utils/Address.sol\":6137:6156  add(32, returndata) */\n      add\n        /* \"lib/openzeppelin-contracts-upgradeable/lib/openzeppelin-contracts/contracts/utils/Address.sol\":6130:6174  revert(add(32, returndata), returndata_size) */\n      revert\n        /* \"lib/openzeppelin-contracts-upgradeable/lib/openzeppelin-contracts/contracts/utils/Address.sol\":5870:6253  if (returndata.length > 0) {... */\n    tag_235:\n        /* \"lib/openzeppelin-contracts-upgradeable/lib/openzeppelin-contracts/contracts/utils/Address.sol\":6225:6242  FailedInnerCall() */\n      mload(0x40)\n      0x1425ea4200000000000000000000000000000000000000000000000000000000\n      dup2\n      mstore\n      0x04\n      add\n      mload(0x40)\n      dup1\n      swap2\n      sub\n      swap1\n      revert\n    tag_125:\n      dup3\n      dup1\n      sload\n      dup3\n      dup3\n      sstore\n      swap1\n      0x00\n      mstore\n      keccak256(0x00, 0x20)\n      swap1\n      dup2\n      add\n      swap3\n      dup3\n      iszero\n      tag_237\n      jumpi\n      swap2\n      0x20\n      mul\n      dup3\n      add\n    tag_238:\n      dup3\n      dup2\n      gt\n      iszero\n      tag_239\n      jumpi\n      dup3\n      mload\n      dup3\n      exp(0x0100, 0x00)\n      dup2\n      sload\n      dup2\n      0xffffffffffffffffffffffffffffffffffffffff\n      mul\n      not\n      and\n      swap1\n      dup4\n      0xffffffffffffffffffffffffffffffffffffffff\n      and\n      mul\n      or\n      swap1\n      sstore\n      pop\n      swap2\n      0x20\n      add\n      swap2\n      swap1\n      0x01\n      add\n      swap1\n      jump(tag_238)\n    tag_239:\n    tag_237:\n      pop\n      swap1\n      pop\n      tag_240\n      swap2\n      swap1\n      tag_241\n      jump\t// in\n    tag_240:\n      pop\n      swap1\n      jump\t// out\n    tag_241:\n    tag_242:\n      dup1\n      dup3\n      gt\n      iszero\n      tag_243\n      jumpi\n      0x00\n      dup2\n      0x00\n      swap1\n      sstore\n      pop\n      0x01\n      add\n      jump(tag_242)\n    tag_243:\n      pop\n      swap1\n      jump\t// out\n        /* \"#utility.yul\":7:82   */\n    tag_244:\n        /* \"#utility.yul\":40:46   */\n      0x00\n        /* \"#utility.yul\":73:75   */\n      0x40\n        /* \"#utility.yul\":67:76   */\n      mload\n        /* \"#utility.yul\":57:76   */\n      swap1\n      pop\n        /* \"#utility.yul\":7:82   */\n      swap1\n      jump\t// out\n        /* \"#utility.yul\":88:205   */\n    tag_245:\n        /* \"#utility.yul\":197:198   */\n      0x00\n        /* \"#utility.yul\":194:195   */\n      dup1\n        /* \"#utility.yul\":187:199   */\n      revert\n        /* \"#utility.yul\":211:328   */\n    tag_246:\n        /* \"#utility.yul\":320:321   */\n      0x00\n        /* \"#utility.yul\":317:318   */\n      dup1\n        /* \"#utility.yul\":310:322   */\n      revert\n        /* \"#utility.yul\":334:411   */\n    tag_247:\n        /* \"#utility.yul\":371:378   */\n      0x00\n        /* \"#utility.yul\":400:405   */\n      dup2\n        /* \"#utility.yul\":389:405   */\n      swap1\n      pop\n        /* \"#utility.yul\":334:411   */\n      swap2\n      swap1\n      pop\n      jump\t// out\n        /* \"#utility.yul\":417:539   */\n    tag_248:\n        /* \"#utility.yul\":490:514   */\n      tag_332\n        /* \"#utility.yul\":508:513   */\n      dup2\n        /* \"#utility.yul\":490:514   */\n      tag_247\n      jump\t// in\n    tag_332:\n        /* \"#utility.yul\":483:488   */\n      dup2\n        /* \"#utility.yul\":480:515   */\n      eq\n        /* \"#utility.yul\":470:533   */\n      tag_333\n      jumpi\n        /* \"#utility.yul\":529:530   */\n      0x00\n        /* \"#utility.yul\":526:527   */\n      dup1\n        /* \"#utility.yul\":519:531   */\n      revert\n        /* \"#utility.yul\":470:533   */\n    tag_333:\n        /* \"#utility.yul\":417:539   */\n      pop\n      jump\t// out\n        /* \"#utility.yul\":545:684   */\n    tag_249:\n        /* \"#utility.yul\":591:596   */\n      0x00\n        /* \"#utility.yul\":629:635   */\n      dup2\n        /* \"#utility.yul\":616:636   */\n      calldataload\n        /* \"#utility.yul\":607:636   */\n      swap1\n      pop\n        /* \"#utility.yul\":645:678   */\n      tag_335\n        /* \"#utility.yul\":672:677   */\n      dup2\n        /* \"#utility.yul\":645:678   */\n      tag_248\n      jump\t// in\n    tag_335:\n        /* \"#utility.yul\":545:684   */\n      swap3\n      swap2\n      pop\n      pop\n      jump\t// out\n        /* \"#utility.yul\":690:807   */\n    tag_250:\n        /* \"#utility.yul\":799:800   */\n      0x00\n        /* \"#utility.yul\":796:797   */\n      dup1\n        /* \"#utility.yul\":789:801   */\n      revert\n        /* \"#utility.yul\":813:930   */\n    tag_251:\n        /* \"#utility.yul\":922:923   */\n      0x00\n        /* \"#utility.yul\":919:920   */\n      dup1\n        /* \"#utility.yul\":912:924   */\n      revert\n        /* \"#utility.yul\":936:1038   */\n    tag_252:\n        /* \"#utility.yul\":977:983   */\n      0x00\n        /* \"#utility.yul\":1028:1030   */\n      0x1f\n        /* \"#utility.yul\":1024:1031   */\n      not\n        /* \"#utility.yul\":1019:1021   */\n      0x1f\n        /* \"#utility.yul\":1012:1017   */\n      dup4\n        /* \"#utility.yul\":1008:1022   */\n      add\n        /* \"#utility.yul\":1004:1032   */\n      and\n        /* \"#utility.yul\":994:1032   */\n      swap1\n      pop\n        /* \"#utility.yul\":936:1038   */\n      swap2\n      swap1\n      pop\n      jump\t// out\n        /* \"#utility.yul\":1044:1224   */\n    tag_253:\n        /* \"#utility.yul\":1092:1169   */\n      0x4e487b7100000000000000000000000000000000000000000000000000000000\n        /* \"#utility.yul\":1089:1090   */\n      0x00\n        /* \"#utility.yul\":1082:1170   */\n      mstore\n        /* \"#utility.yul\":1189:1193   */\n      0x41\n        /* \"#utility.yul\":1186:1187   */\n      0x04\n        /* \"#utility.yul\":1179:1194   */\n      mstore\n        /* \"#utility.yul\":1213:1217   */\n      0x24\n        /* \"#utility.yul\":1210:1211   */\n      0x00\n        /* \"#utility.yul\":1203:1218   */\n      revert\n        /* \"#utility.yul\":1230:1511   */\n    tag_254:\n        /* \"#utility.yul\":1313:1340   */\n      tag_341\n        /* \"#utility.yul\":1335:1339   */\n      dup3\n        /* \"#utility.yul\":1313:1340   */\n      tag_252\n      jump\t// in\n    tag_341:\n        /* \"#utility.yul\":1305:1311   */\n      dup2\n        /* \"#utility.yul\":1301:1341   */\n      add\n        /* \"#utility.yul\":1443:1449   */\n      dup2\n        /* \"#utility.yul\":1431:1441   */\n      dup2\n        /* \"#utility.yul\":1428:1450   */\n      lt\n        /* \"#utility.yul\":1407:1425   */\n      0xffffffffffffffff\n        /* \"#utility.yul\":1395:1405   */\n      dup3\n        /* \"#utility.yul\":1392:1426   */\n      gt\n        /* \"#utility.yul\":1389:1451   */\n      or\n        /* \"#utility.yul\":1386:1474   */\n      iszero\n      tag_342\n      jumpi\n        /* \"#utility.yul\":1454:1472   */\n      tag_343\n      tag_253\n      jump\t// in\n    tag_343:\n        /* \"#utility.yul\":1386:1474   */\n    tag_342:\n        /* \"#utility.yul\":1494:1504   */\n      dup1\n        /* \"#utility.yul\":1490:1492   */\n      0x40\n        /* \"#utility.yul\":1483:1505   */\n      mstore\n        /* \"#utility.yul\":1273:1511   */\n      pop\n        /* \"#utility.yul\":1230:1511   */\n      pop\n      pop\n      jump\t// out\n        /* \"#utility.yul\":1517:1646   */\n    tag_255:\n        /* \"#utility.yul\":1551:1557   */\n      0x00\n        /* \"#utility.yul\":1578:1598   */\n      tag_345\n      tag_244\n      jump\t// in\n    tag_345:\n        /* \"#utility.yul\":1568:1598   */\n      swap1\n      pop\n        /* \"#utility.yul\":1607:1640   */\n      tag_346\n        /* \"#utility.yul\":1635:1639   */\n      dup3\n        /* \"#utility.yul\":1627:1633   */\n      dup3\n        /* \"#utility.yul\":1607:1640   */\n      tag_254\n      jump\t// in\n    tag_346:\n        /* \"#utility.yul\":1517:1646   */\n      swap2\n      swap1\n      pop\n      jump\t// out\n        /* \"#utility.yul\":1652:1959   */\n    tag_256:\n        /* \"#utility.yul\":1713:1717   */\n      0x00\n        /* \"#utility.yul\":1803:1821   */\n      0xffffffffffffffff\n        /* \"#utility.yul\":1795:1801   */\n      dup3\n        /* \"#utility.yul\":1792:1822   */\n      gt\n        /* \"#utility.yul\":1789:1845   */\n      iszero\n      tag_348\n      jumpi\n        /* \"#utility.yul\":1825:1843   */\n      tag_349\n      tag_253\n      jump\t// in\n    tag_349:\n        /* \"#utility.yul\":1789:1845   */\n    tag_348:\n        /* \"#utility.yul\":1863:1892   */\n      tag_350\n        /* \"#utility.yul\":1885:1891   */\n      dup3\n        /* \"#utility.yul\":1863:1892   */\n      tag_252\n      jump\t// in\n    tag_350:\n        /* \"#utility.yul\":1855:1892   */\n      swap1\n      pop\n        /* \"#utility.yul\":1947:1951   */\n      0x20\n        /* \"#utility.yul\":1941:1945   */\n      dup2\n        /* \"#utility.yul\":1937:1952   */\n      add\n        /* \"#utility.yul\":1929:1952   */\n      swap1\n      pop\n        /* \"#utility.yul\":1652:1959   */\n      swap2\n      swap1\n      pop\n      jump\t// out\n        /* \"#utility.yul\":1965:2113   */\n    tag_257:\n        /* \"#utility.yul\":2063:2069   */\n      dup3\n        /* \"#utility.yul\":2058:2061   */\n      dup2\n        /* \"#utility.yul\":2053:2056   */\n      dup4\n        /* \"#utility.yul\":2040:2070   */\n      calldatacopy\n        /* \"#utility.yul\":2104:2105   */\n      0x00\n        /* \"#utility.yul\":2095:2101   */\n      dup4\n        /* \"#utility.yul\":2090:2093   */\n      dup4\n        /* \"#utility.yul\":2086:2102   */\n      add\n        /* \"#utility.yul\":2079:2106   */\n      mstore\n        /* \"#utility.yul\":1965:2113   */\n      pop\n      pop\n      pop\n      jump\t// out\n        /* \"#utility.yul\":2119:2542   */\n    tag_258:\n        /* \"#utility.yul\":2196:2201   */\n      0x00\n        /* \"#utility.yul\":2221:2286   */\n      tag_353\n        /* \"#utility.yul\":2237:2285   */\n      tag_354\n        /* \"#utility.yul\":2278:2284   */\n      dup5\n        /* \"#utility.yul\":2237:2285   */\n      tag_256\n      jump\t// in\n    tag_354:\n        /* \"#utility.yul\":2221:2286   */\n      tag_255\n      jump\t// in\n    tag_353:\n        /* \"#utility.yul\":2212:2286   */\n      swap1\n      pop\n        /* \"#utility.yul\":2309:2315   */\n      dup3\n        /* \"#utility.yul\":2302:2307   */\n      dup2\n        /* \"#utility.yul\":2295:2316   */\n      mstore\n        /* \"#utility.yul\":2347:2351   */\n      0x20\n        /* \"#utility.yul\":2340:2345   */\n      dup2\n        /* \"#utility.yul\":2336:2352   */\n      add\n        /* \"#utility.yul\":2385:2388   */\n      dup5\n        /* \"#utility.yul\":2376:2382   */\n      dup5\n        /* \"#utility.yul\":2371:2374   */\n      dup5\n        /* \"#utility.yul\":2367:2383   */\n      add\n        /* \"#utility.yul\":2364:2389   */\n      gt\n        /* \"#utility.yul\":2361:2473   */\n      iszero\n      tag_355\n      jumpi\n        /* \"#utility.yul\":2392:2471   */\n      tag_356\n      tag_251\n      jump\t// in\n    tag_356:\n        /* \"#utility.yul\":2361:2473   */\n    tag_355:\n        /* \"#utility.yul\":2482:2536   */\n      tag_357\n        /* \"#utility.yul\":2529:2535   */\n      dup5\n        /* \"#utility.yul\":2524:2527   */\n      dup3\n        /* \"#utility.yul\":2519:2522   */\n      dup6\n        /* \"#utility.yul\":2482:2536   */\n      tag_257\n      jump\t// in\n    tag_357:\n        /* \"#utility.yul\":2202:2542   */\n      pop\n        /* \"#utility.yul\":2119:2542   */\n      swap4\n      swap3\n      pop\n      pop\n      pop\n      jump\t// out\n        /* \"#utility.yul\":2561:2899   */\n    tag_259:\n        /* \"#utility.yul\":2616:2621   */\n      0x00\n        /* \"#utility.yul\":2665:2668   */\n      dup3\n        /* \"#utility.yul\":2658:2662   */\n      0x1f\n        /* \"#utility.yul\":2650:2656   */\n      dup4\n        /* \"#utility.yul\":2646:2663   */\n      add\n        /* \"#utility.yul\":2642:2669   */\n      slt\n        /* \"#utility.yul\":2632:2754   */\n      tag_359\n      jumpi\n        /* \"#utility.yul\":2673:2752   */\n      tag_360\n      tag_250\n      jump\t// in\n    tag_360:\n        /* \"#utility.yul\":2632:2754   */\n    tag_359:\n        /* \"#utility.yul\":2790:2796   */\n      dup2\n        /* \"#utility.yul\":2777:2797   */\n      calldataload\n        /* \"#utility.yul\":2815:2893   */\n      tag_361\n        /* \"#utility.yul\":2889:2892   */\n      dup5\n        /* \"#utility.yul\":2881:2887   */\n      dup3\n        /* \"#utility.yul\":2874:2878   */\n      0x20\n        /* \"#utility.yul\":2866:2872   */\n      dup7\n        /* \"#utility.yul\":2862:2879   */\n      add\n        /* \"#utility.yul\":2815:2893   */\n      tag_258\n      jump\t// in\n    tag_361:\n        /* \"#utility.yul\":2806:2893   */\n      swap2\n      pop\n        /* \"#utility.yul\":2622:2899   */\n      pop\n        /* \"#utility.yul\":2561:2899   */\n      swap3\n      swap2\n      pop\n      pop\n      jump\t// out\n        /* \"#utility.yul\":2905:3557   */\n    tag_20:\n        /* \"#utility.yul\":2982:2988   */\n      0x00\n        /* \"#utility.yul\":2990:2996   */\n      dup1\n        /* \"#utility.yul\":3039:3041   */\n      0x40\n        /* \"#utility.yul\":3027:3036   */\n      dup4\n        /* \"#utility.yul\":3018:3025   */\n      dup6\n        /* \"#utility.yul\":3014:3037   */\n      sub\n        /* \"#utility.yul\":3010:3042   */\n      slt\n        /* \"#utility.yul\":3007:3126   */\n      iszero\n      tag_363\n      jumpi\n        /* \"#utility.yul\":3045:3124   */\n      tag_364\n      tag_245\n      jump\t// in\n    tag_364:\n        /* \"#utility.yul\":3007:3126   */\n    tag_363:\n        /* \"#utility.yul\":3165:3166   */\n      0x00\n        /* \"#utility.yul\":3190:3243   */\n      tag_365\n        /* \"#utility.yul\":3235:3242   */\n      dup6\n        /* \"#utility.yul\":3226:3232   */\n      dup3\n        /* \"#utility.yul\":3215:3224   */\n      dup7\n        /* \"#utility.yul\":3211:3233   */\n      add\n        /* \"#utility.yul\":3190:3243   */\n      tag_249\n      jump\t// in\n    tag_365:\n        /* \"#utility.yul\":3180:3243   */\n      swap3\n      pop\n        /* \"#utility.yul\":3136:3253   */\n      pop\n        /* \"#utility.yul\":3320:3322   */\n      0x20\n        /* \"#utility.yul\":3309:3318   */\n      dup4\n        /* \"#utility.yul\":3305:3323   */\n      add\n        /* \"#utility.yul\":3292:3324   */\n      calldataload\n        /* \"#utility.yul\":3351:3369   */\n      0xffffffffffffffff\n        /* \"#utility.yul\":3343:3349   */\n      dup2\n        /* \"#utility.yul\":3340:3370   */\n      gt\n        /* \"#utility.yul\":3337:3454   */\n      iszero\n      tag_366\n      jumpi\n        /* \"#utility.yul\":3373:3452   */\n      tag_367\n      tag_246\n      jump\t// in\n    tag_367:\n        /* \"#utility.yul\":3337:3454   */\n    tag_366:\n        /* \"#utility.yul\":3478:3540   */\n      tag_368\n        /* \"#utility.yul\":3532:3539   */\n      dup6\n        /* \"#utility.yul\":3523:3529   */\n      dup3\n        /* \"#utility.yul\":3512:3521   */\n      dup7\n        /* \"#utility.yul\":3508:3530   */\n      add\n        /* \"#utility.yul\":3478:3540   */\n      tag_259\n      jump\t// in\n    tag_368:\n        /* \"#utility.yul\":3468:3540   */\n      swap2\n      pop\n        /* \"#utility.yul\":3263:3550   */\n      pop\n        /* \"#utility.yul\":2905:3557   */\n      swap3\n      pop\n      swap3\n      swap1\n      pop\n      jump\t// out\n        /* \"#utility.yul\":3563:3689   */\n    tag_260:\n        /* \"#utility.yul\":3600:3607   */\n      0x00\n        /* \"#utility.yul\":3640:3682   */\n      0xffffffffffffffffffffffffffffffffffffffff\n        /* \"#utility.yul\":3633:3638   */\n      dup3\n        /* \"#utility.yul\":3629:3683   */\n      and\n        /* \"#utility.yul\":3618:3683   */\n      swap1\n      pop\n        /* \"#utility.yul\":3563:3689   */\n      swap2\n      swap1\n      pop\n      jump\t// out\n        /* \"#utility.yul\":3695:3791   */\n    tag_261:\n        /* \"#utility.yul\":3732:3739   */\n      0x00\n        /* \"#utility.yul\":3761:3785   */\n      tag_371\n        /* \"#utility.yul\":3779:3784   */\n      dup3\n        /* \"#utility.yul\":3761:3785   */\n      tag_260\n      jump\t// in\n    tag_371:\n        /* \"#utility.yul\":3750:3785   */\n      swap1\n      pop\n        /* \"#utility.yul\":3695:3791   */\n      swap2\n      swap1\n      pop\n      jump\t// out\n        /* \"#utility.yul\":3797:3915   */\n    tag_262:\n        /* \"#utility.yul\":3884:3908   */\n      tag_373\n        /* \"#utility.yul\":3902:3907   */\n      dup2\n        /* \"#utility.yul\":3884:3908   */\n      tag_261\n      jump\t// in\n    tag_373:\n        /* \"#utility.yul\":3879:3882   */\n      dup3\n        /* \"#utility.yul\":3872:3909   */\n      mstore\n        /* \"#utility.yul\":3797:3915   */\n      pop\n      pop\n      jump\t// out\n        /* \"#utility.yul\":3921:4143   */\n    tag_23:\n        /* \"#utility.yul\":4014:4018   */\n      0x00\n        /* \"#utility.yul\":4052:4054   */\n      0x20\n        /* \"#utility.yul\":4041:4050   */\n      dup3\n        /* \"#utility.yul\":4037:4055   */\n      add\n        /* \"#utility.yul\":4029:4055   */\n      swap1\n      pop\n        /* \"#utility.yul\":4065:4136   */\n      tag_375\n        /* \"#utility.yul\":4133:4134   */\n      0x00\n        /* \"#utility.yul\":4122:4131   */\n      dup4\n        /* \"#utility.yul\":4118:4135   */\n      add\n        /* \"#utility.yul\":4109:4115   */\n      dup5\n        /* \"#utility.yul\":4065:4136   */\n      tag_262\n      jump\t// in\n    tag_375:\n        /* \"#utility.yul\":3921:4143   */\n      swap3\n      swap2\n      pop\n      pop\n      jump\t// out\n        /* \"#utility.yul\":4149:4226   */\n    tag_263:\n        /* \"#utility.yul\":4186:4193   */\n      0x00\n        /* \"#utility.yul\":4215:4220   */\n      dup2\n        /* \"#utility.yul\":4204:4220   */\n      swap1\n      pop\n        /* \"#utility.yul\":4149:4226   */\n      swap2\n      swap1\n      pop\n      jump\t// out\n        /* \"#utility.yul\":4232:4350   */\n    tag_264:\n        /* \"#utility.yul\":4319:4343   */\n      tag_378\n        /* \"#utility.yul\":4337:4342   */\n      dup2\n        /* \"#utility.yul\":4319:4343   */\n      tag_263\n      jump\t// in\n    tag_378:\n        /* \"#utility.yul\":4314:4317   */\n      dup3\n        /* \"#utility.yul\":4307:4344   */\n      mstore\n        /* \"#utility.yul\":4232:4350   */\n      pop\n      pop\n      jump\t// out\n        /* \"#utility.yul\":4356:4578   */\n    tag_28:\n        /* \"#utility.yul\":4449:4453   */\n      0x00\n        /* \"#utility.yul\":4487:4489   */\n      0x20\n        /* \"#utility.yul\":4476:4485   */\n      dup3\n        /* \"#utility.yul\":4472:4490   */\n      add\n        /* \"#utility.yul\":4464:4490   */\n      swap1\n      pop\n        /* \"#utility.yul\":4500:4571   */\n      tag_380\n        /* \"#utility.yul\":4568:4569   */\n      0x00\n        /* \"#utility.yul\":4557:4566   */\n      dup4\n        /* \"#utility.yul\":4553:4570   */\n      add\n        /* \"#utility.yul\":4544:4550   */\n      dup5\n        /* \"#utility.yul\":4500:4571   */\n      tag_264\n      jump\t// in\n    tag_380:\n        /* \"#utility.yul\":4356:4578   */\n      swap3\n      swap2\n      pop\n      pop\n      jump\t// out\n        /* \"#utility.yul\":4584:4706   */\n    tag_265:\n        /* \"#utility.yul\":4657:4681   */\n      tag_382\n        /* \"#utility.yul\":4675:4680   */\n      dup2\n        /* \"#utility.yul\":4657:4681   */\n      tag_261\n      jump\t// in\n    tag_382:\n        /* \"#utility.yul\":4650:4655   */\n      dup2\n        /* \"#utility.yul\":4647:4682   */\n      eq\n        /* \"#utility.yul\":4637:4700   */\n      tag_383\n      jumpi\n        /* \"#utility.yul\":4696:4697   */\n      0x00\n        /* \"#utility.yul\":4693:4694   */\n      dup1\n        /* \"#utility.yul\":4686:4698   */\n      revert\n        /* \"#utility.yul\":4637:4700   */\n    tag_383:\n        /* \"#utility.yul\":4584:4706   */\n      pop\n      jump\t// out\n        /* \"#utility.yul\":4712:4851   */\n    tag_266:\n        /* \"#utility.yul\":4758:4763   */\n      0x00\n        /* \"#utility.yul\":4796:4802   */\n      dup2\n        /* \"#utility.yul\":4783:4803   */\n      calldataload\n        /* \"#utility.yul\":4774:4803   */\n      swap1\n      pop\n        /* \"#utility.yul\":4812:4845   */\n      tag_385\n        /* \"#utility.yul\":4839:4844   */\n      dup2\n        /* \"#utility.yul\":4812:4845   */\n      tag_265\n      jump\t// in\n    tag_385:\n        /* \"#utility.yul\":4712:4851   */\n      swap3\n      swap2\n      pop\n      pop\n      jump\t// out\n        /* \"#utility.yul\":4857:5509   */\n    tag_31:\n        /* \"#utility.yul\":4934:4940   */\n      0x00\n        /* \"#utility.yul\":4942:4948   */\n      dup1\n        /* \"#utility.yul\":4991:4993   */\n      0x40\n        /* \"#utility.yul\":4979:4988   */\n      dup4\n        /* \"#utility.yul\":4970:4977   */\n      dup6\n        /* \"#utility.yul\":4966:4989   */\n      sub\n        /* \"#utility.yul\":4962:4994   */\n      slt\n        /* \"#utility.yul\":4959:5078   */\n      iszero\n      tag_387\n      jumpi\n        /* \"#utility.yul\":4997:5076   */\n      tag_388\n      tag_245\n      jump\t// in\n    tag_388:\n        /* \"#utility.yul\":4959:5078   */\n    tag_387:\n        /* \"#utility.yul\":5117:5118   */\n      0x00\n        /* \"#utility.yul\":5142:5195   */\n      tag_389\n        /* \"#utility.yul\":5187:5194   */\n      dup6\n        /* \"#utility.yul\":5178:5184   */\n      dup3\n        /* \"#utility.yul\":5167:5176   */\n      dup7\n        /* \"#utility.yul\":5163:5185   */\n      add\n        /* \"#utility.yul\":5142:5195   */\n      tag_266\n      jump\t// in\n    tag_389:\n        /* \"#utility.yul\":5132:5195   */\n      swap3\n      pop\n        /* \"#utility.yul\":5088:5205   */\n      pop\n        /* \"#utility.yul\":5272:5274   */\n      0x20\n        /* \"#utility.yul\":5261:5270   */\n      dup4\n        /* \"#utility.yul\":5257:5275   */\n      add\n        /* \"#utility.yul\":5244:5276   */\n      calldataload\n        /* \"#utility.yul\":5303:5321   */\n      0xffffffffffffffff\n        /* \"#utility.yul\":5295:5301   */\n      dup2\n        /* \"#utility.yul\":5292:5322   */\n      gt\n        /* \"#utility.yul\":5289:5406   */\n      iszero\n      tag_390\n      jumpi\n        /* \"#utility.yul\":5325:5404   */\n      tag_391\n      tag_246\n      jump\t// in\n    tag_391:\n        /* \"#utility.yul\":5289:5406   */\n    tag_390:\n        /* \"#utility.yul\":5430:5492   */\n      tag_392\n        /* \"#utility.yul\":5484:5491   */\n      dup6\n        /* \"#utility.yul\":5475:5481   */\n      dup3\n        /* \"#utility.yul\":5464:5473   */\n      dup7\n        /* \"#utility.yul\":5460:5482   */\n      add\n        /* \"#utility.yul\":5430:5492   */\n      tag_259\n      jump\t// in\n    tag_392:\n        /* \"#utility.yul\":5420:5492   */\n      swap2\n      pop\n        /* \"#utility.yul\":5215:5502   */\n      pop\n        /* \"#utility.yul\":4857:5509   */\n      swap3\n      pop\n      swap3\n      swap1\n      pop\n      jump\t// out\n        /* \"#utility.yul\":5515:5633   */\n    tag_267:\n        /* \"#utility.yul\":5602:5626   */\n      tag_394\n        /* \"#utility.yul\":5620:5625   */\n      dup2\n        /* \"#utility.yul\":5602:5626   */\n      tag_247\n      jump\t// in\n    tag_394:\n        /* \"#utility.yul\":5597:5600   */\n      dup3\n        /* \"#utility.yul\":5590:5627   */\n      mstore\n        /* \"#utility.yul\":5515:5633   */\n      pop\n      pop\n      jump\t// out\n        /* \"#utility.yul\":5639:5861   */\n    tag_37:\n        /* \"#utility.yul\":5732:5736   */\n      0x00\n        /* \"#utility.yul\":5770:5772   */\n      0x20\n        /* \"#utility.yul\":5759:5768   */\n      dup3\n        /* \"#utility.yul\":5755:5773   */\n      add\n        /* \"#utility.yul\":5747:5773   */\n      swap1\n      pop\n        /* \"#utility.yul\":5783:5854   */\n      tag_396\n        /* \"#utility.yul\":5851:5852   */\n      0x00\n        /* \"#utility.yul\":5840:5849   */\n      dup4\n        /* \"#utility.yul\":5836:5853   */\n      add\n        /* \"#utility.yul\":5827:5833   */\n      dup5\n        /* \"#utility.yul\":5783:5854   */\n      tag_267\n      jump\t// in\n    tag_396:\n        /* \"#utility.yul\":5639:5861   */\n      swap3\n      swap2\n      pop\n      pop\n      jump\t// out\n        /* \"#utility.yul\":5867:5984   */\n    tag_268:\n        /* \"#utility.yul\":5976:5977   */\n      0x00\n        /* \"#utility.yul\":5973:5974   */\n      dup1\n        /* \"#utility.yul\":5966:5978   */\n      revert\n        /* \"#utility.yul\":5990:6107   */\n    tag_269:\n        /* \"#utility.yul\":6099:6100   */\n      0x00\n        /* \"#utility.yul\":6096:6097   */\n      dup1\n        /* \"#utility.yul\":6089:6101   */\n      revert\n        /* \"#utility.yul\":6126:6678   */\n    tag_270:\n        /* \"#utility.yul\":6183:6191   */\n      0x00\n        /* \"#utility.yul\":6193:6199   */\n      dup1\n        /* \"#utility.yul\":6243:6246   */\n      dup4\n        /* \"#utility.yul\":6236:6240   */\n      0x1f\n        /* \"#utility.yul\":6228:6234   */\n      dup5\n        /* \"#utility.yul\":6224:6241   */\n      add\n        /* \"#utility.yul\":6220:6247   */\n      slt\n        /* \"#utility.yul\":6210:6332   */\n      tag_400\n      jumpi\n        /* \"#utility.yul\":6251:6330   */\n      tag_401\n      tag_250\n      jump\t// in\n    tag_401:\n        /* \"#utility.yul\":6210:6332   */\n    tag_400:\n        /* \"#utility.yul\":6364:6370   */\n      dup3\n        /* \"#utility.yul\":6351:6371   */\n      calldataload\n        /* \"#utility.yul\":6341:6371   */\n      swap1\n      pop\n        /* \"#utility.yul\":6394:6412   */\n      0xffffffffffffffff\n        /* \"#utility.yul\":6386:6392   */\n      dup2\n        /* \"#utility.yul\":6383:6413   */\n      gt\n        /* \"#utility.yul\":6380:6497   */\n      iszero\n      tag_402\n      jumpi\n        /* \"#utility.yul\":6416:6495   */\n      tag_403\n      tag_268\n      jump\t// in\n    tag_403:\n        /* \"#utility.yul\":6380:6497   */\n    tag_402:\n        /* \"#utility.yul\":6530:6534   */\n      0x20\n        /* \"#utility.yul\":6522:6528   */\n      dup4\n        /* \"#utility.yul\":6518:6535   */\n      add\n        /* \"#utility.yul\":6506:6535   */\n      swap2\n      pop\n        /* \"#utility.yul\":6584:6587   */\n      dup4\n        /* \"#utility.yul\":6576:6580   */\n      0x01\n        /* \"#utility.yul\":6568:6574   */\n      dup3\n        /* \"#utility.yul\":6564:6581   */\n      mul\n        /* \"#utility.yul\":6554:6562   */\n      dup4\n        /* \"#utility.yul\":6550:6582   */\n      add\n        /* \"#utility.yul\":6547:6588   */\n      gt\n        /* \"#utility.yul\":6544:6672   */\n      iszero\n      tag_404\n      jumpi\n        /* \"#utility.yul\":6591:6670   */\n      tag_405\n      tag_269\n      jump\t// in\n    tag_405:\n        /* \"#utility.yul\":6544:6672   */\n    tag_404:\n        /* \"#utility.yul\":6126:6678   */\n      swap3\n      pop\n      swap3\n      swap1\n      pop\n      jump\t// out\n        /* \"#utility.yul\":6684:6806   */\n    tag_271:\n        /* \"#utility.yul\":6757:6781   */\n      tag_407\n        /* \"#utility.yul\":6775:6780   */\n      dup2\n        /* \"#utility.yul\":6757:6781   */\n      tag_263\n      jump\t// in\n    tag_407:\n        /* \"#utility.yul\":6750:6755   */\n      dup2\n        /* \"#utility.yul\":6747:6782   */\n      eq\n        /* \"#utility.yul\":6737:6800   */\n      tag_408\n      jumpi\n        /* \"#utility.yul\":6796:6797   */\n      0x00\n        /* \"#utility.yul\":6793:6794   */\n      dup1\n        /* \"#utility.yul\":6786:6798   */\n      revert\n        /* \"#utility.yul\":6737:6800   */\n    tag_408:\n        /* \"#utility.yul\":6684:6806   */\n      pop\n      jump\t// out\n        /* \"#utility.yul\":6812:6951   */\n    tag_272:\n        /* \"#utility.yul\":6858:6863   */\n      0x00\n        /* \"#utility.yul\":6896:6902   */\n      dup2\n        /* \"#utility.yul\":6883:6903   */\n      calldataload\n        /* \"#utility.yul\":6874:6903   */\n      swap1\n      pop\n        /* \"#utility.yul\":6912:6945   */\n      tag_410\n        /* \"#utility.yul\":6939:6944   */\n      dup2\n        /* \"#utility.yul\":6912:6945   */\n      tag_271\n      jump\t// in\n    tag_410:\n        /* \"#utility.yul\":6812:6951   */\n      swap3\n      swap2\n      pop\n      pop\n      jump\t// out\n        /* \"#utility.yul\":6957:8118   */\n    tag_41:\n        /* \"#utility.yul\":7065:7071   */\n      0x00\n        /* \"#utility.yul\":7073:7079   */\n      dup1\n        /* \"#utility.yul\":7081:7087   */\n      0x00\n        /* \"#utility.yul\":7089:7095   */\n      dup1\n        /* \"#utility.yul\":7097:7103   */\n      0x00\n        /* \"#utility.yul\":7105:7111   */\n      dup1\n        /* \"#utility.yul\":7154:7157   */\n      0x80\n        /* \"#utility.yul\":7142:7151   */\n      dup8\n        /* \"#utility.yul\":7133:7140   */\n      dup10\n        /* \"#utility.yul\":7129:7152   */\n      sub\n        /* \"#utility.yul\":7125:7158   */\n      slt\n        /* \"#utility.yul\":7122:7242   */\n      iszero\n      tag_412\n      jumpi\n        /* \"#utility.yul\":7161:7240   */\n      tag_413\n      tag_245\n      jump\t// in\n    tag_413:\n        /* \"#utility.yul\":7122:7242   */\n    tag_412:\n        /* \"#utility.yul\":7309:7310   */\n      0x00\n        /* \"#utility.yul\":7298:7307   */\n      dup8\n        /* \"#utility.yul\":7294:7311   */\n      add\n        /* \"#utility.yul\":7281:7312   */\n      calldataload\n        /* \"#utility.yul\":7339:7357   */\n      0xffffffffffffffff\n        /* \"#utility.yul\":7331:7337   */\n      dup2\n        /* \"#utility.yul\":7328:7358   */\n      gt\n        /* \"#utility.yul\":7325:7442   */\n      iszero\n      tag_414\n      jumpi\n        /* \"#utility.yul\":7361:7440   */\n      tag_415\n      tag_246\n      jump\t// in\n    tag_415:\n        /* \"#utility.yul\":7325:7442   */\n    tag_414:\n        /* \"#utility.yul\":7474:7538   */\n      tag_416\n        /* \"#utility.yul\":7530:7537   */\n      dup10\n        /* \"#utility.yul\":7521:7527   */\n      dup3\n        /* \"#utility.yul\":7510:7519   */\n      dup11\n        /* \"#utility.yul\":7506:7528   */\n      add\n        /* \"#utility.yul\":7474:7538   */\n      tag_270\n      jump\t// in\n    tag_416:\n        /* \"#utility.yul\":7456:7538   */\n      swap7\n      pop\n      swap7\n      pop\n        /* \"#utility.yul\":7252:7548   */\n      pop\n        /* \"#utility.yul\":7615:7617   */\n      0x20\n        /* \"#utility.yul\":7604:7613   */\n      dup8\n        /* \"#utility.yul\":7600:7618   */\n      add\n        /* \"#utility.yul\":7587:7619   */\n      calldataload\n        /* \"#utility.yul\":7646:7664   */\n      0xffffffffffffffff\n        /* \"#utility.yul\":7638:7644   */\n      dup2\n        /* \"#utility.yul\":7635:7665   */\n      gt\n        /* \"#utility.yul\":7632:7749   */\n      iszero\n      tag_417\n      jumpi\n        /* \"#utility.yul\":7668:7747   */\n      tag_418\n      tag_246\n      jump\t// in\n    tag_418:\n        /* \"#utility.yul\":7632:7749   */\n    tag_417:\n        /* \"#utility.yul\":7781:7845   */\n      tag_419\n        /* \"#utility.yul\":7837:7844   */\n      dup10\n        /* \"#utility.yul\":7828:7834   */\n      dup3\n        /* \"#utility.yul\":7817:7826   */\n      dup11\n        /* \"#utility.yul\":7813:7835   */\n      add\n        /* \"#utility.yul\":7781:7845   */\n      tag_270\n      jump\t// in\n    tag_419:\n        /* \"#utility.yul\":7763:7845   */\n      swap5\n      pop\n      swap5\n      pop\n        /* \"#utility.yul\":7558:7855   */\n      pop\n        /* \"#utility.yul\":7894:7896   */\n      0x40\n        /* \"#utility.yul\":7920:7973   */\n      tag_420\n        /* \"#utility.yul\":7965:7972   */\n      dup10\n        /* \"#utility.yul\":7956:7962   */\n      dup3\n        /* \"#utility.yul\":7945:7954   */\n      dup11\n        /* \"#utility.yul\":7941:7963   */\n      add\n        /* \"#utility.yul\":7920:7973   */\n      tag_266\n      jump\t// in\n    tag_420:\n        /* \"#utility.yul\":7910:7973   */\n      swap3\n      pop\n        /* \"#utility.yul\":7865:7983   */\n      pop\n        /* \"#utility.yul\":8022:8024   */\n      0x60\n        /* \"#utility.yul\":8048:8101   */\n      tag_421\n        /* \"#utility.yul\":8093:8100   */\n      dup10\n        /* \"#utility.yul\":8084:8090   */\n      dup3\n        /* \"#utility.yul\":8073:8082   */\n      dup11\n        /* \"#utility.yul\":8069:8091   */\n      add\n        /* \"#utility.yul\":8048:8101   */\n      tag_272\n      jump\t// in\n    tag_421:\n        /* \"#utility.yul\":8038:8101   */\n      swap2\n      pop\n        /* \"#utility.yul\":7993:8111   */\n      pop\n        /* \"#utility.yul\":6957:8118   */\n      swap3\n      swap6\n      pop\n      swap3\n      swap6\n      pop\n      swap3\n      swap6\n      jump\t// out\n        /* \"#utility.yul\":8124:8435   */\n    tag_273:\n        /* \"#utility.yul\":8201:8205   */\n      0x00\n        /* \"#utility.yul\":8291:8309   */\n      0xffffffffffffffff\n        /* \"#utility.yul\":8283:8289   */\n      dup3\n        /* \"#utility.yul\":8280:8310   */\n      gt\n        /* \"#utility.yul\":8277:8333   */\n      iszero\n      tag_423\n      jumpi\n        /* \"#utility.yul\":8313:8331   */\n      tag_424\n      tag_253\n      jump\t// in\n    tag_424:\n        /* \"#utility.yul\":8277:8333   */\n    tag_423:\n        /* \"#utility.yul\":8363:8367   */\n      0x20\n        /* \"#utility.yul\":8355:8361   */\n      dup3\n        /* \"#utility.yul\":8351:8368   */\n      mul\n        /* \"#utility.yul\":8343:8368   */\n      swap1\n      pop\n        /* \"#utility.yul\":8423:8427   */\n      0x20\n        /* \"#utility.yul\":8417:8421   */\n      dup2\n        /* \"#utility.yul\":8413:8428   */\n      add\n        /* \"#utility.yul\":8405:8428   */\n      swap1\n      pop\n        /* \"#utility.yul\":8124:8435   */\n      swap2\n      swap1\n      pop\n      jump\t// out\n        /* \"#utility.yul\":8458:9168   */\n    tag_274:\n        /* \"#utility.yul\":8554:8559   */\n      0x00\n        /* \"#utility.yul\":8579:8660   */\n      tag_426\n        /* \"#utility.yul\":8595:8659   */\n      tag_427\n        /* \"#utility.yul\":8652:8658   */\n      dup5\n        /* \"#utility.yul\":8595:8659   */\n      tag_273\n      jump\t// in\n    tag_427:\n        /* \"#utility.yul\":8579:8660   */\n      tag_255\n      jump\t// in\n    tag_426:\n        /* \"#utility.yul\":8570:8660   */\n      swap1\n      pop\n        /* \"#utility.yul\":8680:8685   */\n      dup1\n        /* \"#utility.yul\":8709:8715   */\n      dup4\n        /* \"#utility.yul\":8702:8707   */\n      dup3\n        /* \"#utility.yul\":8695:8716   */\n      mstore\n        /* \"#utility.yul\":8743:8747   */\n      0x20\n        /* \"#utility.yul\":8736:8741   */\n      dup3\n        /* \"#utility.yul\":8732:8748   */\n      add\n        /* \"#utility.yul\":8725:8748   */\n      swap1\n      pop\n        /* \"#utility.yul\":8796:8800   */\n      0x20\n        /* \"#utility.yul\":8788:8794   */\n      dup5\n        /* \"#utility.yul\":8784:8801   */\n      mul\n        /* \"#utility.yul\":8776:8782   */\n      dup4\n        /* \"#utility.yul\":8772:8802   */\n      add\n        /* \"#utility.yul\":8825:8828   */\n      dup6\n        /* \"#utility.yul\":8817:8823   */\n      dup2\n        /* \"#utility.yul\":8814:8829   */\n      gt\n        /* \"#utility.yul\":8811:8933   */\n      iszero\n      tag_428\n      jumpi\n        /* \"#utility.yul\":8844:8923   */\n      tag_429\n      tag_269\n      jump\t// in\n    tag_429:\n        /* \"#utility.yul\":8811:8933   */\n    tag_428:\n        /* \"#utility.yul\":8959:8965   */\n      dup4\n        /* \"#utility.yul\":8942:9162   */\n    tag_430:\n        /* \"#utility.yul\":8976:8982   */\n      dup2\n        /* \"#utility.yul\":8971:8974   */\n      dup2\n        /* \"#utility.yul\":8968:8983   */\n      lt\n        /* \"#utility.yul\":8942:9162   */\n      iszero\n      tag_432\n      jumpi\n        /* \"#utility.yul\":9051:9054   */\n      dup1\n        /* \"#utility.yul\":9080:9117   */\n      tag_433\n        /* \"#utility.yul\":9113:9116   */\n      dup9\n        /* \"#utility.yul\":9101:9111   */\n      dup3\n        /* \"#utility.yul\":9080:9117   */\n      tag_266\n      jump\t// in\n    tag_433:\n        /* \"#utility.yul\":9075:9078   */\n      dup5\n        /* \"#utility.yul\":9068:9118   */\n      mstore\n        /* \"#utility.yul\":9147:9151   */\n      0x20\n        /* \"#utility.yul\":9142:9145   */\n      dup5\n        /* \"#utility.yul\":9138:9152   */\n      add\n        /* \"#utility.yul\":9131:9152   */\n      swap4\n      pop\n        /* \"#utility.yul\":9018:9162   */\n      pop\n        /* \"#utility.yul\":9002:9006   */\n      0x20\n        /* \"#utility.yul\":8997:9000   */\n      dup2\n        /* \"#utility.yul\":8993:9007   */\n      add\n        /* \"#utility.yul\":8986:9007   */\n      swap1\n      pop\n        /* \"#utility.yul\":8942:9162   */\n      jump(tag_430)\n    tag_432:\n        /* \"#utility.yul\":8946:8967   */\n      pop\n        /* \"#utility.yul\":8560:9168   */\n      pop\n      pop\n        /* \"#utility.yul\":8458:9168   */\n      swap4\n      swap3\n      pop\n      pop\n      pop\n      jump\t// out\n        /* \"#utility.yul\":9191:9561   */\n    tag_275:\n        /* \"#utility.yul\":9262:9267   */\n      0x00\n        /* \"#utility.yul\":9311:9314   */\n      dup3\n        /* \"#utility.yul\":9304:9308   */\n      0x1f\n        /* \"#utility.yul\":9296:9302   */\n      dup4\n        /* \"#utility.yul\":9292:9309   */\n      add\n        /* \"#utility.yul\":9288:9315   */\n      slt\n        /* \"#utility.yul\":9278:9400   */\n      tag_435\n      jumpi\n        /* \"#utility.yul\":9319:9398   */\n      tag_436\n      tag_250\n      jump\t// in\n    tag_436:\n        /* \"#utility.yul\":9278:9400   */\n    tag_435:\n        /* \"#utility.yul\":9436:9442   */\n      dup2\n        /* \"#utility.yul\":9423:9443   */\n      calldataload\n        /* \"#utility.yul\":9461:9555   */\n      tag_437\n        /* \"#utility.yul\":9551:9554   */\n      dup5\n        /* \"#utility.yul\":9543:9549   */\n      dup3\n        /* \"#utility.yul\":9536:9540   */\n      0x20\n        /* \"#utility.yul\":9528:9534   */\n      dup7\n        /* \"#utility.yul\":9524:9541   */\n      add\n        /* \"#utility.yul\":9461:9555   */\n      tag_274\n      jump\t// in\n    tag_437:\n        /* \"#utility.yul\":9452:9555   */\n      swap2\n      pop\n        /* \"#utility.yul\":9268:9561   */\n      pop\n        /* \"#utility.yul\":9191:9561   */\n      swap3\n      swap2\n      pop\n      pop\n      jump\t// out\n        /* \"#utility.yul\":9567:10251   */\n    tag_47:\n        /* \"#utility.yul\":9660:9666   */\n      0x00\n        /* \"#utility.yul\":9668:9674   */\n      dup1\n        /* \"#utility.yul\":9717:9719   */\n      0x40\n        /* \"#utility.yul\":9705:9714   */\n      dup4\n        /* \"#utility.yul\":9696:9703   */\n      dup6\n        /* \"#utility.yul\":9692:9715   */\n      sub\n        /* \"#utility.yul\":9688:9720   */\n      slt\n        /* \"#utility.yul\":9685:9804   */\n      iszero\n      tag_439\n      jumpi\n        /* \"#utility.yul\":9723:9802   */\n      tag_440\n      tag_245\n      jump\t// in\n    tag_440:\n        /* \"#utility.yul\":9685:9804   */\n    tag_439:\n        /* \"#utility.yul\":9871:9872   */\n      0x00\n        /* \"#utility.yul\":9860:9869   */\n      dup4\n        /* \"#utility.yul\":9856:9873   */\n      add\n        /* \"#utility.yul\":9843:9874   */\n      calldataload\n        /* \"#utility.yul\":9901:9919   */\n      0xffffffffffffffff\n        /* \"#utility.yul\":9893:9899   */\n      dup2\n        /* \"#utility.yul\":9890:9920   */\n      gt\n        /* \"#utility.yul\":9887:10004   */\n      iszero\n      tag_441\n      jumpi\n        /* \"#utility.yul\":9923:10002   */\n      tag_442\n      tag_246\n      jump\t// in\n    tag_442:\n        /* \"#utility.yul\":9887:10004   */\n    tag_441:\n        /* \"#utility.yul\":10028:10106   */\n      tag_443\n        /* \"#utility.yul\":10098:10105   */\n      dup6\n        /* \"#utility.yul\":10089:10095   */\n      dup3\n        /* \"#utility.yul\":10078:10087   */\n      dup7\n        /* \"#utility.yul\":10074:10096   */\n      add\n        /* \"#utility.yul\":10028:10106   */\n      tag_275\n      jump\t// in\n    tag_443:\n        /* \"#utility.yul\":10018:10106   */\n      swap3\n      pop\n        /* \"#utility.yul\":9814:10116   */\n      pop\n        /* \"#utility.yul\":10155:10157   */\n      0x20\n        /* \"#utility.yul\":10181:10234   */\n      tag_444\n        /* \"#utility.yul\":10226:10233   */\n      dup6\n        /* \"#utility.yul\":10217:10223   */\n      dup3\n        /* \"#utility.yul\":10206:10215   */\n      dup7\n        /* \"#utility.yul\":10202:10224   */\n      add\n        /* \"#utility.yul\":10181:10234   */\n      tag_272\n      jump\t// in\n    tag_444:\n        /* \"#utility.yul\":10171:10234   */\n      swap2\n      pop\n        /* \"#utility.yul\":10126:10244   */\n      pop\n        /* \"#utility.yul\":9567:10251   */\n      swap3\n      pop\n      swap3\n      swap1\n      pop\n      jump\t// out\n        /* \"#utility.yul\":10257:11418   */\n    tag_52:\n        /* \"#utility.yul\":10365:10371   */\n      0x00\n        /* \"#utility.yul\":10373:10379   */\n      dup1\n        /* \"#utility.yul\":10381:10387   */\n      0x00\n        /* \"#utility.yul\":10389:10395   */\n      dup1\n        /* \"#utility.yul\":10397:10403   */\n      0x00\n        /* \"#utility.yul\":10405:10411   */\n      dup1\n        /* \"#utility.yul\":10454:10457   */\n      0x80\n        /* \"#utility.yul\":10442:10451   */\n      dup8\n        /* \"#utility.yul\":10433:10440   */\n      dup10\n        /* \"#utility.yul\":10429:10452   */\n      sub\n        /* \"#utility.yul\":10425:10458   */\n      slt\n        /* \"#utility.yul\":10422:10542   */\n      iszero\n      tag_446\n      jumpi\n        /* \"#utility.yul\":10461:10540   */\n      tag_447\n      tag_245\n      jump\t// in\n    tag_447:\n        /* \"#utility.yul\":10422:10542   */\n    tag_446:\n        /* \"#utility.yul\":10581:10582   */\n      0x00\n        /* \"#utility.yul\":10606:10659   */\n      tag_448\n        /* \"#utility.yul\":10651:10658   */\n      dup10\n        /* \"#utility.yul\":10642:10648   */\n      dup3\n        /* \"#utility.yul\":10631:10640   */\n      dup11\n        /* \"#utility.yul\":10627:10649   */\n      add\n        /* \"#utility.yul\":10606:10659   */\n      tag_266\n      jump\t// in\n    tag_448:\n        /* \"#utility.yul\":10596:10659   */\n      swap7\n      pop\n        /* \"#utility.yul\":10552:10669   */\n      pop\n        /* \"#utility.yul\":10736:10738   */\n      0x20\n        /* \"#utility.yul\":10725:10734   */\n      dup8\n        /* \"#utility.yul\":10721:10739   */\n      add\n        /* \"#utility.yul\":10708:10740   */\n      calldataload\n        /* \"#utility.yul\":10767:10785   */\n      0xffffffffffffffff\n        /* \"#utility.yul\":10759:10765   */\n      dup2\n        /* \"#utility.yul\":10756:10786   */\n      gt\n        /* \"#utility.yul\":10753:10870   */\n      iszero\n      tag_449\n      jumpi\n        /* \"#utility.yul\":10789:10868   */\n      tag_450\n      tag_246\n      jump\t// in\n    tag_450:\n        /* \"#utility.yul\":10753:10870   */\n    tag_449:\n        /* \"#utility.yul\":10902:10966   */\n      tag_451\n        /* \"#utility.yul\":10958:10965   */\n      dup10\n        /* \"#utility.yul\":10949:10955   */\n      dup3\n        /* \"#utility.yul\":10938:10947   */\n      dup11\n        /* \"#utility.yul\":10934:10956   */\n      add\n        /* \"#utility.yul\":10902:10966   */\n      tag_270\n      jump\t// in\n    tag_451:\n        /* \"#utility.yul\":10884:10966   */\n      swap6\n      pop\n      swap6\n      pop\n        /* \"#utility.yul\":10679:10976   */\n      pop\n        /* \"#utility.yul\":11043:11045   */\n      0x40\n        /* \"#utility.yul\":11032:11041   */\n      dup8\n        /* \"#utility.yul\":11028:11046   */\n      add\n        /* \"#utility.yul\":11015:11047   */\n      calldataload\n        /* \"#utility.yul\":11074:11092   */\n      0xffffffffffffffff\n        /* \"#utility.yul\":11066:11072   */\n      dup2\n        /* \"#utility.yul\":11063:11093   */\n      gt\n        /* \"#utility.yul\":11060:11177   */\n      iszero\n      tag_452\n      jumpi\n        /* \"#utility.yul\":11096:11175   */\n      tag_453\n      tag_246\n      jump\t// in\n    tag_453:\n        /* \"#utility.yul\":11060:11177   */\n    tag_452:\n        /* \"#utility.yul\":11209:11273   */\n      tag_454\n        /* \"#utility.yul\":11265:11272   */\n      dup10\n        /* \"#utility.yul\":11256:11262   */\n      dup3\n        /* \"#utility.yul\":11245:11254   */\n      dup11\n        /* \"#utility.yul\":11241:11263   */\n      add\n        /* \"#utility.yul\":11209:11273   */\n      tag_270\n      jump\t// in\n    tag_454:\n        /* \"#utility.yul\":11191:11273   */\n      swap4\n      pop\n      swap4\n      pop\n        /* \"#utility.yul\":10986:11283   */\n      pop\n        /* \"#utility.yul\":11322:11324   */\n      0x60\n        /* \"#utility.yul\":11348:11401   */\n      tag_455\n        /* \"#utility.yul\":11393:11400   */\n      dup10\n        /* \"#utility.yul\":11384:11390   */\n      dup3\n        /* \"#utility.yul\":11373:11382   */\n      dup11\n        /* \"#utility.yul\":11369:11391   */\n      add\n        /* \"#utility.yul\":11348:11401   */\n      tag_272\n      jump\t// in\n    tag_455:\n        /* \"#utility.yul\":11338:11401   */\n      swap2\n      pop\n        /* \"#utility.yul\":11293:11411   */\n      pop\n        /* \"#utility.yul\":10257:11418   */\n      swap3\n      swap6\n      pop\n      swap3\n      swap6\n      pop\n      swap3\n      swap6\n      jump\t// out\n        /* \"#utility.yul\":11424:11753   */\n    tag_57:\n        /* \"#utility.yul\":11483:11489   */\n      0x00\n        /* \"#utility.yul\":11532:11534   */\n      0x20\n        /* \"#utility.yul\":11520:11529   */\n      dup3\n        /* \"#utility.yul\":11511:11518   */\n      dup5\n        /* \"#utility.yul\":11507:11530   */\n      sub\n        /* \"#utility.yul\":11503:11535   */\n      slt\n        /* \"#utility.yul\":11500:11619   */\n      iszero\n      tag_457\n      jumpi\n        /* \"#utility.yul\":11538:11617   */\n      tag_458\n      tag_245\n      jump\t// in\n    tag_458:\n        /* \"#utility.yul\":11500:11619   */\n    tag_457:\n        /* \"#utility.yul\":11658:11659   */\n      0x00\n        /* \"#utility.yul\":11683:11736   */\n      tag_459\n        /* \"#utility.yul\":11728:11735   */\n      dup5\n        /* \"#utility.yul\":11719:11725   */\n      dup3\n        /* \"#utility.yul\":11708:11717   */\n      dup6\n        /* \"#utility.yul\":11704:11726   */\n      add\n        /* \"#utility.yul\":11683:11736   */\n      tag_249\n      jump\t// in\n    tag_459:\n        /* \"#utility.yul\":11673:11736   */\n      swap2\n      pop\n        /* \"#utility.yul\":11629:11746   */\n      pop\n        /* \"#utility.yul\":11424:11753   */\n      swap3\n      swap2\n      pop\n      pop\n      jump\t// out\n        /* \"#utility.yul\":11759:11873   */\n    tag_276:\n        /* \"#utility.yul\":11826:11832   */\n      0x00\n        /* \"#utility.yul\":11860:11865   */\n      dup2\n        /* \"#utility.yul\":11854:11866   */\n      mload\n        /* \"#utility.yul\":11844:11866   */\n      swap1\n      pop\n        /* \"#utility.yul\":11759:11873   */\n      swap2\n      swap1\n      pop\n      jump\t// out\n        /* \"#utility.yul\":11879:12063   */\n    tag_277:\n        /* \"#utility.yul\":11978:11989   */\n      0x00\n        /* \"#utility.yul\":12012:12018   */\n      dup3\n        /* \"#utility.yul\":12007:12010   */\n      dup3\n        /* \"#utility.yul\":12000:12019   */\n      mstore\n        /* \"#utility.yul\":12052:12056   */\n      0x20\n        /* \"#utility.yul\":12047:12050   */\n      dup3\n        /* \"#utility.yul\":12043:12057   */\n      add\n        /* \"#utility.yul\":12028:12057   */\n      swap1\n      pop\n        /* \"#utility.yul\":11879:12063   */\n      swap3\n      swap2\n      pop\n      pop\n      jump\t// out\n        /* \"#utility.yul\":12069:12201   */\n    tag_278:\n        /* \"#utility.yul\":12136:12140   */\n      0x00\n        /* \"#utility.yul\":12159:12162   */\n      dup2\n        /* \"#utility.yul\":12151:12162   */\n      swap1\n      pop\n        /* \"#utility.yul\":12189:12193   */\n      0x20\n        /* \"#utility.yul\":12184:12187   */\n      dup3\n        /* \"#utility.yul\":12180:12194   */\n      add\n        /* \"#utility.yul\":12172:12194   */\n      swap1\n      pop\n        /* \"#utility.yul\":12069:12201   */\n      swap2\n      swap1\n      pop\n      jump\t// out\n        /* \"#utility.yul\":12207:12315   */\n    tag_279:\n        /* \"#utility.yul\":12284:12308   */\n      tag_464\n        /* \"#utility.yul\":12302:12307   */\n      dup2\n        /* \"#utility.yul\":12284:12308   */\n      tag_261\n      jump\t// in\n    tag_464:\n        /* \"#utility.yul\":12279:12282   */\n      dup3\n        /* \"#utility.yul\":12272:12309   */\n      mstore\n        /* \"#utility.yul\":12207:12315   */\n      pop\n      pop\n      jump\t// out\n        /* \"#utility.yul\":12321:12500   */\n    tag_280:\n        /* \"#utility.yul\":12390:12400   */\n      0x00\n        /* \"#utility.yul\":12411:12457   */\n      tag_466\n        /* \"#utility.yul\":12453:12456   */\n      dup4\n        /* \"#utility.yul\":12445:12451   */\n      dup4\n        /* \"#utility.yul\":12411:12457   */\n      tag_279\n      jump\t// in\n    tag_466:\n        /* \"#utility.yul\":12489:12493   */\n      0x20\n        /* \"#utility.yul\":12484:12487   */\n      dup4\n        /* \"#utility.yul\":12480:12494   */\n      add\n        /* \"#utility.yul\":12466:12494   */\n      swap1\n      pop\n        /* \"#utility.yul\":12321:12500   */\n      swap3\n      swap2\n      pop\n      pop\n      jump\t// out\n        /* \"#utility.yul\":12506:12619   */\n    tag_281:\n        /* \"#utility.yul\":12576:12580   */\n      0x00\n        /* \"#utility.yul\":12608:12612   */\n      0x20\n        /* \"#utility.yul\":12603:12606   */\n      dup3\n        /* \"#utility.yul\":12599:12613   */\n      add\n        /* \"#utility.yul\":12591:12613   */\n      swap1\n      pop\n        /* \"#utility.yul\":12506:12619   */\n      swap2\n      swap1\n      pop\n      jump\t// out\n        /* \"#utility.yul\":12655:13387   */\n    tag_282:\n        /* \"#utility.yul\":12774:12777   */\n      0x00\n        /* \"#utility.yul\":12803:12857   */\n      tag_469\n        /* \"#utility.yul\":12851:12856   */\n      dup3\n        /* \"#utility.yul\":12803:12857   */\n      tag_276\n      jump\t// in\n    tag_469:\n        /* \"#utility.yul\":12873:12959   */\n      tag_470\n        /* \"#utility.yul\":12952:12958   */\n      dup2\n        /* \"#utility.yul\":12947:12950   */\n      dup6\n        /* \"#utility.yul\":12873:12959   */\n      tag_277\n      jump\t// in\n    tag_470:\n        /* \"#utility.yul\":12866:12959   */\n      swap4\n      pop\n        /* \"#utility.yul\":12983:13039   */\n      tag_471\n        /* \"#utility.yul\":13033:13038   */\n      dup4\n        /* \"#utility.yul\":12983:13039   */\n      tag_278\n      jump\t// in\n    tag_471:\n        /* \"#utility.yul\":13062:13069   */\n      dup1\n        /* \"#utility.yul\":13093:13094   */\n      0x00\n        /* \"#utility.yul\":13078:13362   */\n    tag_472:\n        /* \"#utility.yul\":13103:13109   */\n      dup4\n        /* \"#utility.yul\":13100:13101   */\n      dup2\n        /* \"#utility.yul\":13097:13110   */\n      lt\n        /* \"#utility.yul\":13078:13362   */\n      iszero\n      tag_474\n      jumpi\n        /* \"#utility.yul\":13179:13185   */\n      dup2\n        /* \"#utility.yul\":13173:13186   */\n      mload\n        /* \"#utility.yul\":13206:13269   */\n      tag_475\n        /* \"#utility.yul\":13265:13268   */\n      dup9\n        /* \"#utility.yul\":13250:13263   */\n      dup3\n        /* \"#utility.yul\":13206:13269   */\n      tag_280\n      jump\t// in\n    tag_475:\n        /* \"#utility.yul\":13199:13269   */\n      swap8\n      pop\n        /* \"#utility.yul\":13292:13352   */\n      tag_476\n        /* \"#utility.yul\":13345:13351   */\n      dup4\n        /* \"#utility.yul\":13292:13352   */\n      tag_281\n      jump\t// in\n    tag_476:\n        /* \"#utility.yul\":13282:13352   */\n      swap3\n      pop\n        /* \"#utility.yul\":13138:13362   */\n      pop\n        /* \"#utility.yul\":13125:13126   */\n      0x01\n        /* \"#utility.yul\":13122:13123   */\n      dup2\n        /* \"#utility.yul\":13118:13127   */\n      add\n        /* \"#utility.yul\":13113:13127   */\n      swap1\n      pop\n        /* \"#utility.yul\":13078:13362   */\n      jump(tag_472)\n    tag_474:\n        /* \"#utility.yul\":13082:13096   */\n      pop\n        /* \"#utility.yul\":13378:13381   */\n      dup6\n        /* \"#utility.yul\":13371:13381   */\n      swap4\n      pop\n        /* \"#utility.yul\":12779:13387   */\n      pop\n      pop\n      pop\n        /* \"#utility.yul\":12655:13387   */\n      swap3\n      swap2\n      pop\n      pop\n      jump\t// out\n        /* \"#utility.yul\":13393:13766   */\n    tag_64:\n        /* \"#utility.yul\":13536:13540   */\n      0x00\n        /* \"#utility.yul\":13574:13576   */\n      0x20\n        /* \"#utility.yul\":13563:13572   */\n      dup3\n        /* \"#utility.yul\":13559:13577   */\n      add\n        /* \"#utility.yul\":13551:13577   */\n      swap1\n      pop\n        /* \"#utility.yul\":13623:13632   */\n      dup2\n        /* \"#utility.yul\":13617:13621   */\n      dup2\n        /* \"#utility.yul\":13613:13633   */\n      sub\n        /* \"#utility.yul\":13609:13610   */\n      0x00\n        /* \"#utility.yul\":13598:13607   */\n      dup4\n        /* \"#utility.yul\":13594:13611   */\n      add\n        /* \"#utility.yul\":13587:13634   */\n      mstore\n        /* \"#utility.yul\":13651:13759   */\n      tag_478\n        /* \"#utility.yul\":13754:13758   */\n      dup2\n        /* \"#utility.yul\":13745:13751   */\n      dup5\n        /* \"#utility.yul\":13651:13759   */\n      tag_282\n      jump\t// in\n    tag_478:\n        /* \"#utility.yul\":13643:13759   */\n      swap1\n      pop\n        /* \"#utility.yul\":13393:13766   */\n      swap3\n      swap2\n      pop\n      pop\n      jump\t// out\n        /* \"#utility.yul\":13772:13871   */\n    tag_283:\n        /* \"#utility.yul\":13824:13830   */\n      0x00\n        /* \"#utility.yul\":13858:13863   */\n      dup2\n        /* \"#utility.yul\":13852:13864   */\n      mload\n        /* \"#utility.yul\":13842:13864   */\n      swap1\n      pop\n        /* \"#utility.yul\":13772:13871   */\n      swap2\n      swap1\n      pop\n      jump\t// out\n        /* \"#utility.yul\":13877:14046   */\n    tag_284:\n        /* \"#utility.yul\":13961:13972   */\n      0x00\n        /* \"#utility.yul\":13995:14001   */\n      dup3\n        /* \"#utility.yul\":13990:13993   */\n      dup3\n        /* \"#utility.yul\":13983:14002   */\n      mstore\n        /* \"#utility.yul\":14035:14039   */\n      0x20\n        /* \"#utility.yul\":14030:14033   */\n      dup3\n        /* \"#utility.yul\":14026:14040   */\n      add\n        /* \"#utility.yul\":14011:14040   */\n      swap1\n      pop\n        /* \"#utility.yul\":13877:14046   */\n      swap3\n      swap2\n      pop\n      pop\n      jump\t// out\n        /* \"#utility.yul\":14052:14191   */\n    tag_285:\n        /* \"#utility.yul\":14141:14147   */\n      dup3\n        /* \"#utility.yul\":14136:14139   */\n      dup2\n        /* \"#utility.yul\":14131:14134   */\n      dup4\n        /* \"#utility.yul\":14125:14148   */\n      mcopy\n        /* \"#utility.yul\":14182:14183   */\n      0x00\n        /* \"#utility.yul\":14173:14179   */\n      dup4\n        /* \"#utility.yul\":14168:14171   */\n      dup4\n        /* \"#utility.yul\":14164:14180   */\n      add\n        /* \"#utility.yul\":14157:14184   */\n      mstore\n        /* \"#utility.yul\":14052:14191   */\n      pop\n      pop\n      pop\n      jump\t// out\n        /* \"#utility.yul\":14197:14574   */\n    tag_286:\n        /* \"#utility.yul\":14285:14288   */\n      0x00\n        /* \"#utility.yul\":14313:14352   */\n      tag_483\n        /* \"#utility.yul\":14346:14351   */\n      dup3\n        /* \"#utility.yul\":14313:14352   */\n      tag_283\n      jump\t// in\n    tag_483:\n        /* \"#utility.yul\":14368:14439   */\n      tag_484\n        /* \"#utility.yul\":14432:14438   */\n      dup2\n        /* \"#utility.yul\":14427:14430   */\n      dup6\n        /* \"#utility.yul\":14368:14439   */\n      tag_284\n      jump\t// in\n    tag_484:\n        /* \"#utility.yul\":14361:14439   */\n      swap4\n      pop\n        /* \"#utility.yul\":14448:14513   */\n      tag_485\n        /* \"#utility.yul\":14506:14512   */\n      dup2\n        /* \"#utility.yul\":14501:14504   */\n      dup6\n        /* \"#utility.yul\":14494:14498   */\n      0x20\n        /* \"#utility.yul\":14487:14492   */\n      dup7\n        /* \"#utility.yul\":14483:14499   */\n      add\n        /* \"#utility.yul\":14448:14513   */\n      tag_285\n      jump\t// in\n    tag_485:\n        /* \"#utility.yul\":14538:14567   */\n      tag_486\n        /* \"#utility.yul\":14560:14566   */\n      dup2\n        /* \"#utility.yul\":14538:14567   */\n      tag_252\n      jump\t// in\n    tag_486:\n        /* \"#utility.yul\":14533:14536   */\n      dup5\n        /* \"#utility.yul\":14529:14568   */\n      add\n        /* \"#utility.yul\":14522:14568   */\n      swap2\n      pop\n        /* \"#utility.yul\":14289:14574   */\n      pop\n        /* \"#utility.yul\":14197:14574   */\n      swap3\n      swap2\n      pop\n      pop\n      jump\t// out\n        /* \"#utility.yul\":14580:14893   */\n    tag_69:\n        /* \"#utility.yul\":14693:14697   */\n      0x00\n        /* \"#utility.yul\":14731:14733   */\n      0x20\n        /* \"#utility.yul\":14720:14729   */\n      dup3\n        /* \"#utility.yul\":14716:14734   */\n      add\n        /* \"#utility.yul\":14708:14734   */\n      swap1\n      pop\n        /* \"#utility.yul\":14780:14789   */\n      dup2\n        /* \"#utility.yul\":14774:14778   */\n      dup2\n        /* \"#utility.yul\":14770:14790   */\n      sub\n        /* \"#utility.yul\":14766:14767   */\n      0x00\n        /* \"#utility.yul\":14755:14764   */\n      dup4\n        /* \"#utility.yul\":14751:14768   */\n      add\n        /* \"#utility.yul\":14744:14791   */\n      mstore\n        /* \"#utility.yul\":14808:14886   */\n      tag_488\n        /* \"#utility.yul\":14881:14885   */\n      dup2\n        /* \"#utility.yul\":14872:14878   */\n      dup5\n        /* \"#utility.yul\":14808:14886   */\n      tag_286\n      jump\t// in\n    tag_488:\n        /* \"#utility.yul\":14800:14886   */\n      swap1\n      pop\n        /* \"#utility.yul\":14580:14893   */\n      swap3\n      swap2\n      pop\n      pop\n      jump\t// out\n        /* \"#utility.yul\":14899:15716   */\n    tag_73:\n        /* \"#utility.yul\":14987:14993   */\n      0x00\n        /* \"#utility.yul\":14995:15001   */\n      dup1\n        /* \"#utility.yul\":15003:15009   */\n      0x00\n        /* \"#utility.yul\":15011:15017   */\n      dup1\n        /* \"#utility.yul\":15060:15062   */\n      0x60\n        /* \"#utility.yul\":15048:15057   */\n      dup6\n        /* \"#utility.yul\":15039:15046   */\n      dup8\n        /* \"#utility.yul\":15035:15058   */\n      sub\n        /* \"#utility.yul\":15031:15063   */\n      slt\n        /* \"#utility.yul\":15028:15147   */\n      iszero\n      tag_490\n      jumpi\n        /* \"#utility.yul\":15066:15145   */\n      tag_491\n      tag_245\n      jump\t// in\n    tag_491:\n        /* \"#utility.yul\":15028:15147   */\n    tag_490:\n        /* \"#utility.yul\":15186:15187   */\n      0x00\n        /* \"#utility.yul\":15211:15264   */\n      tag_492\n        /* \"#utility.yul\":15256:15263   */\n      dup8\n        /* \"#utility.yul\":15247:15253   */\n      dup3\n        /* \"#utility.yul\":15236:15245   */\n      dup9\n        /* \"#utility.yul\":15232:15254   */\n      add\n        /* \"#utility.yul\":15211:15264   */\n      tag_266\n      jump\t// in\n    tag_492:\n        /* \"#utility.yul\":15201:15264   */\n      swap5\n      pop\n        /* \"#utility.yul\":15157:15274   */\n      pop\n        /* \"#utility.yul\":15341:15343   */\n      0x20\n        /* \"#utility.yul\":15330:15339   */\n      dup6\n        /* \"#utility.yul\":15326:15344   */\n      add\n        /* \"#utility.yul\":15313:15345   */\n      calldataload\n        /* \"#utility.yul\":15372:15390   */\n      0xffffffffffffffff\n        /* \"#utility.yul\":15364:15370   */\n      dup2\n        /* \"#utility.yul\":15361:15391   */\n      gt\n        /* \"#utility.yul\":15358:15475   */\n      iszero\n      tag_493\n      jumpi\n        /* \"#utility.yul\":15394:15473   */\n      tag_494\n      tag_246\n      jump\t// in\n    tag_494:\n        /* \"#utility.yul\":15358:15475   */\n    tag_493:\n        /* \"#utility.yul\":15507:15571   */\n      tag_495\n        /* \"#utility.yul\":15563:15570   */\n      dup8\n        /* \"#utility.yul\":15554:15560   */\n      dup3\n        /* \"#utility.yul\":15543:15552   */\n      dup9\n        /* \"#utility.yul\":15539:15561   */\n      add\n        /* \"#utility.yul\":15507:15571   */\n      tag_270\n      jump\t// in\n    tag_495:\n        /* \"#utility.yul\":15489:15571   */\n      swap4\n      pop\n      swap4\n      pop\n        /* \"#utility.yul\":15284:15581   */\n      pop\n        /* \"#utility.yul\":15620:15622   */\n      0x40\n        /* \"#utility.yul\":15646:15699   */\n      tag_496\n        /* \"#utility.yul\":15691:15698   */\n      dup8\n        /* \"#utility.yul\":15682:15688   */\n      dup3\n        /* \"#utility.yul\":15671:15680   */\n      dup9\n        /* \"#utility.yul\":15667:15689   */\n      add\n        /* \"#utility.yul\":15646:15699   */\n      tag_272\n      jump\t// in\n    tag_496:\n        /* \"#utility.yul\":15636:15699   */\n      swap2\n      pop\n        /* \"#utility.yul\":15591:15709   */\n      pop\n        /* \"#utility.yul\":14899:15716   */\n      swap3\n      swap6\n      swap2\n      swap5\n      pop\n      swap3\n      pop\n      jump\t// out\n        /* \"#utility.yul\":15722:15903   */\n    tag_287:\n        /* \"#utility.yul\":15862:15895   */\n      0x45434453413a20696e76616c6964207369676e6174757265206c656e67746800\n        /* \"#utility.yul\":15858:15859   */\n      0x00\n        /* \"#utility.yul\":15850:15856   */\n      dup3\n        /* \"#utility.yul\":15846:15860   */\n      add\n        /* \"#utility.yul\":15839:15896   */\n      mstore\n        /* \"#utility.yul\":15722:15903   */\n      pop\n      jump\t// out\n        /* \"#utility.yul\":15909:16275   */\n    tag_288:\n        /* \"#utility.yul\":16051:16054   */\n      0x00\n        /* \"#utility.yul\":16072:16139   */\n      tag_499\n        /* \"#utility.yul\":16136:16138   */\n      0x1f\n        /* \"#utility.yul\":16131:16134   */\n      dup4\n        /* \"#utility.yul\":16072:16139   */\n      tag_284\n      jump\t// in\n    tag_499:\n        /* \"#utility.yul\":16065:16139   */\n      swap2\n      pop\n        /* \"#utility.yul\":16148:16241   */\n      tag_500\n        /* \"#utility.yul\":16237:16240   */\n      dup3\n        /* \"#utility.yul\":16148:16241   */\n      tag_287\n      jump\t// in\n    tag_500:\n        /* \"#utility.yul\":16266:16268   */\n      0x20\n        /* \"#utility.yul\":16261:16264   */\n      dup3\n        /* \"#utility.yul\":16257:16269   */\n      add\n        /* \"#utility.yul\":16250:16269   */\n      swap1\n      pop\n        /* \"#utility.yul\":15909:16275   */\n      swap2\n      swap1\n      pop\n      jump\t// out\n        /* \"#utility.yul\":16281:16700   */\n    tag_82:\n        /* \"#utility.yul\":16447:16451   */\n      0x00\n        /* \"#utility.yul\":16485:16487   */\n      0x20\n        /* \"#utility.yul\":16474:16483   */\n      dup3\n        /* \"#utility.yul\":16470:16488   */\n      add\n        /* \"#utility.yul\":16462:16488   */\n      swap1\n      pop\n        /* \"#utility.yul\":16534:16543   */\n      dup2\n        /* \"#utility.yul\":16528:16532   */\n      dup2\n        /* \"#utility.yul\":16524:16544   */\n      sub\n        /* \"#utility.yul\":16520:16521   */\n      0x00\n        /* \"#utility.yul\":16509:16518   */\n      dup4\n        /* \"#utility.yul\":16505:16522   */\n      add\n        /* \"#utility.yul\":16498:16545   */\n      mstore\n        /* \"#utility.yul\":16562:16693   */\n      tag_502\n        /* \"#utility.yul\":16688:16692   */\n      dup2\n        /* \"#utility.yul\":16562:16693   */\n      tag_288\n      jump\t// in\n    tag_502:\n        /* \"#utility.yul\":16554:16693   */\n      swap1\n      pop\n        /* \"#utility.yul\":16281:16700   */\n      swap2\n      swap1\n      pop\n      jump\t// out\n        /* \"#utility.yul\":16706:17026   */\n    tag_289:\n        /* \"#utility.yul\":16792:16796   */\n      0x00\n        /* \"#utility.yul\":16882:16900   */\n      0xffffffffffffffff\n        /* \"#utility.yul\":16874:16880   */\n      dup3\n        /* \"#utility.yul\":16871:16901   */\n      gt\n        /* \"#utility.yul\":16868:16924   */\n      iszero\n      tag_504\n      jumpi\n        /* \"#utility.yul\":16904:16922   */\n      tag_505\n      tag_253\n      jump\t// in\n    tag_505:\n        /* \"#utility.yul\":16868:16924   */\n    tag_504:\n        /* \"#utility.yul\":16954:16958   */\n      0x20\n        /* \"#utility.yul\":16946:16952   */\n      dup3\n        /* \"#utility.yul\":16942:16959   */\n      mul\n        /* \"#utility.yul\":16934:16959   */\n      swap1\n      pop\n        /* \"#utility.yul\":17014:17018   */\n      0x20\n        /* \"#utility.yul\":17008:17012   */\n      dup2\n        /* \"#utility.yul\":17004:17019   */\n      add\n        /* \"#utility.yul\":16996:17019   */\n      swap1\n      pop\n        /* \"#utility.yul\":16706:17026   */\n      swap2\n      swap1\n      pop\n      jump\t// out\n        /* \"#utility.yul\":17047:17989   */\n    tag_290:\n        /* \"#utility.yul\":17152:17157   */\n      0x00\n        /* \"#utility.yul\":17177:17267   */\n      tag_507\n        /* \"#utility.yul\":17193:17266   */\n      tag_508\n        /* \"#utility.yul\":17259:17265   */\n      dup5\n        /* \"#utility.yul\":17193:17266   */\n      tag_289\n      jump\t// in\n    tag_508:\n        /* \"#utility.yul\":17177:17267   */\n      tag_255\n      jump\t// in\n    tag_507:\n        /* \"#utility.yul\":17168:17267   */\n      swap1\n      pop\n        /* \"#utility.yul\":17287:17292   */\n      dup1\n        /* \"#utility.yul\":17316:17322   */\n      dup4\n        /* \"#utility.yul\":17309:17314   */\n      dup3\n        /* \"#utility.yul\":17302:17323   */\n      mstore\n        /* \"#utility.yul\":17350:17354   */\n      0x20\n        /* \"#utility.yul\":17343:17348   */\n      dup3\n        /* \"#utility.yul\":17339:17355   */\n      add\n        /* \"#utility.yul\":17332:17355   */\n      swap1\n      pop\n        /* \"#utility.yul\":17403:17407   */\n      0x20\n        /* \"#utility.yul\":17395:17401   */\n      dup5\n        /* \"#utility.yul\":17391:17408   */\n      mul\n        /* \"#utility.yul\":17383:17389   */\n      dup4\n        /* \"#utility.yul\":17379:17409   */\n      add\n        /* \"#utility.yul\":17432:17435   */\n      dup6\n        /* \"#utility.yul\":17424:17430   */\n      dup2\n        /* \"#utility.yul\":17421:17436   */\n      gt\n        /* \"#utility.yul\":17418:17540   */\n      iszero\n      tag_509\n      jumpi\n        /* \"#utility.yul\":17451:17530   */\n      tag_510\n      tag_269\n      jump\t// in\n    tag_510:\n        /* \"#utility.yul\":17418:17540   */\n    tag_509:\n        /* \"#utility.yul\":17566:17572   */\n      dup4\n        /* \"#utility.yul\":17549:17983   */\n    tag_511:\n        /* \"#utility.yul\":17583:17589   */\n      dup2\n        /* \"#utility.yul\":17578:17581   */\n      dup2\n        /* \"#utility.yul\":17575:17590   */\n      lt\n        /* \"#utility.yul\":17549:17983   */\n      iszero\n      tag_513\n      jumpi\n        /* \"#utility.yul\":17672:17675   */\n      dup1\n        /* \"#utility.yul\":17659:17676   */\n      calldataload\n        /* \"#utility.yul\":17708:17726   */\n      0xffffffffffffffff\n        /* \"#utility.yul\":17695:17706   */\n      dup2\n        /* \"#utility.yul\":17692:17727   */\n      gt\n        /* \"#utility.yul\":17689:17811   */\n      iszero\n      tag_514\n      jumpi\n        /* \"#utility.yul\":17730:17809   */\n      tag_515\n      tag_250\n      jump\t// in\n    tag_515:\n        /* \"#utility.yul\":17689:17811   */\n    tag_514:\n        /* \"#utility.yul\":17854:17865   */\n      dup1\n        /* \"#utility.yul\":17846:17852   */\n      dup7\n        /* \"#utility.yul\":17842:17866   */\n      add\n        /* \"#utility.yul\":17892:17938   */\n      tag_516\n        /* \"#utility.yul\":17934:17937   */\n      dup10\n        /* \"#utility.yul\":17922:17932   */\n      dup3\n        /* \"#utility.yul\":17892:17938   */\n      tag_259\n      jump\t// in\n    tag_516:\n        /* \"#utility.yul\":17887:17890   */\n      dup6\n        /* \"#utility.yul\":17880:17939   */\n      mstore\n        /* \"#utility.yul\":17968:17972   */\n      0x20\n        /* \"#utility.yul\":17963:17966   */\n      dup6\n        /* \"#utility.yul\":17959:17973   */\n      add\n        /* \"#utility.yul\":17952:17973   */\n      swap5\n      pop\n        /* \"#utility.yul\":17625:17983   */\n      pop\n      pop\n        /* \"#utility.yul\":17609:17613   */\n      0x20\n        /* \"#utility.yul\":17604:17607   */\n      dup2\n        /* \"#utility.yul\":17600:17614   */\n      add\n        /* \"#utility.yul\":17593:17614   */\n      swap1\n      pop\n        /* \"#utility.yul\":17549:17983   */\n      jump(tag_511)\n    tag_513:\n        /* \"#utility.yul\":17553:17574   */\n      pop\n        /* \"#utility.yul\":17158:17989   */\n      pop\n      pop\n        /* \"#utility.yul\":17047:17989   */\n      swap4\n      swap3\n      pop\n      pop\n      pop\n      jump\t// out\n        /* \"#utility.yul\":18010:18398   */\n    tag_291:\n        /* \"#utility.yul\":18090:18095   */\n      0x00\n        /* \"#utility.yul\":18139:18142   */\n      dup3\n        /* \"#utility.yul\":18132:18136   */\n      0x1f\n        /* \"#utility.yul\":18124:18130   */\n      dup4\n        /* \"#utility.yul\":18120:18137   */\n      add\n        /* \"#utility.yul\":18116:18143   */\n      slt\n        /* \"#utility.yul\":18106:18228   */\n      tag_518\n      jumpi\n        /* \"#utility.yul\":18147:18226   */\n      tag_519\n      tag_250\n      jump\t// in\n    tag_519:\n        /* \"#utility.yul\":18106:18228   */\n    tag_518:\n        /* \"#utility.yul\":18264:18270   */\n      dup2\n        /* \"#utility.yul\":18251:18271   */\n      calldataload\n        /* \"#utility.yul\":18289:18392   */\n      tag_520\n        /* \"#utility.yul\":18388:18391   */\n      dup5\n        /* \"#utility.yul\":18380:18386   */\n      dup3\n        /* \"#utility.yul\":18373:18377   */\n      0x20\n        /* \"#utility.yul\":18365:18371   */\n      dup7\n        /* \"#utility.yul\":18361:18378   */\n      add\n        /* \"#utility.yul\":18289:18392   */\n      tag_290\n      jump\t// in\n    tag_520:\n        /* \"#utility.yul\":18280:18392   */\n      swap2\n      pop\n        /* \"#utility.yul\":18096:18398   */\n      pop\n        /* \"#utility.yul\":18010:18398   */\n      swap3\n      swap2\n      pop\n      pop\n      jump\t// out\n        /* \"#utility.yul\":18404:18961   */\n    tag_102:\n        /* \"#utility.yul\":18497:18503   */\n      0x00\n        /* \"#utility.yul\":18546:18548   */\n      0x20\n        /* \"#utility.yul\":18534:18543   */\n      dup3\n        /* \"#utility.yul\":18525:18532   */\n      dup5\n        /* \"#utility.yul\":18521:18544   */\n      sub\n        /* \"#utility.yul\":18517:18549   */\n      slt\n        /* \"#utility.yul\":18514:18633   */\n      iszero\n      tag_522\n      jumpi\n        /* \"#utility.yul\":18552:18631   */\n      tag_523\n      tag_245\n      jump\t// in\n    tag_523:\n        /* \"#utility.yul\":18514:18633   */\n    tag_522:\n        /* \"#utility.yul\":18700:18701   */\n      0x00\n        /* \"#utility.yul\":18689:18698   */\n      dup3\n        /* \"#utility.yul\":18685:18702   */\n      add\n        /* \"#utility.yul\":18672:18703   */\n      calldataload\n        /* \"#utility.yul\":18730:18748   */\n      0xffffffffffffffff\n        /* \"#utility.yul\":18722:18728   */\n      dup2\n        /* \"#utility.yul\":18719:18749   */\n      gt\n        /* \"#utility.yul\":18716:18833   */\n      iszero\n      tag_524\n      jumpi\n        /* \"#utility.yul\":18752:18831   */\n      tag_525\n      tag_246\n      jump\t// in\n    tag_525:\n        /* \"#utility.yul\":18716:18833   */\n    tag_524:\n        /* \"#utility.yul\":18857:18944   */\n      tag_526\n        /* \"#utility.yul\":18936:18943   */\n      dup5\n        /* \"#utility.yul\":18927:18933   */\n      dup3\n        /* \"#utility.yul\":18916:18925   */\n      dup6\n        /* \"#utility.yul\":18912:18934   */\n      add\n        /* \"#utility.yul\":18857:18944   */\n      tag_291\n      jump\t// in\n    tag_526:\n        /* \"#utility.yul\":18847:18944   */\n      swap2\n      pop\n        /* \"#utility.yul\":18643:18954   */\n      pop\n        /* \"#utility.yul\":18404:18961   */\n      swap3\n      swap2\n      pop\n      pop\n      jump\t// out\n        /* \"#utility.yul\":18967:19147   */\n    tag_109:\n        /* \"#utility.yul\":19015:19092   */\n      0x4e487b7100000000000000000000000000000000000000000000000000000000\n        /* \"#utility.yul\":19012:19013   */\n      0x00\n        /* \"#utility.yul\":19005:19093   */\n      mstore\n        /* \"#utility.yul\":19112:19116   */\n      0x32\n        /* \"#utility.yul\":19109:19110   */\n      0x04\n        /* \"#utility.yul\":19102:19117   */\n      mstore\n        /* \"#utility.yul\":19136:19140   */\n      0x24\n        /* \"#utility.yul\":19133:19134   */\n      0x00\n        /* \"#utility.yul\":19126:19141   */\n      revert\n        /* \"#utility.yul\":19153:19333   */\n    tag_292:\n        /* \"#utility.yul\":19201:19278   */\n      0x4e487b7100000000000000000000000000000000000000000000000000000000\n        /* \"#utility.yul\":19198:19199   */\n      0x00\n        /* \"#utility.yul\":19191:19279   */\n      mstore\n        /* \"#utility.yul\":19298:19302   */\n      0x11\n        /* \"#utility.yul\":19295:19296   */\n      0x04\n        /* \"#utility.yul\":19288:19303   */\n      mstore\n        /* \"#utility.yul\":19322:19326   */\n      0x24\n        /* \"#utility.yul\":19319:19320   */\n      0x00\n        /* \"#utility.yul\":19312:19327   */\n      revert\n        /* \"#utility.yul\":19339:19572   */\n    tag_112:\n        /* \"#utility.yul\":19378:19381   */\n      0x00\n        /* \"#utility.yul\":19401:19425   */\n      tag_530\n        /* \"#utility.yul\":19419:19424   */\n      dup3\n        /* \"#utility.yul\":19401:19425   */\n      tag_263\n      jump\t// in\n    tag_530:\n        /* \"#utility.yul\":19392:19425   */\n      swap2\n      pop\n        /* \"#utility.yul\":19447:19513   */\n      0xffffffffffffffffffffffffffffffffffffffffffffffffffffffffffffffff\n        /* \"#utility.yul\":19440:19445   */\n      dup3\n        /* \"#utility.yul\":19437:19514   */\n      sub\n        /* \"#utility.yul\":19434:19537   */\n      tag_531\n      jumpi\n        /* \"#utility.yul\":19517:19535   */\n      tag_532\n      tag_292\n      jump\t// in\n    tag_532:\n        /* \"#utility.yul\":19434:19537   */\n    tag_531:\n        /* \"#utility.yul\":19564:19565   */\n      0x01\n        /* \"#utility.yul\":19557:19562   */\n      dup3\n        /* \"#utility.yul\":19553:19566   */\n      add\n        /* \"#utility.yul\":19546:19566   */\n      swap1\n      pop\n        /* \"#utility.yul\":19339:19572   */\n      swap2\n      swap1\n      pop\n      jump\t// out\n        /* \"#utility.yul\":19578:19663   */\n    tag_293:\n        /* \"#utility.yul\":19623:19630   */\n      0x00\n        /* \"#utility.yul\":19652:19657   */\n      dup2\n        /* \"#utility.yul\":19641:19657   */\n      swap1\n      pop\n        /* \"#utility.yul\":19578:19663   */\n      swap2\n      swap1\n      pop\n      jump\t// out\n        /* \"#utility.yul\":19669:19770   */\n    tag_294:\n        /* \"#utility.yul\":19705:19712   */\n      0x00\n        /* \"#utility.yul\":19745:19763   */\n      0xffffffffffffffff\n        /* \"#utility.yul\":19738:19743   */\n      dup3\n        /* \"#utility.yul\":19734:19764   */\n      and\n        /* \"#utility.yul\":19723:19764   */\n      swap1\n      pop\n        /* \"#utility.yul\":19669:19770   */\n      swap2\n      swap1\n      pop\n      jump\t// out\n        /* \"#utility.yul\":19776:19836   */\n    tag_295:\n        /* \"#utility.yul\":19804:19807   */\n      0x00\n        /* \"#utility.yul\":19825:19830   */\n      dup2\n        /* \"#utility.yul\":19818:19830   */\n      swap1\n      pop\n        /* \"#utility.yul\":19776:19836   */\n      swap2\n      swap1\n      pop\n      jump\t// out\n        /* \"#utility.yul\":19842:19998   */\n    tag_296:\n        /* \"#utility.yul\":19899:19908   */\n      0x00\n        /* \"#utility.yul\":19932:19992   */\n      tag_537\n        /* \"#utility.yul\":19949:19991   */\n      tag_538\n        /* \"#utility.yul\":19958:19990   */\n      tag_539\n        /* \"#utility.yul\":19984:19989   */\n      dup5\n        /* \"#utility.yul\":19958:19990   */\n      tag_293\n      jump\t// in\n    tag_539:\n        /* \"#utility.yul\":19949:19991   */\n      tag_295\n      jump\t// in\n    tag_538:\n        /* \"#utility.yul\":19932:19992   */\n      tag_294\n      jump\t// in\n    tag_537:\n        /* \"#utility.yul\":19919:19992   */\n      swap1\n      pop\n        /* \"#utility.yul\":19842:19998   */\n      swap2\n      swap1\n      pop\n      jump\t// out\n        /* \"#utility.yul\":20004:20149   */\n    tag_297:\n        /* \"#utility.yul\":20098:20142   */\n      tag_541\n        /* \"#utility.yul\":20136:20141   */\n      dup2\n        /* \"#utility.yul\":20098:20142   */\n      tag_296\n      jump\t// in\n    tag_541:\n        /* \"#utility.yul\":20093:20096   */\n      dup3\n        /* \"#utility.yul\":20086:20143   */\n      mstore\n        /* \"#utility.yul\":20004:20149   */\n      pop\n      pop\n      jump\t// out\n        /* \"#utility.yul\":20155:20391   */\n    tag_133:\n        /* \"#utility.yul\":20255:20259   */\n      0x00\n        /* \"#utility.yul\":20293:20295   */\n      0x20\n        /* \"#utility.yul\":20282:20291   */\n      dup3\n        /* \"#utility.yul\":20278:20296   */\n      add\n        /* \"#utility.yul\":20270:20296   */\n      swap1\n      pop\n        /* \"#utility.yul\":20306:20384   */\n      tag_543\n        /* \"#utility.yul\":20381:20382   */\n      0x00\n        /* \"#utility.yul\":20370:20379   */\n      dup4\n        /* \"#utility.yul\":20366:20383   */\n      add\n        /* \"#utility.yul\":20357:20363   */\n      dup5\n        /* \"#utility.yul\":20306:20384   */\n      tag_297\n      jump\t// in\n    tag_543:\n        /* \"#utility.yul\":20155:20391   */\n      swap3\n      swap2\n      pop\n      pop\n      jump\t// out\n        /* \"#utility.yul\":20397:20562   */\n    tag_298:\n        /* \"#utility.yul\":20537:20554   */\n      0x57726f6e67205369676e61747572650000000000000000000000000000000000\n        /* \"#utility.yul\":20533:20534   */\n      0x00\n        /* \"#utility.yul\":20525:20531   */\n      dup3\n        /* \"#utility.yul\":20521:20535   */\n      add\n        /* \"#utility.yul\":20514:20555   */\n      mstore\n        /* \"#utility.yul\":20397:20562   */\n      pop\n      jump\t// out\n        /* \"#utility.yul\":20568:20934   */\n    tag_299:\n        /* \"#utility.yul\":20710:20713   */\n      0x00\n        /* \"#utility.yul\":20731:20798   */\n      tag_546\n        /* \"#utility.yul\":20795:20797   */\n      0x0f\n        /* \"#utility.yul\":20790:20793   */\n      dup4\n        /* \"#utility.yul\":20731:20798   */\n      tag_284\n      jump\t// in\n    tag_546:\n        /* \"#utility.yul\":20724:20798   */\n      swap2\n      pop\n        /* \"#utility.yul\":20807:20900   */\n      tag_547\n        /* \"#utility.yul\":20896:20899   */\n      dup3\n        /* \"#utility.yul\":20807:20900   */\n      tag_298\n      jump\t// in\n    tag_547:\n        /* \"#utility.yul\":20925:20927   */\n      0x20\n        /* \"#utility.yul\":20920:20923   */\n      dup3\n        /* \"#utility.yul\":20916:20928   */\n      add\n        /* \"#utility.yul\":20909:20928   */\n      swap1\n      pop\n        /* \"#utility.yul\":20568:20934   */\n      swap2\n      swap1\n      pop\n      jump\t// out\n        /* \"#utility.yul\":20940:21359   */\n    tag_140:\n        /* \"#utility.yul\":21106:21110   */\n      0x00\n        /* \"#utility.yul\":21144:21146   */\n      0x20\n        /* \"#utility.yul\":21133:21142   */\n      dup3\n        /* \"#utility.yul\":21129:21147   */\n      add\n        /* \"#utility.yul\":21121:21147   */\n      swap1\n      pop\n        /* \"#utility.yul\":21193:21202   */\n      dup2\n        /* \"#utility.yul\":21187:21191   */\n      dup2\n        /* \"#utility.yul\":21183:21203   */\n      sub\n        /* \"#utility.yul\":21179:21180   */\n      0x00\n        /* \"#utility.yul\":21168:21177   */\n      dup4\n        /* \"#utility.yul\":21164:21181   */\n      add\n        /* \"#utility.yul\":21157:21204   */\n      mstore\n        /* \"#utility.yul\":21221:21352   */\n      tag_549\n        /* \"#utility.yul\":21347:21351   */\n      dup2\n        /* \"#utility.yul\":21221:21352   */\n      tag_299\n      jump\t// in\n    tag_549:\n        /* \"#utility.yul\":21213:21352   */\n      swap1\n      pop\n        /* \"#utility.yul\":20940:21359   */\n      swap2\n      swap1\n      pop\n      jump\t// out\n        /* \"#utility.yul\":21365:21513   */\n    tag_300:\n        /* \"#utility.yul\":21467:21478   */\n      0x00\n        /* \"#utility.yul\":21504:21507   */\n      dup2\n        /* \"#utility.yul\":21489:21507   */\n      swap1\n      pop\n        /* \"#utility.yul\":21365:21513   */\n      swap3\n      swap2\n      pop\n      pop\n      jump\t// out\n        /* \"#utility.yul\":21519:21733   */\n    tag_301:\n        /* \"#utility.yul\":21659:21725   */\n      0x19457468657265756d205369676e6564204d6573736167653a0a333200000000\n        /* \"#utility.yul\":21655:21656   */\n      0x00\n        /* \"#utility.yul\":21647:21653   */\n      dup3\n        /* \"#utility.yul\":21643:21657   */\n      add\n        /* \"#utility.yul\":21636:21726   */\n      mstore\n        /* \"#utility.yul\":21519:21733   */\n      pop\n      jump\t// out\n        /* \"#utility.yul\":21739:22141   */\n    tag_302:\n        /* \"#utility.yul\":21899:21902   */\n      0x00\n        /* \"#utility.yul\":21920:22005   */\n      tag_553\n        /* \"#utility.yul\":22002:22004   */\n      0x1c\n        /* \"#utility.yul\":21997:22000   */\n      dup4\n        /* \"#utility.yul\":21920:22005   */\n      tag_300\n      jump\t// in\n    tag_553:\n        /* \"#utility.yul\":21913:22005   */\n      swap2\n      pop\n        /* \"#utility.yul\":22014:22107   */\n      tag_554\n        /* \"#utility.yul\":22103:22106   */\n      dup3\n        /* \"#utility.yul\":22014:22107   */\n      tag_301\n      jump\t// in\n    tag_554:\n        /* \"#utility.yul\":22132:22134   */\n      0x1c\n        /* \"#utility.yul\":22127:22130   */\n      dup3\n        /* \"#utility.yul\":22123:22135   */\n      add\n        /* \"#utility.yul\":22116:22135   */\n      swap1\n      pop\n        /* \"#utility.yul\":21739:22141   */\n      swap2\n      swap1\n      pop\n      jump\t// out\n        /* \"#utility.yul\":22147:22226   */\n    tag_303:\n        /* \"#utility.yul\":22186:22193   */\n      0x00\n        /* \"#utility.yul\":22215:22220   */\n      dup2\n        /* \"#utility.yul\":22204:22220   */\n      swap1\n      pop\n        /* \"#utility.yul\":22147:22226   */\n      swap2\n      swap1\n      pop\n      jump\t// out\n        /* \"#utility.yul\":22232:22389   */\n    tag_304:\n        /* \"#utility.yul\":22337:22382   */\n      tag_557\n        /* \"#utility.yul\":22357:22381   */\n      tag_558\n        /* \"#utility.yul\":22375:22380   */\n      dup3\n        /* \"#utility.yul\":22357:22381   */\n      tag_247\n      jump\t// in\n    tag_558:\n        /* \"#utility.yul\":22337:22382   */\n      tag_303\n      jump\t// in\n    tag_557:\n        /* \"#utility.yul\":22332:22335   */\n      dup3\n        /* \"#utility.yul\":22325:22383   */\n      mstore\n        /* \"#utility.yul\":22232:22389   */\n      pop\n      pop\n      jump\t// out\n        /* \"#utility.yul\":22395:22917   */\n    tag_145:\n        /* \"#utility.yul\":22608:22611   */\n      0x00\n        /* \"#utility.yul\":22630:22778   */\n      tag_560\n        /* \"#utility.yul\":22774:22777   */\n      dup3\n        /* \"#utility.yul\":22630:22778   */\n      tag_302\n      jump\t// in\n    tag_560:\n        /* \"#utility.yul\":22623:22778   */\n      swap2\n      pop\n        /* \"#utility.yul\":22788:22863   */\n      tag_561\n        /* \"#utility.yul\":22859:22862   */\n      dup3\n        /* \"#utility.yul\":22850:22856   */\n      dup5\n        /* \"#utility.yul\":22788:22863   */\n      tag_304\n      jump\t// in\n    tag_561:\n        /* \"#utility.yul\":22888:22890   */\n      0x20\n        /* \"#utility.yul\":22883:22886   */\n      dup3\n        /* \"#utility.yul\":22879:22891   */\n      add\n        /* \"#utility.yul\":22872:22891   */\n      swap2\n      pop\n        /* \"#utility.yul\":22908:22911   */\n      dup2\n        /* \"#utility.yul\":22901:22911   */\n      swap1\n      pop\n        /* \"#utility.yul\":22395:22917   */\n      swap3\n      swap2\n      pop\n      pop\n      jump\t// out\n        /* \"#utility.yul\":22923:23017   */\n    tag_305:\n        /* \"#utility.yul\":22956:22964   */\n      0x00\n        /* \"#utility.yul\":23004:23009   */\n      dup2\n        /* \"#utility.yul\":23000:23002   */\n      0x60\n        /* \"#utility.yul\":22996:23010   */\n      shl\n        /* \"#utility.yul\":22975:23010   */\n      swap1\n      pop\n        /* \"#utility.yul\":22923:23017   */\n      swap2\n      swap1\n      pop\n      jump\t// out\n        /* \"#utility.yul\":23023:23117   */\n    tag_306:\n        /* \"#utility.yul\":23062:23069   */\n      0x00\n        /* \"#utility.yul\":23091:23111   */\n      tag_564\n        /* \"#utility.yul\":23105:23110   */\n      dup3\n        /* \"#utility.yul\":23091:23111   */\n      tag_305\n      jump\t// in\n    tag_564:\n        /* \"#utility.yul\":23080:23111   */\n      swap1\n      pop\n        /* \"#utility.yul\":23023:23117   */\n      swap2\n      swap1\n      pop\n      jump\t// out\n        /* \"#utility.yul\":23123:23223   */\n    tag_307:\n        /* \"#utility.yul\":23162:23169   */\n      0x00\n        /* \"#utility.yul\":23191:23217   */\n      tag_566\n        /* \"#utility.yul\":23211:23216   */\n      dup3\n        /* \"#utility.yul\":23191:23217   */\n      tag_306\n      jump\t// in\n    tag_566:\n        /* \"#utility.yul\":23180:23217   */\n      swap1\n      pop\n        /* \"#utility.yul\":23123:23223   */\n      swap2\n      swap1\n      pop\n      jump\t// out\n        /* \"#utility.yul\":23229:23386   */\n    tag_308:\n        /* \"#utility.yul\":23334:23379   */\n      tag_568\n        /* \"#utility.yul\":23354:23378   */\n      tag_569\n        /* \"#utility.yul\":23372:23377   */\n      dup3\n        /* \"#utility.yul\":23354:23378   */\n      tag_261\n      jump\t// in\n    tag_569:\n        /* \"#utility.yul\":23334:23379   */\n      tag_307\n      jump\t// in\n    tag_568:\n        /* \"#utility.yul\":23329:23332   */\n      dup3\n        /* \"#utility.yul\":23322:23380   */\n      mstore\n        /* \"#utility.yul\":23229:23386   */\n      pop\n      pop\n      jump\t// out\n        /* \"#utility.yul\":23392:23539   */\n    tag_309:\n        /* \"#utility.yul\":23493:23504   */\n      0x00\n        /* \"#utility.yul\":23530:23533   */\n      dup2\n        /* \"#utility.yul\":23515:23533   */\n      swap1\n      pop\n        /* \"#utility.yul\":23392:23539   */\n      swap3\n      swap2\n      pop\n      pop\n      jump\t// out\n        /* \"#utility.yul\":23567:23894   */\n    tag_310:\n        /* \"#utility.yul\":23681:23684   */\n      0x00\n        /* \"#utility.yul\":23702:23790   */\n      tag_572\n        /* \"#utility.yul\":23783:23789   */\n      dup4\n        /* \"#utility.yul\":23778:23781   */\n      dup6\n        /* \"#utility.yul\":23702:23790   */\n      tag_309\n      jump\t// in\n    tag_572:\n        /* \"#utility.yul\":23695:23790   */\n      swap4\n      pop\n        /* \"#utility.yul\":23800:23856   */\n      tag_573\n        /* \"#utility.yul\":23849:23855   */\n      dup4\n        /* \"#utility.yul\":23844:23847   */\n      dup6\n        /* \"#utility.yul\":23837:23842   */\n      dup5\n        /* \"#utility.yul\":23800:23856   */\n      tag_257\n      jump\t// in\n    tag_573:\n        /* \"#utility.yul\":23881:23887   */\n      dup3\n        /* \"#utility.yul\":23876:23879   */\n      dup5\n        /* \"#utility.yul\":23872:23888   */\n      add\n        /* \"#utility.yul\":23865:23888   */\n      swap1\n      pop\n        /* \"#utility.yul\":23567:23894   */\n      swap4\n      swap3\n      pop\n      pop\n      pop\n      jump\t// out\n        /* \"#utility.yul\":23900:23979   */\n    tag_311:\n        /* \"#utility.yul\":23939:23946   */\n      0x00\n        /* \"#utility.yul\":23968:23973   */\n      dup2\n        /* \"#utility.yul\":23957:23973   */\n      swap1\n      pop\n        /* \"#utility.yul\":23900:23979   */\n      swap2\n      swap1\n      pop\n      jump\t// out\n        /* \"#utility.yul\":23985:24142   */\n    tag_312:\n        /* \"#utility.yul\":24090:24135   */\n      tag_576\n        /* \"#utility.yul\":24110:24134   */\n      tag_577\n        /* \"#utility.yul\":24128:24133   */\n      dup3\n        /* \"#utility.yul\":24110:24134   */\n      tag_263\n      jump\t// in\n    tag_577:\n        /* \"#utility.yul\":24090:24135   */\n      tag_311\n      jump\t// in\n    tag_576:\n        /* \"#utility.yul\":24085:24088   */\n      dup3\n        /* \"#utility.yul\":24078:24136   */\n      mstore\n        /* \"#utility.yul\":23985:24142   */\n      pop\n      pop\n      jump\t// out\n        /* \"#utility.yul\":24148:24721   */\n    tag_151:\n        /* \"#utility.yul\":24344:24347   */\n      0x00\n        /* \"#utility.yul\":24359:24434   */\n      tag_579\n        /* \"#utility.yul\":24430:24433   */\n      dup3\n        /* \"#utility.yul\":24421:24427   */\n      dup8\n        /* \"#utility.yul\":24359:24434   */\n      tag_308\n      jump\t// in\n    tag_579:\n        /* \"#utility.yul\":24459:24461   */\n      0x14\n        /* \"#utility.yul\":24454:24457   */\n      dup3\n        /* \"#utility.yul\":24450:24462   */\n      add\n        /* \"#utility.yul\":24443:24462   */\n      swap2\n      pop\n        /* \"#utility.yul\":24479:24582   */\n      tag_580\n        /* \"#utility.yul\":24578:24581   */\n      dup3\n        /* \"#utility.yul\":24569:24575   */\n      dup6\n        /* \"#utility.yul\":24561:24567   */\n      dup8\n        /* \"#utility.yul\":24479:24582   */\n      tag_310\n      jump\t// in\n    tag_580:\n        /* \"#utility.yul\":24472:24582   */\n      swap2\n      pop\n        /* \"#utility.yul\":24592:24667   */\n      tag_581\n        /* \"#utility.yul\":24663:24666   */\n      dup3\n        /* \"#utility.yul\":24654:24660   */\n      dup5\n        /* \"#utility.yul\":24592:24667   */\n      tag_312\n      jump\t// in\n    tag_581:\n        /* \"#utility.yul\":24692:24694   */\n      0x20\n        /* \"#utility.yul\":24687:24690   */\n      dup3\n        /* \"#utility.yul\":24683:24695   */\n      add\n        /* \"#utility.yul\":24676:24695   */\n      swap2\n      pop\n        /* \"#utility.yul\":24712:24715   */\n      dup2\n        /* \"#utility.yul\":24705:24715   */\n      swap1\n      pop\n        /* \"#utility.yul\":24148:24721   */\n      swap6\n      swap5\n      pop\n      pop\n      pop\n      pop\n      pop\n      jump\t// out\n        /* \"#utility.yul\":24727:24948   */\n    tag_313:\n        /* \"#utility.yul\":24867:24901   */\n      0x45434453413a20696e76616c6964207369676e6174757265202773272076616c\n        /* \"#utility.yul\":24863:24864   */\n      0x00\n        /* \"#utility.yul\":24855:24861   */\n      dup3\n        /* \"#utility.yul\":24851:24865   */\n      add\n        /* \"#utility.yul\":24844:24902   */\n      mstore\n        /* \"#utility.yul\":24936:24940   */\n      0x7565000000000000000000000000000000000000000000000000000000000000\n        /* \"#utility.yul\":24931:24933   */\n      0x20\n        /* \"#utility.yul\":24923:24929   */\n      dup3\n        /* \"#utility.yul\":24919:24934   */\n      add\n        /* \"#utility.yul\":24912:24941   */\n      mstore\n        /* \"#utility.yul\":24727:24948   */\n      pop\n      jump\t// out\n        /* \"#utility.yul\":24954:25320   */\n    tag_314:\n        /* \"#utility.yul\":25096:25099   */\n      0x00\n        /* \"#utility.yul\":25117:25184   */\n      tag_584\n        /* \"#utility.yul\":25181:25183   */\n      0x22\n        /* \"#utility.yul\":25176:25179   */\n      dup4\n        /* \"#utility.yul\":25117:25184   */\n      tag_284\n      jump\t// in\n    tag_584:\n        /* \"#utility.yul\":25110:25184   */\n      swap2\n      pop\n        /* \"#utility.yul\":25193:25286   */\n      tag_585\n        /* \"#utility.yul\":25282:25285   */\n      dup3\n        /* \"#utility.yul\":25193:25286   */\n      tag_313\n      jump\t// in\n    tag_585:\n        /* \"#utility.yul\":25311:25313   */\n      0x40\n        /* \"#utility.yul\":25306:25309   */\n      dup3\n        /* \"#utility.yul\":25302:25314   */\n      add\n        /* \"#utility.yul\":25295:25314   */\n      swap1\n      pop\n        /* \"#utility.yul\":24954:25320   */\n      swap2\n      swap1\n      pop\n      jump\t// out\n        /* \"#utility.yul\":25326:25745   */\n    tag_155:\n        /* \"#utility.yul\":25492:25496   */\n      0x00\n        /* \"#utility.yul\":25530:25532   */\n      0x20\n        /* \"#utility.yul\":25519:25528   */\n      dup3\n        /* \"#utility.yul\":25515:25533   */\n      add\n        /* \"#utility.yul\":25507:25533   */\n      swap1\n      pop\n        /* \"#utility.yul\":25579:25588   */\n      dup2\n        /* \"#utility.yul\":25573:25577   */\n      dup2\n        /* \"#utility.yul\":25569:25589   */\n      sub\n        /* \"#utility.yul\":25565:25566   */\n      0x00\n        /* \"#utility.yul\":25554:25563   */\n      dup4\n        /* \"#utility.yul\":25550:25567   */\n      add\n        /* \"#utility.yul\":25543:25590   */\n      mstore\n        /* \"#utility.yul\":25607:25738   */\n      tag_587\n        /* \"#utility.yul\":25733:25737   */\n      dup2\n        /* \"#utility.yul\":25607:25738   */\n      tag_314\n      jump\t// in\n    tag_587:\n        /* \"#utility.yul\":25599:25738   */\n      swap1\n      pop\n        /* \"#utility.yul\":25326:25745   */\n      swap2\n      swap1\n      pop\n      jump\t// out\n        /* \"#utility.yul\":25751:25972   */\n    tag_315:\n        /* \"#utility.yul\":25891:25925   */\n      0x45434453413a20696e76616c6964207369676e6174757265202776272076616c\n        /* \"#utility.yul\":25887:25888   */\n      0x00\n        /* \"#utility.yul\":25879:25885   */\n      dup3\n        /* \"#utility.yul\":25875:25889   */\n      add\n        /* \"#utility.yul\":25868:25926   */\n      mstore\n        /* \"#utility.yul\":25960:25964   */\n      0x7565000000000000000000000000000000000000000000000000000000000000\n        /* \"#utility.yul\":25955:25957   */\n      0x20\n        /* \"#utility.yul\":25947:25953   */\n      dup3\n        /* \"#utility.yul\":25943:25958   */\n      add\n        /* \"#utility.yul\":25936:25965   */\n      mstore\n        /* \"#utility.yul\":25751:25972   */\n      pop\n      jump\t// out\n        /* \"#utility.yul\":25978:26344   */\n    tag_316:\n        /* \"#utility.yul\":26120:26123   */\n      0x00\n        /* \"#utility.yul\":26141:26208   */\n      tag_590\n        /* \"#utility.yul\":26205:26207   */\n      0x22\n        /* \"#utility.yul\":26200:26203   */\n      dup4\n        /* \"#utility.yul\":26141:26208   */\n      tag_284\n      jump\t// in\n    tag_590:\n        /* \"#utility.yul\":26134:26208   */\n      swap2\n      pop\n        /* \"#utility.yul\":26217:26310   */\n      tag_591\n        /* \"#utility.yul\":26306:26309   */\n      dup3\n        /* \"#utility.yul\":26217:26310   */\n      tag_315\n      jump\t// in\n    tag_591:\n        /* \"#utility.yul\":26335:26337   */\n      0x40\n        /* \"#utility.yul\":26330:26333   */\n      dup3\n        /* \"#utility.yul\":26326:26338   */\n      add\n        /* \"#utility.yul\":26319:26338   */\n      swap1\n      pop\n        /* \"#utility.yul\":25978:26344   */\n      swap2\n      swap1\n      pop\n      jump\t// out\n        /* \"#utility.yul\":26350:26769   */\n    tag_159:\n        /* \"#utility.yul\":26516:26520   */\n      0x00\n        /* \"#utility.yul\":26554:26556   */\n      0x20\n        /* \"#utility.yul\":26543:26552   */\n      dup3\n        /* \"#utility.yul\":26539:26557   */\n      add\n        /* \"#utility.yul\":26531:26557   */\n      swap1\n      pop\n        /* \"#utility.yul\":26603:26612   */\n      dup2\n        /* \"#utility.yul\":26597:26601   */\n      dup2\n        /* \"#utility.yul\":26593:26613   */\n      sub\n        /* \"#utility.yul\":26589:26590   */\n      0x00\n        /* \"#utility.yul\":26578:26587   */\n      dup4\n        /* \"#utility.yul\":26574:26591   */\n      add\n        /* \"#utility.yul\":26567:26614   */\n      mstore\n        /* \"#utility.yul\":26631:26762   */\n      tag_593\n        /* \"#utility.yul\":26757:26761   */\n      dup2\n        /* \"#utility.yul\":26631:26762   */\n      tag_316\n      jump\t// in\n    tag_593:\n        /* \"#utility.yul\":26623:26762   */\n      swap1\n      pop\n        /* \"#utility.yul\":26350:26769   */\n      swap2\n      swap1\n      pop\n      jump\t// out\n        /* \"#utility.yul\":26775:26861   */\n    tag_317:\n        /* \"#utility.yul\":26810:26817   */\n      0x00\n        /* \"#utility.yul\":26850:26854   */\n      0xff\n        /* \"#utility.yul\":26843:26848   */\n      dup3\n        /* \"#utility.yul\":26839:26855   */\n      and\n        /* \"#utility.yul\":26828:26855   */\n      swap1\n      pop\n        /* \"#utility.yul\":26775:26861   */\n      swap2\n      swap1\n      pop\n      jump\t// out\n        /* \"#utility.yul\":26867:26979   */\n    tag_318:\n        /* \"#utility.yul\":26950:26972   */\n      tag_596\n        /* \"#utility.yul\":26966:26971   */\n      dup2\n        /* \"#utility.yul\":26950:26972   */\n      tag_317\n      jump\t// in\n    tag_596:\n        /* \"#utility.yul\":26945:26948   */\n      dup3\n        /* \"#utility.yul\":26938:26973   */\n      mstore\n        /* \"#utility.yul\":26867:26979   */\n      pop\n      pop\n      jump\t// out\n        /* \"#utility.yul\":26985:27530   */\n    tag_161:\n        /* \"#utility.yul\":27158:27162   */\n      0x00\n        /* \"#utility.yul\":27196:27199   */\n      0x80\n        /* \"#utility.yul\":27185:27194   */\n      dup3\n        /* \"#utility.yul\":27181:27200   */\n      add\n        /* \"#utility.yul\":27173:27200   */\n      swap1\n      pop\n        /* \"#utility.yul\":27210:27281   */\n      tag_598\n        /* \"#utility.yul\":27278:27279   */\n      0x00\n        /* \"#utility.yul\":27267:27276   */\n      dup4\n        /* \"#utility.yul\":27263:27280   */\n      add\n        /* \"#utility.yul\":27254:27260   */\n      dup8\n        /* \"#utility.yul\":27210:27281   */\n      tag_267\n      jump\t// in\n    tag_598:\n        /* \"#utility.yul\":27291:27359   */\n      tag_599\n        /* \"#utility.yul\":27355:27357   */\n      0x20\n        /* \"#utility.yul\":27344:27353   */\n      dup4\n        /* \"#utility.yul\":27340:27358   */\n      add\n        /* \"#utility.yul\":27331:27337   */\n      dup7\n        /* \"#utility.yul\":27291:27359   */\n      tag_318\n      jump\t// in\n    tag_599:\n        /* \"#utility.yul\":27369:27441   */\n      tag_600\n        /* \"#utility.yul\":27437:27439   */\n      0x40\n        /* \"#utility.yul\":27426:27435   */\n      dup4\n        /* \"#utility.yul\":27422:27440   */\n      add\n        /* \"#utility.yul\":27413:27419   */\n      dup6\n        /* \"#utility.yul\":27369:27441   */\n      tag_267\n      jump\t// in\n    tag_600:\n        /* \"#utility.yul\":27451:27523   */\n      tag_601\n        /* \"#utility.yul\":27519:27521   */\n      0x60\n        /* \"#utility.yul\":27508:27517   */\n      dup4\n        /* \"#utility.yul\":27504:27522   */\n      add\n        /* \"#utility.yul\":27495:27501   */\n      dup5\n        /* \"#utility.yul\":27451:27523   */\n      tag_267\n      jump\t// in\n    tag_601:\n        /* \"#utility.yul\":26985:27530   */\n      swap6\n      swap5\n      pop\n      pop\n      pop\n      pop\n      pop\n      jump\t// out\n        /* \"#utility.yul\":27536:27710   */\n    tag_319:\n        /* \"#utility.yul\":27676:27702   */\n      0x45434453413a20696e76616c6964207369676e61747572650000000000000000\n        /* \"#utility.yul\":27672:27673   */\n      0x00\n        /* \"#utility.yul\":27664:27670   */\n      dup3\n        /* \"#utility.yul\":27660:27674   */\n      add\n        /* \"#utility.yul\":27653:27703   */\n      mstore\n        /* \"#utility.yul\":27536:27710   */\n      pop\n      jump\t// out\n        /* \"#utility.yul\":27716:28082   */\n    tag_320:\n        /* \"#utility.yul\":27858:27861   */\n      0x00\n        /* \"#utility.yul\":27879:27946   */\n      tag_604\n        /* \"#utility.yul\":27943:27945   */\n      0x18\n        /* \"#utility.yul\":27938:27941   */\n      dup4\n        /* \"#utility.yul\":27879:27946   */\n      tag_284\n      jump\t// in\n    tag_604:\n        /* \"#utility.yul\":27872:27946   */\n      swap2\n      pop\n        /* \"#utility.yul\":27955:28048   */\n      tag_605\n        /* \"#utility.yul\":28044:28047   */\n      dup3\n        /* \"#utility.yul\":27955:28048   */\n      tag_319\n      jump\t// in\n    tag_605:\n        /* \"#utility.yul\":28073:28075   */\n      0x20\n        /* \"#utility.yul\":28068:28071   */\n      dup3\n        /* \"#utility.yul\":28064:28076   */\n      add\n        /* \"#utility.yul\":28057:28076   */\n      swap1\n      pop\n        /* \"#utility.yul\":27716:28082   */\n      swap2\n      swap1\n      pop\n      jump\t// out\n        /* \"#utility.yul\":28088:28507   */\n    tag_166:\n        /* \"#utility.yul\":28254:28258   */\n      0x00\n        /* \"#utility.yul\":28292:28294   */\n      0x20\n        /* \"#utility.yul\":28281:28290   */\n      dup3\n        /* \"#utility.yul\":28277:28295   */\n      add\n        /* \"#utility.yul\":28269:28295   */\n      swap1\n      pop\n        /* \"#utility.yul\":28341:28350   */\n      dup2\n        /* \"#utility.yul\":28335:28339   */\n      dup2\n        /* \"#utility.yul\":28331:28351   */\n      sub\n        /* \"#utility.yul\":28327:28328   */\n      0x00\n        /* \"#utility.yul\":28316:28325   */\n      dup4\n        /* \"#utility.yul\":28312:28329   */\n      add\n        /* \"#utility.yul\":28305:28352   */\n      mstore\n        /* \"#utility.yul\":28369:28500   */\n      tag_607\n        /* \"#utility.yul\":28495:28499   */\n      dup2\n        /* \"#utility.yul\":28369:28500   */\n      tag_320\n      jump\t// in\n    tag_607:\n        /* \"#utility.yul\":28361:28500   */\n      swap1\n      pop\n        /* \"#utility.yul\":28088:28507   */\n      swap2\n      swap1\n      pop\n      jump\t// out\n        /* \"#utility.yul\":28513:28656   */\n    tag_321:\n        /* \"#utility.yul\":28570:28575   */\n      0x00\n        /* \"#utility.yul\":28601:28607   */\n      dup2\n        /* \"#utility.yul\":28595:28608   */\n      mload\n        /* \"#utility.yul\":28586:28608   */\n      swap1\n      pop\n        /* \"#utility.yul\":28617:28650   */\n      tag_609\n        /* \"#utility.yul\":28644:28649   */\n      dup2\n        /* \"#utility.yul\":28617:28650   */\n      tag_248\n      jump\t// in\n    tag_609:\n        /* \"#utility.yul\":28513:28656   */\n      swap3\n      swap2\n      pop\n      pop\n      jump\t// out\n        /* \"#utility.yul\":28662:29013   */\n    tag_176:\n        /* \"#utility.yul\":28732:28738   */\n      0x00\n        /* \"#utility.yul\":28781:28783   */\n      0x20\n        /* \"#utility.yul\":28769:28778   */\n      dup3\n        /* \"#utility.yul\":28760:28767   */\n      dup5\n        /* \"#utility.yul\":28756:28779   */\n      sub\n        /* \"#utility.yul\":28752:28784   */\n      slt\n        /* \"#utility.yul\":28749:28868   */\n      iszero\n      tag_611\n      jumpi\n        /* \"#utility.yul\":28787:28866   */\n      tag_612\n      tag_245\n      jump\t// in\n    tag_612:\n        /* \"#utility.yul\":28749:28868   */\n    tag_611:\n        /* \"#utility.yul\":28907:28908   */\n      0x00\n        /* \"#utility.yul\":28932:28996   */\n      tag_613\n        /* \"#utility.yul\":28988:28995   */\n      dup5\n        /* \"#utility.yul\":28979:28985   */\n      dup3\n        /* \"#utility.yul\":28968:28977   */\n      dup6\n        /* \"#utility.yul\":28964:28986   */\n      add\n        /* \"#utility.yul\":28932:28996   */\n      tag_321\n      jump\t// in\n    tag_613:\n        /* \"#utility.yul\":28922:28996   */\n      swap2\n      pop\n        /* \"#utility.yul\":28878:29006   */\n      pop\n        /* \"#utility.yul\":28662:29013   */\n      swap3\n      swap2\n      pop\n      pop\n      jump\t// out\n        /* \"#utility.yul\":29019:29310   */\n    tag_192:\n        /* \"#utility.yul\":29159:29162   */\n      0x00\n        /* \"#utility.yul\":29181:29284   */\n      tag_615\n        /* \"#utility.yul\":29280:29283   */\n      dup3\n        /* \"#utility.yul\":29271:29277   */\n      dup5\n        /* \"#utility.yul\":29263:29269   */\n      dup7\n        /* \"#utility.yul\":29181:29284   */\n      tag_310\n      jump\t// in\n    tag_615:\n        /* \"#utility.yul\":29174:29284   */\n      swap2\n      pop\n        /* \"#utility.yul\":29301:29304   */\n      dup2\n        /* \"#utility.yul\":29294:29304   */\n      swap1\n      pop\n        /* \"#utility.yul\":29019:29310   */\n      swap4\n      swap3\n      pop\n      pop\n      pop\n      jump\t// out\n        /* \"#utility.yul\":29316:29482   */\n    tag_322:\n        /* \"#utility.yul\":29456:29474   */\n      0x457865637574696f6e204661696c656400000000000000000000000000000000\n        /* \"#utility.yul\":29452:29453   */\n      0x00\n        /* \"#utility.yul\":29444:29450   */\n      dup3\n        /* \"#utility.yul\":29440:29454   */\n      add\n        /* \"#utility.yul\":29433:29475   */\n      mstore\n        /* \"#utility.yul\":29316:29482   */\n      pop\n      jump\t// out\n        /* \"#utility.yul\":29488:29854   */\n    tag_323:\n        /* \"#utility.yul\":29630:29633   */\n      0x00\n        /* \"#utility.yul\":29651:29718   */\n      tag_618\n        /* \"#utility.yul\":29715:29717   */\n      0x10\n        /* \"#utility.yul\":29710:29713   */\n      dup4\n        /* \"#utility.yul\":29651:29718   */\n      tag_284\n      jump\t// in\n    tag_618:\n        /* \"#utility.yul\":29644:29718   */\n      swap2\n      pop\n        /* \"#utility.yul\":29727:29820   */\n      tag_619\n        /* \"#utility.yul\":29816:29819   */\n      dup3\n        /* \"#utility.yul\":29727:29820   */\n      tag_322\n      jump\t// in\n    tag_619:\n        /* \"#utility.yul\":29845:29847   */\n      0x20\n        /* \"#utility.yul\":29840:29843   */\n      dup3\n        /* \"#utility.yul\":29836:29848   */\n      add\n        /* \"#utility.yul\":29829:29848   */\n      swap1\n      pop\n        /* \"#utility.yul\":29488:29854   */\n      swap2\n      swap1\n      pop\n      jump\t// out\n        /* \"#utility.yul\":29860:30279   */\n    tag_198:\n        /* \"#utility.yul\":30026:30030   */\n      0x00\n        /* \"#utility.yul\":30064:30066   */\n      0x20\n        /* \"#utility.yul\":30053:30062   */\n      dup3\n        /* \"#utility.yul\":30049:30067   */\n      add\n        /* \"#utility.yul\":30041:30067   */\n      swap1\n      pop\n        /* \"#utility.yul\":30113:30122   */\n      dup2\n        /* \"#utility.yul\":30107:30111   */\n      dup2\n        /* \"#utility.yul\":30103:30123   */\n      sub\n        /* \"#utility.yul\":30099:30100   */\n      0x00\n        /* \"#utility.yul\":30088:30097   */\n      dup4\n        /* \"#utility.yul\":30084:30101   */\n      add\n        /* \"#utility.yul\":30077:30124   */\n      mstore\n        /* \"#utility.yul\":30141:30272   */\n      tag_621\n        /* \"#utility.yul\":30267:30271   */\n      dup2\n        /* \"#utility.yul\":30141:30272   */\n      tag_323\n      jump\t// in\n    tag_621:\n        /* \"#utility.yul\":30133:30272   */\n      swap1\n      pop\n        /* \"#utility.yul\":29860:30279   */\n      swap2\n      swap1\n      pop\n      jump\t// out\n        /* \"#utility.yul\":30285:30383   */\n    tag_324:\n        /* \"#utility.yul\":30336:30342   */\n      0x00\n        /* \"#utility.yul\":30370:30375   */\n      dup2\n        /* \"#utility.yul\":30364:30376   */\n      mload\n        /* \"#utility.yul\":30354:30376   */\n      swap1\n      pop\n        /* \"#utility.yul\":30285:30383   */\n      swap2\n      swap1\n      pop\n      jump\t// out\n        /* \"#utility.yul\":30389:30775   */\n    tag_325:\n        /* \"#utility.yul\":30493:30496   */\n      0x00\n        /* \"#utility.yul\":30521:30559   */\n      tag_624\n        /* \"#utility.yul\":30553:30558   */\n      dup3\n        /* \"#utility.yul\":30521:30559   */\n      tag_324\n      jump\t// in\n    tag_624:\n        /* \"#utility.yul\":30575:30663   */\n      tag_625\n        /* \"#utility.yul\":30656:30662   */\n      dup2\n        /* \"#utility.yul\":30651:30654   */\n      dup6\n        /* \"#utility.yul\":30575:30663   */\n      tag_309\n      jump\t// in\n    tag_625:\n        /* \"#utility.yul\":30568:30663   */\n      swap4\n      pop\n        /* \"#utility.yul\":30672:30737   */\n      tag_626\n        /* \"#utility.yul\":30730:30736   */\n      dup2\n        /* \"#utility.yul\":30725:30728   */\n      dup6\n        /* \"#utility.yul\":30718:30722   */\n      0x20\n        /* \"#utility.yul\":30711:30716   */\n      dup7\n        /* \"#utility.yul\":30707:30723   */\n      add\n        /* \"#utility.yul\":30672:30737   */\n      tag_285\n      jump\t// in\n    tag_626:\n        /* \"#utility.yul\":30762:30768   */\n      dup1\n        /* \"#utility.yul\":30757:30760   */\n      dup5\n        /* \"#utility.yul\":30753:30769   */\n      add\n        /* \"#utility.yul\":30746:30769   */\n      swap2\n      pop\n        /* \"#utility.yul\":30497:30775   */\n      pop\n        /* \"#utility.yul\":30389:30775   */\n      swap3\n      swap2\n      pop\n      pop\n      jump\t// out\n        /* \"#utility.yul\":30781:31052   */\n    tag_218:\n        /* \"#utility.yul\":30911:30914   */\n      0x00\n        /* \"#utility.yul\":30933:31026   */\n      tag_628\n        /* \"#utility.yul\":31022:31025   */\n      dup3\n        /* \"#utility.yul\":31013:31019   */\n      dup5\n        /* \"#utility.yul\":30933:31026   */\n      tag_325\n      jump\t// in\n    tag_628:\n        /* \"#utility.yul\":30926:31026   */\n      swap2\n      pop\n        /* \"#utility.yul\":31043:31046   */\n      dup2\n        /* \"#utility.yul\":31036:31046   */\n      swap1\n      pop\n        /* \"#utility.yul\":30781:31052   */\n      swap3\n      swap2\n      pop\n      pop\n      jump\t// out\n\n    auxdata: 0xa2646970667358221220814160dd865e92c1bb46f5ba744d49c380c659cc8d2d045c25e4a95b1ab449e564736f6c634300081a0033\n}\n",
				"bytecode": {
					"linkReferences": {},
					"object": "60a06040523073ffffffffffffffffffffffffffffffffffffffff1660809073ffffffffffffffffffffffffffffffffffffffff168152503480156041575f80fd5b506080516121566100685f395f8181610ab301528181610b080152610cba01526121565ff3fe60806040526004361061009f575f3560e01c806360b5bb3f1161006357806360b5bb3f1461019257806372a26031146101ba578063918a15cf146101e257806394cf795e1461021e578063ad3cb1cc14610248578063ee9a455014610272576100a6565b806319045a25146100aa57806324951ba1146100e65780634f1ef2861461011057806352d1902d1461012c5780635c37410b14610156576100a6565b366100a657005b5f80fd5b3480156100b5575f80fd5b506100d060048036038101906100cb919061135c565b6102ae565b6040516100dd91906113f5565b60405180910390f35b3480156100f1575f80fd5b506100fa610373565b6040516101079190611426565b60405180910390f35b61012a60048036038101906101259190611469565b61037b565b005b348015610137575f80fd5b5061014061039a565b60405161014d91906114d2565b60405180910390f35b348015610161575f80fd5b5061017c60048036038101906101779190611572565b6103cb565b6040516101899190611426565b60405180910390f35b34801561019d575f80fd5b506101b860048036038101906101b391906116d5565b6104c3565b005b3480156101c5575f80fd5b506101e060048036038101906101db919061172f565b61071b565b005b3480156101ed575f80fd5b50610208600480360381019061020391906117d2565b610803565b60405161021591906114d2565b60405180910390f35b348015610229575f80fd5b50610232610832565b60405161023f91906118b4565b60405180910390f35b348015610253575f80fd5b5061025c6108bd565b6040516102699190611934565b60405180910390f35b34801561027d575f80fd5b5061029860048036038101906102939190611954565b6108f6565b6040516102a591906114d2565b60405180910390f35b5f805f8060418551036102d757602085015192506040850151915060608501515f1a905061035c565b6040855103610320576040850151602086015193507f7fffffffffffffffffffffffffffffffffffffffffffffffffffffffffffffff81169250601b8160ff1c0191505061035b565b6040517f08c379a000000000000000000000000000000000000000000000000000000000815260040161035290611a0f565b60405180910390fd5b5b6103688682858561092e565b935050505092915050565b5f8054905090565b610383610ab1565b61038c82610b97565b6103968282610b9a565b5050565b5f6103a3610cb8565b7f360894a13ba1a3210667c828492db98dca3e2076cc3735a920a3ca505d382bbc5f1b905090565b5f806103d9848787866108f6565b90505f6103e582610803565b90505f89898101906103f79190611b0b565b90505f805f90505b825181101561049b575f61042d858584815181106104205761041f611b52565b5b60200260200101516102ae565b905060025f8273ffffffffffffffffffffffffffffffffffffffff1673ffffffffffffffffffffffffffffffffffffffff1681526020019081526020015f205f9054906101000a900460ff161561048d57828061048990611bac565b9350505b5080806001019150506103ff565b505f5481106104b0575f9450505050506104b9565b60019450505050505b9695505050505050565b5f6104cc610d3f565b90505f815f0160089054906101000a900460ff161590505f825f015f9054906101000a900467ffffffffffffffff1690505f808267ffffffffffffffff161480156105145750825b90505f60018367ffffffffffffffff1614801561054757505f3073ffffffffffffffffffffffffffffffffffffffff163b145b905081158015610555575080155b1561058c576040517ff92ee8a900000000000000000000000000000000000000000000000000000000815260040160405180910390fd5b6001855f015f6101000a81548167ffffffffffffffff021916908367ffffffffffffffff16021790555083156105d9576001855f0160086101000a81548160ff0219169083151502179055505b5f875103610613576040517f30399c7700000000000000000000000000000000000000000000000000000000815260040160405180910390fd5b866001908051906020019061062992919061113a565b505f5b87518110156106b157600160025f8a848151811061064d5761064c611b52565b5b602002602001015173ffffffffffffffffffffffffffffffffffffffff1673ffffffffffffffffffffffffffffffffffffffff1681526020019081526020015f205f6101000a81548160ff021916908315150217905550808060010191505061062c565b50855f819055508315610712575f855f0160086101000a81548160ff0219169083151502179055507fc7f505b2f371ae2175ee4913f4499e1f2633a7b5936321eed1cdaeb6115181d260016040516107099190611c48565b60405180910390a15b50505050505050565b5f151560025f3373ffffffffffffffffffffffffffffffffffffffff1673ffffffffffffffffffffffffffffffffffffffff1681526020019081526020015f205f9054906101000a900460ff161515036107a1576040517f6ee9bcf200000000000000000000000000000000000000000000000000000000815260040160405180910390fd5b5f6107b0848488888b876103cb565b146107f0576040517f08c379a00000000000000000000000000000000000000000000000000000000081526004016107e790611cab565b60405180910390fd5b6107fb868686610d66565b505050505050565b5f816040516020016108159190611d3d565b604051602081830303815290604052805190602001209050919050565b606060018054806020026020016040519081016040528092919081815260200182805480156108b357602002820191905f5260205f20905b815f9054906101000a900473ffffffffffffffffffffffffffffffffffffffff1673ffffffffffffffffffffffffffffffffffffffff168152602001906001019080831161086a575b5050505050905090565b6040518060400160405280600581526020017f352e302e3000000000000000000000000000000000000000000000000000000081525081565b5f8484848460405160200161090e9493929190611df5565b604051602081830303815290604052805190602001209050949350505050565b5f7f7fffffffffffffffffffffffffffffff5d576e7357a4501ddfe92f46681b20a0825f1c1115610994576040517f08c379a000000000000000000000000000000000000000000000000000000000815260040161098b90611e9f565b60405180910390fd5b601b8460ff1614806109a95750601c8460ff16145b6109e8576040517f08c379a00000000000000000000000000000000000000000000000000000000081526004016109df90611f2d565b60405180910390fd5b5f6001868686866040515f8152602001604052604051610a0b9493929190611f66565b6020604051602081039080840390855afa158015610a2b573d5f803e3d5ffd5b5050506020604051035190505f73ffffffffffffffffffffffffffffffffffffffff168173ffffffffffffffffffffffffffffffffffffffff1603610aa5576040517f08c379a0000000000000000000000000000000000000000000000000000000008152600401610a9c90611ff3565b60405180910390fd5b80915050949350505050565b7f000000000000000000000000000000000000000000000000000000000000000073ffffffffffffffffffffffffffffffffffffffff163073ffffffffffffffffffffffffffffffffffffffff161480610b5e57507f000000000000000000000000000000000000000000000000000000000000000073ffffffffffffffffffffffffffffffffffffffff16610b45610e16565b73ffffffffffffffffffffffffffffffffffffffff1614155b15610b95576040517fe07c8dba00000000000000000000000000000000000000000000000000000000815260040160405180910390fd5b565b50565b8173ffffffffffffffffffffffffffffffffffffffff166352d1902d6040518163ffffffff1660e01b8152600401602060405180830381865afa925050508015610c0257506040513d601f19601f82011682018060405250810190610bff9190612025565b60015b610c4357816040517f4c9c8ce3000000000000000000000000000000000000000000000000000000008152600401610c3a91906113f5565b60405180910390fd5b7f360894a13ba1a3210667c828492db98dca3e2076cc3735a920a3ca505d382bbc5f1b8114610ca957806040517faa1d49a4000000000000000000000000000000000000000000000000000000008152600401610ca091906114d2565b60405180910390fd5b610cb38383610e69565b505050565b7f000000000000000000000000000000000000000000000000000000000000000073ffffffffffffffffffffffffffffffffffffffff163073ffffffffffffffffffffffffffffffffffffffff1614610d3d576040517fe07c8dba00000000000000000000000000000000000000000000000000000000815260040160405180910390fd5b565b5f7ff0c57e16840df040f15088dc2f81fe391c3923bec73e23a9662efc9c229c6a00905090565b5f8373ffffffffffffffffffffffffffffffffffffffff168383604051610d8e929190612050565b5f604051808303815f865af19150503d805f8114610dc7576040519150601f19603f3d011682016040523d82523d5f602084013e610dcc565b606091505b5050905080610e10576040517f08c379a0000000000000000000000000000000000000000000000000000000008152600401610e07906120b2565b60405180910390fd5b50505050565b5f610e427f360894a13ba1a3210667c828492db98dca3e2076cc3735a920a3ca505d382bbc5f1b610edb565b5f015f9054906101000a900473ffffffffffffffffffffffffffffffffffffffff16905090565b610e7282610ee4565b8173ffffffffffffffffffffffffffffffffffffffff167fbc7cd75a20ee27fd9adebab32041f755214dbc6bffa90cc0225b39da2e5c2d3b60405160405180910390a25f81511115610ece57610ec88282610fad565b50610ed7565b610ed661102d565b5b5050565b5f819050919050565b5f8173ffffffffffffffffffffffffffffffffffffffff163b03610f3f57806040517f4c9c8ce3000000000000000000000000000000000000000000000000000000008152600401610f3691906113f5565b60405180910390fd5b80610f6b7f360894a13ba1a3210667c828492db98dca3e2076cc3735a920a3ca505d382bbc5f1b610edb565b5f015f6101000a81548173ffffffffffffffffffffffffffffffffffffffff021916908373ffffffffffffffffffffffffffffffffffffffff16021790555050565b60605f808473ffffffffffffffffffffffffffffffffffffffff1684604051610fd6919061210a565b5f60405180830381855af49150503d805f811461100e576040519150601f19603f3d011682016040523d82523d5f602084013e611013565b606091505b5091509150611023858383611069565b9250505092915050565b5f341115611067576040517fb398979f00000000000000000000000000000000000000000000000000000000815260040160405180910390fd5b565b60608261107e57611079826110f6565b6110ee565b5f82511480156110a457505f8473ffffffffffffffffffffffffffffffffffffffff163b145b156110e657836040517f9996b3150000000000000000000000000000000000000000000000000000000081526004016110dd91906113f5565b60405180910390fd5b8190506110ef565b5b9392505050565b5f815111156111085780518082602001fd5b6040517f1425ea4200000000000000000000000000000000000000000000000000000000815260040160405180910390fd5b828054828255905f5260205f209081019282156111b0579160200282015b828111156111af578251825f6101000a81548173ffffffffffffffffffffffffffffffffffffffff021916908373ffffffffffffffffffffffffffffffffffffffff16021790555091602001919060010190611158565b5b5090506111bd91906111c1565b5090565b5b808211156111d8575f815f9055506001016111c2565b5090565b5f604051905090565b5f80fd5b5f80fd5b5f819050919050565b6111ff816111ed565b8114611209575f80fd5b50565b5f8135905061121a816111f6565b92915050565b5f80fd5b5f80fd5b5f601f19601f8301169050919050565b7f4e487b71000000000000000000000000000000000000000000000000000000005f52604160045260245ffd5b61126e82611228565b810181811067ffffffffffffffff8211171561128d5761128c611238565b5b80604052505050565b5f61129f6111dc565b90506112ab8282611265565b919050565b5f67ffffffffffffffff8211156112ca576112c9611238565b5b6112d382611228565b9050602081019050919050565b828183375f83830152505050565b5f6113006112fb846112b0565b611296565b90508281526020810184848401111561131c5761131b611224565b5b6113278482856112e0565b509392505050565b5f82601f83011261134357611342611220565b5b81356113538482602086016112ee565b91505092915050565b5f8060408385031215611372576113716111e5565b5b5f61137f8582860161120c565b925050602083013567ffffffffffffffff8111156113a05761139f6111e9565b5b6113ac8582860161132f565b9150509250929050565b5f73ffffffffffffffffffffffffffffffffffffffff82169050919050565b5f6113df826113b6565b9050919050565b6113ef816113d5565b82525050565b5f6020820190506114085f8301846113e6565b92915050565b5f819050919050565b6114208161140e565b82525050565b5f6020820190506114395f830184611417565b92915050565b611448816113d5565b8114611452575f80fd5b50565b5f813590506114638161143f565b92915050565b5f806040838503121561147f5761147e6111e5565b5b5f61148c85828601611455565b925050602083013567ffffffffffffffff8111156114ad576114ac6111e9565b5b6114b98582860161132f565b9150509250929050565b6114cc816111ed565b82525050565b5f6020820190506114e55f8301846114c3565b92915050565b5f80fd5b5f80fd5b5f8083601f84011261150857611507611220565b5b8235905067ffffffffffffffff811115611525576115246114eb565b5b602083019150836001820283011115611541576115406114ef565b5b9250929050565b6115518161140e565b811461155b575f80fd5b50565b5f8135905061156c81611548565b92915050565b5f805f805f806080878903121561158c5761158b6111e5565b5b5f87013567ffffffffffffffff8111156115a9576115a86111e9565b5b6115b589828a016114f3565b9650965050602087013567ffffffffffffffff8111156115d8576115d76111e9565b5b6115e489828a016114f3565b945094505060406115f789828a01611455565b925050606061160889828a0161155e565b9150509295509295509295565b5f67ffffffffffffffff82111561162f5761162e611238565b5b602082029050602081019050919050565b5f61165261164d84611615565b611296565b90508083825260208201905060208402830185811115611675576116746114ef565b5b835b8181101561169e578061168a8882611455565b845260208401935050602081019050611677565b5050509392505050565b5f82601f8301126116bc576116bb611220565b5b81356116cc848260208601611640565b91505092915050565b5f80604083850312156116eb576116ea6111e5565b5b5f83013567ffffffffffffffff811115611708576117076111e9565b5b611714858286016116a8565b92505060206117258582860161155e565b9150509250929050565b5f805f805f8060808789031215611749576117486111e5565b5b5f61175689828a01611455565b965050602087013567ffffffffffffffff811115611777576117766111e9565b5b61178389828a016114f3565b9550955050604087013567ffffffffffffffff8111156117a6576117a56111e9565b5b6117b289828a016114f3565b935093505060606117c589828a0161155e565b9150509295509295509295565b5f602082840312156117e7576117e66111e5565b5b5f6117f48482850161120c565b91505092915050565b5f81519050919050565b5f82825260208201905092915050565b5f819050602082019050919050565b61182f816113d5565b82525050565b5f6118408383611826565b60208301905092915050565b5f602082019050919050565b5f611862826117fd565b61186c8185611807565b935061187783611817565b805f5b838110156118a757815161188e8882611835565b97506118998361184c565b92505060018101905061187a565b5085935050505092915050565b5f6020820190508181035f8301526118cc8184611858565b905092915050565b5f81519050919050565b5f82825260208201905092915050565b8281835e5f83830152505050565b5f611906826118d4565b61191081856118de565b93506119208185602086016118ee565b61192981611228565b840191505092915050565b5f6020820190508181035f83015261194c81846118fc565b905092915050565b5f805f806060858703121561196c5761196b6111e5565b5b5f61197987828801611455565b945050602085013567ffffffffffffffff81111561199a576119996111e9565b5b6119a6878288016114f3565b935093505060406119b98782880161155e565b91505092959194509250565b7f45434453413a20696e76616c6964207369676e6174757265206c656e677468005f82015250565b5f6119f9601f836118de565b9150611a04826119c5565b602082019050919050565b5f6020820190508181035f830152611a26816119ed565b9050919050565b5f67ffffffffffffffff821115611a4757611a46611238565b5b602082029050602081019050919050565b5f611a6a611a6584611a2d565b611296565b90508083825260208201905060208402830185811115611a8d57611a8c6114ef565b5b835b81811015611ad457803567ffffffffffffffff811115611ab257611ab1611220565b5b808601611abf898261132f565b85526020850194505050602081019050611a8f565b5050509392505050565b5f82601f830112611af257611af1611220565b5b8135611b02848260208601611a58565b91505092915050565b5f60208284031215611b2057611b1f6111e5565b5b5f82013567ffffffffffffffff811115611b3d57611b3c6111e9565b5b611b4984828501611ade565b91505092915050565b7f4e487b71000000000000000000000000000000000000000000000000000000005f52603260045260245ffd5b7f4e487b71000000000000000000000000000000000000000000000000000000005f52601160045260245ffd5b5f611bb68261140e565b91507fffffffffffffffffffffffffffffffffffffffffffffffffffffffffffffffff8203611be857611be7611b7f565b5b600182019050919050565b5f819050919050565b5f67ffffffffffffffff82169050919050565b5f819050919050565b5f611c32611c2d611c2884611bf3565b611c0f565b611bfc565b9050919050565b611c4281611c18565b82525050565b5f602082019050611c5b5f830184611c39565b92915050565b7f57726f6e67205369676e617475726500000000000000000000000000000000005f82015250565b5f611c95600f836118de565b9150611ca082611c61565b602082019050919050565b5f6020820190508181035f830152611cc281611c89565b9050919050565b5f81905092915050565b7f19457468657265756d205369676e6564204d6573736167653a0a3332000000005f82015250565b5f611d07601c83611cc9565b9150611d1282611cd3565b601c82019050919050565b5f819050919050565b611d37611d32826111ed565b611d1d565b82525050565b5f611d4782611cfb565b9150611d538284611d26565b60208201915081905092915050565b5f8160601b9050919050565b5f611d7882611d62565b9050919050565b5f611d8982611d6e565b9050919050565b611da1611d9c826113d5565b611d7f565b82525050565b5f81905092915050565b5f611dbc8385611da7565b9350611dc98385846112e0565b82840190509392505050565b5f819050919050565b611def611dea8261140e565b611dd5565b82525050565b5f611e008287611d90565b601482019150611e11828587611db1565b9150611e1d8284611dde565b60208201915081905095945050505050565b7f45434453413a20696e76616c6964207369676e6174757265202773272076616c5f8201527f7565000000000000000000000000000000000000000000000000000000000000602082015250565b5f611e896022836118de565b9150611e9482611e2f565b604082019050919050565b5f6020820190508181035f830152611eb681611e7d565b9050919050565b7f45434453413a20696e76616c6964207369676e6174757265202776272076616c5f8201527f7565000000000000000000000000000000000000000000000000000000000000602082015250565b5f611f176022836118de565b9150611f2282611ebd565b604082019050919050565b5f6020820190508181035f830152611f4481611f0b565b9050919050565b5f60ff82169050919050565b611f6081611f4b565b82525050565b5f608082019050611f795f8301876114c3565b611f866020830186611f57565b611f9360408301856114c3565b611fa060608301846114c3565b95945050505050565b7f45434453413a20696e76616c6964207369676e617475726500000000000000005f82015250565b5f611fdd6018836118de565b9150611fe882611fa9565b602082019050919050565b5f6020820190508181035f83015261200a81611fd1565b9050919050565b5f8151905061201f816111f6565b92915050565b5f6020828403121561203a576120396111e5565b5b5f61204784828501612011565b91505092915050565b5f61205c828486611db1565b91508190509392505050565b7f457865637574696f6e204661696c6564000000000000000000000000000000005f82015250565b5f61209c6010836118de565b91506120a782612068565b602082019050919050565b5f6020820190508181035f8301526120c981612090565b9050919050565b5f81519050919050565b5f6120e4826120d0565b6120ee8185611da7565b93506120fe8185602086016118ee565b80840191505092915050565b5f61211582846120da565b91508190509291505056fea2646970667358221220814160dd865e92c1bb46f5ba744d49c380c659cc8d2d045c25e4a95b1ab449e564736f6c634300081a0033",
					"opcodes": "PUSH1 0xA0 PUSH1 0x40 MSTORE ADDRESS PUSH20 0xFFFFFFFFFFFFFFFFFFFFFFFFFFFFFFFFFFFFFFFF AND PUSH1 0x80 SWAP1 PUSH20 0xFFFFFFFFFFFFFFFFFFFFFFFFFFFFFFFFFFFFFFFF AND DUP2 MSTORE POP CALLVALUE DUP1 ISZERO PUSH1 0x41 JUMPI PUSH0 DUP1 REVERT JUMPDEST POP PUSH1 0x80 MLOAD PUSH2 0x2156 PUSH2 0x68 PUSH0 CODECOPY PUSH0 DUP2 DUP2 PUSH2 0xAB3 ADD MSTORE DUP2 DUP2 PUSH2 0xB08 ADD MSTORE PUSH2 0xCBA ADD MSTORE PUSH2 0x2156 PUSH0 RETURN INVALID PUSH1 0x80 PUSH1 0x40 MSTORE PUSH1 0x4 CALLDATASIZE LT PUSH2 0x9F JUMPI PUSH0 CALLDATALOAD PUSH1 0xE0 SHR DUP1 PUSH4 0x60B5BB3F GT PUSH2 0x63 JUMPI DUP1 PUSH4 0x60B5BB3F EQ PUSH2 0x192 JUMPI DUP1 PUSH4 0x72A26031 EQ PUSH2 0x1BA JUMPI DUP1 PUSH4 0x918A15CF EQ PUSH2 0x1E2 JUMPI DUP1 PUSH4 0x94CF795E EQ PUSH2 0x21E JUMPI DUP1 PUSH4 0xAD3CB1CC EQ PUSH2 0x248 JUMPI DUP1 PUSH4 0xEE9A4550 EQ PUSH2 0x272 JUMPI PUSH2 0xA6 JUMP JUMPDEST DUP1 PUSH4 0x19045A25 EQ PUSH2 0xAA JUMPI DUP1 PUSH4 0x24951BA1 EQ PUSH2 0xE6 JUMPI DUP1 PUSH4 0x4F1EF286 EQ PUSH2 0x110 JUMPI DUP1 PUSH4 0x52D1902D EQ PUSH2 0x12C JUMPI DUP1 PUSH4 0x5C37410B EQ PUSH2 0x156 JUMPI PUSH2 0xA6 JUMP JUMPDEST CALLDATASIZE PUSH2 0xA6 JUMPI STOP JUMPDEST PUSH0 DUP1 REVERT JUMPDEST CALLVALUE DUP1 ISZERO PUSH2 0xB5 JUMPI PUSH0 DUP1 REVERT JUMPDEST POP PUSH2 0xD0 PUSH1 0x4 DUP1 CALLDATASIZE SUB DUP2 ADD SWAP1 PUSH2 0xCB SWAP2 SWAP1 PUSH2 0x135C JUMP JUMPDEST PUSH2 0x2AE JUMP JUMPDEST PUSH1 0x40 MLOAD PUSH2 0xDD SWAP2 SWAP1 PUSH2 0x13F5 JUMP JUMPDEST PUSH1 0x40 MLOAD DUP1 SWAP2 SUB SWAP1 RETURN JUMPDEST CALLVALUE DUP1 ISZERO PUSH2 0xF1 JUMPI PUSH0 DUP1 REVERT JUMPDEST POP PUSH2 0xFA PUSH2 0x373 JUMP JUMPDEST PUSH1 0x40 MLOAD PUSH2 0x107 SWAP2 SWAP1 PUSH2 0x1426 JUMP JUMPDEST PUSH1 0x40 MLOAD DUP1 SWAP2 SUB SWAP1 RETURN JUMPDEST PUSH2 0x12A PUSH1 0x4 DUP1 CALLDATASIZE SUB DUP2 ADD SWAP1 PUSH2 0x125 SWAP2 SWAP1 PUSH2 0x1469 JUMP JUMPDEST PUSH2 0x37B JUMP JUMPDEST STOP JUMPDEST CALLVALUE DUP1 ISZERO PUSH2 0x137 JUMPI PUSH0 DUP1 REVERT JUMPDEST POP PUSH2 0x140 PUSH2 0x39A JUMP JUMPDEST PUSH1 0x40 MLOAD PUSH2 0x14D SWAP2 SWAP1 PUSH2 0x14D2 JUMP JUMPDEST PUSH1 0x40 MLOAD DUP1 SWAP2 SUB SWAP1 RETURN JUMPDEST CALLVALUE DUP1 ISZERO PUSH2 0x161 JUMPI PUSH0 DUP1 REVERT JUMPDEST POP PUSH2 0x17C PUSH1 0x4 DUP1 CALLDATASIZE SUB DUP2 ADD SWAP1 PUSH2 0x177 SWAP2 SWAP1 PUSH2 0x1572 JUMP JUMPDEST PUSH2 0x3CB JUMP JUMPDEST PUSH1 0x40 MLOAD PUSH2 0x189 SWAP2 SWAP1 PUSH2 0x1426 JUMP JUMPDEST PUSH1 0x40 MLOAD DUP1 SWAP2 SUB SWAP1 RETURN JUMPDEST CALLVALUE DUP1 ISZERO PUSH2 0x19D JUMPI PUSH0 DUP1 REVERT JUMPDEST POP PUSH2 0x1B8 PUSH1 0x4 DUP1 CALLDATASIZE SUB DUP2 ADD SWAP1 PUSH2 0x1B3 SWAP2 SWAP1 PUSH2 0x16D5 JUMP JUMPDEST PUSH2 0x4C3 JUMP JUMPDEST STOP JUMPDEST CALLVALUE DUP1 ISZERO PUSH2 0x1C5 JUMPI PUSH0 DUP1 REVERT JUMPDEST POP PUSH2 0x1E0 PUSH1 0x4 DUP1 CALLDATASIZE SUB DUP2 ADD SWAP1 PUSH2 0x1DB SWAP2 SWAP1 PUSH2 0x172F JUMP JUMPDEST PUSH2 0x71B JUMP JUMPDEST STOP JUMPDEST CALLVALUE DUP1 ISZERO PUSH2 0x1ED JUMPI PUSH0 DUP1 REVERT JUMPDEST POP PUSH2 0x208 PUSH1 0x4 DUP1 CALLDATASIZE SUB DUP2 ADD SWAP1 PUSH2 0x203 SWAP2 SWAP1 PUSH2 0x17D2 JUMP JUMPDEST PUSH2 0x803 JUMP JUMPDEST PUSH1 0x40 MLOAD PUSH2 0x215 SWAP2 SWAP1 PUSH2 0x14D2 JUMP JUMPDEST PUSH1 0x40 MLOAD DUP1 SWAP2 SUB SWAP1 RETURN JUMPDEST CALLVALUE DUP1 ISZERO PUSH2 0x229 JUMPI PUSH0 DUP1 REVERT JUMPDEST POP PUSH2 0x232 PUSH2 0x832 JUMP JUMPDEST PUSH1 0x40 MLOAD PUSH2 0x23F SWAP2 SWAP1 PUSH2 0x18B4 JUMP JUMPDEST PUSH1 0x40 MLOAD DUP1 SWAP2 SUB SWAP1 RETURN JUMPDEST CALLVALUE DUP1 ISZERO PUSH2 0x253 JUMPI PUSH0 DUP1 REVERT JUMPDEST POP PUSH2 0x25C PUSH2 0x8BD JUMP JUMPDEST PUSH1 0x40 MLOAD PUSH2 0x269 SWAP2 SWAP1 PUSH2 0x1934 JUMP JUMPDEST PUSH1 0x40 MLOAD DUP1 SWAP2 SUB SWAP1 RETURN JUMPDEST CALLVALUE DUP1 ISZERO PUSH2 0x27D JUMPI PUSH0 DUP1 REVERT JUMPDEST POP PUSH2 0x298 PUSH1 0x4 DUP1 CALLDATASIZE SUB DUP2 ADD SWAP1 PUSH2 0x293 SWAP2 SWAP1 PUSH2 0x1954 JUMP JUMPDEST PUSH2 0x8F6 JUMP JUMPDEST PUSH1 0x40 MLOAD PUSH2 0x2A5 SWAP2 SWAP1 PUSH2 0x14D2 JUMP JUMPDEST PUSH1 0x40 MLOAD DUP1 SWAP2 SUB SWAP1 RETURN JUMPDEST PUSH0 DUP1 PUSH0 DUP1 PUSH1 0x41 DUP6 MLOAD SUB PUSH2 0x2D7 JUMPI PUSH1 0x20 DUP6 ADD MLOAD SWAP3 POP PUSH1 0x40 DUP6 ADD MLOAD SWAP2 POP PUSH1 0x60 DUP6 ADD MLOAD PUSH0 BYTE SWAP1 POP PUSH2 0x35C JUMP JUMPDEST PUSH1 0x40 DUP6 MLOAD SUB PUSH2 0x320 JUMPI PUSH1 0x40 DUP6 ADD MLOAD PUSH1 0x20 DUP7 ADD MLOAD SWAP4 POP PUSH32 0x7FFFFFFFFFFFFFFFFFFFFFFFFFFFFFFFFFFFFFFFFFFFFFFFFFFFFFFFFFFFFFFF DUP2 AND SWAP3 POP PUSH1 0x1B DUP2 PUSH1 0xFF SHR ADD SWAP2 POP POP PUSH2 0x35B JUMP JUMPDEST PUSH1 0x40 MLOAD PUSH32 0x8C379A000000000000000000000000000000000000000000000000000000000 DUP2 MSTORE PUSH1 0x4 ADD PUSH2 0x352 SWAP1 PUSH2 0x1A0F JUMP JUMPDEST PUSH1 0x40 MLOAD DUP1 SWAP2 SUB SWAP1 REVERT JUMPDEST JUMPDEST PUSH2 0x368 DUP7 DUP3 DUP6 DUP6 PUSH2 0x92E JUMP JUMPDEST SWAP4 POP POP POP POP SWAP3 SWAP2 POP POP JUMP JUMPDEST PUSH0 DUP1 SLOAD SWAP1 POP SWAP1 JUMP JUMPDEST PUSH2 0x383 PUSH2 0xAB1 JUMP JUMPDEST PUSH2 0x38C DUP3 PUSH2 0xB97 JUMP JUMPDEST PUSH2 0x396 DUP3 DUP3 PUSH2 0xB9A JUMP JUMPDEST POP POP JUMP JUMPDEST PUSH0 PUSH2 0x3A3 PUSH2 0xCB8 JUMP JUMPDEST PUSH32 0x360894A13BA1A3210667C828492DB98DCA3E2076CC3735A920A3CA505D382BBC PUSH0 SHL SWAP1 POP SWAP1 JUMP JUMPDEST PUSH0 DUP1 PUSH2 0x3D9 DUP5 DUP8 DUP8 DUP7 PUSH2 0x8F6 JUMP JUMPDEST SWAP1 POP PUSH0 PUSH2 0x3E5 DUP3 PUSH2 0x803 JUMP JUMPDEST SWAP1 POP PUSH0 DUP10 DUP10 DUP2 ADD SWAP1 PUSH2 0x3F7 SWAP2 SWAP1 PUSH2 0x1B0B JUMP JUMPDEST SWAP1 POP PUSH0 DUP1 PUSH0 SWAP1 POP JUMPDEST DUP3 MLOAD DUP2 LT ISZERO PUSH2 0x49B JUMPI PUSH0 PUSH2 0x42D DUP6 DUP6 DUP5 DUP2 MLOAD DUP2 LT PUSH2 0x420 JUMPI PUSH2 0x41F PUSH2 0x1B52 JUMP JUMPDEST JUMPDEST PUSH1 0x20 MUL PUSH1 0x20 ADD ADD MLOAD PUSH2 0x2AE JUMP JUMPDEST SWAP1 POP PUSH1 0x2 PUSH0 DUP3 PUSH20 0xFFFFFFFFFFFFFFFFFFFFFFFFFFFFFFFFFFFFFFFF AND PUSH20 0xFFFFFFFFFFFFFFFFFFFFFFFFFFFFFFFFFFFFFFFF AND DUP2 MSTORE PUSH1 0x20 ADD SWAP1 DUP2 MSTORE PUSH1 0x20 ADD PUSH0 KECCAK256 PUSH0 SWAP1 SLOAD SWAP1 PUSH2 0x100 EXP SWAP1 DIV PUSH1 0xFF AND ISZERO PUSH2 0x48D JUMPI DUP3 DUP1 PUSH2 0x489 SWAP1 PUSH2 0x1BAC JUMP JUMPDEST SWAP4 POP POP JUMPDEST POP DUP1 DUP1 PUSH1 0x1 ADD SWAP2 POP POP PUSH2 0x3FF JUMP JUMPDEST POP PUSH0 SLOAD DUP2 LT PUSH2 0x4B0 JUMPI PUSH0 SWAP5 POP POP POP POP POP PUSH2 0x4B9 JUMP JUMPDEST PUSH1 0x1 SWAP5 POP POP POP POP POP JUMPDEST SWAP7 SWAP6 POP POP POP POP POP POP JUMP JUMPDEST PUSH0 PUSH2 0x4CC PUSH2 0xD3F JUMP JUMPDEST SWAP1 POP PUSH0 DUP2 PUSH0 ADD PUSH1 0x8 SWAP1 SLOAD SWAP1 PUSH2 0x100 EXP SWAP1 DIV PUSH1 0xFF AND ISZERO SWAP1 POP PUSH0 DUP3 PUSH0 ADD PUSH0 SWAP1 SLOAD SWAP1 PUSH2 0x100 EXP SWAP1 DIV PUSH8 0xFFFFFFFFFFFFFFFF AND SWAP1 POP PUSH0 DUP1 DUP3 PUSH8 0xFFFFFFFFFFFFFFFF AND EQ DUP1 ISZERO PUSH2 0x514 JUMPI POP DUP3 JUMPDEST SWAP1 POP PUSH0 PUSH1 0x1 DUP4 PUSH8 0xFFFFFFFFFFFFFFFF AND EQ DUP1 ISZERO PUSH2 0x547 JUMPI POP PUSH0 ADDRESS PUSH20 0xFFFFFFFFFFFFFFFFFFFFFFFFFFFFFFFFFFFFFFFF AND EXTCODESIZE EQ JUMPDEST SWAP1 POP DUP2 ISZERO DUP1 ISZERO PUSH2 0x555 JUMPI POP DUP1 ISZERO JUMPDEST ISZERO PUSH2 0x58C JUMPI PUSH1 0x40 MLOAD PUSH32 0xF92EE8A900000000000000000000000000000000000000000000000000000000 DUP2 MSTORE PUSH1 0x4 ADD PUSH1 0x40 MLOAD DUP1 SWAP2 SUB SWAP1 REVERT JUMPDEST PUSH1 0x1 DUP6 PUSH0 ADD PUSH0 PUSH2 0x100 EXP DUP2 SLOAD DUP2 PUSH8 0xFFFFFFFFFFFFFFFF MUL NOT AND SWAP1 DUP4 PUSH8 0xFFFFFFFFFFFFFFFF AND MUL OR SWAP1 SSTORE POP DUP4 ISZERO PUSH2 0x5D9 JUMPI PUSH1 0x1 DUP6 PUSH0 ADD PUSH1 0x8 PUSH2 0x100 EXP DUP2 SLOAD DUP2 PUSH1 0xFF MUL NOT AND SWAP1 DUP4 ISZERO ISZERO MUL OR SWAP1 SSTORE POP JUMPDEST PUSH0 DUP8 MLOAD SUB PUSH2 0x613 JUMPI PUSH1 0x40 MLOAD PUSH32 0x30399C7700000000000000000000000000000000000000000000000000000000 DUP2 MSTORE PUSH1 0x4 ADD PUSH1 0x40 MLOAD DUP1 SWAP2 SUB SWAP1 REVERT JUMPDEST DUP7 PUSH1 0x1 SWAP1 DUP1 MLOAD SWAP1 PUSH1 0x20 ADD SWAP1 PUSH2 0x629 SWAP3 SWAP2 SWAP1 PUSH2 0x113A JUMP JUMPDEST POP PUSH0 JUMPDEST DUP8 MLOAD DUP2 LT ISZERO PUSH2 0x6B1 JUMPI PUSH1 0x1 PUSH1 0x2 PUSH0 DUP11 DUP5 DUP2 MLOAD DUP2 LT PUSH2 0x64D JUMPI PUSH2 0x64C PUSH2 0x1B52 JUMP JUMPDEST JUMPDEST PUSH1 0x20 MUL PUSH1 0x20 ADD ADD MLOAD PUSH20 0xFFFFFFFFFFFFFFFFFFFFFFFFFFFFFFFFFFFFFFFF AND PUSH20 0xFFFFFFFFFFFFFFFFFFFFFFFFFFFFFFFFFFFFFFFF AND DUP2 MSTORE PUSH1 0x20 ADD SWAP1 DUP2 MSTORE PUSH1 0x20 ADD PUSH0 KECCAK256 PUSH0 PUSH2 0x100 EXP DUP2 SLOAD DUP2 PUSH1 0xFF MUL NOT AND SWAP1 DUP4 ISZERO ISZERO MUL OR SWAP1 SSTORE POP DUP1 DUP1 PUSH1 0x1 ADD SWAP2 POP POP PUSH2 0x62C JUMP JUMPDEST POP DUP6 PUSH0 DUP2 SWAP1 SSTORE POP DUP4 ISZERO PUSH2 0x712 JUMPI PUSH0 DUP6 PUSH0 ADD PUSH1 0x8 PUSH2 0x100 EXP DUP2 SLOAD DUP2 PUSH1 0xFF MUL NOT AND SWAP1 DUP4 ISZERO ISZERO MUL OR SWAP1 SSTORE POP PUSH32 0xC7F505B2F371AE2175EE4913F4499E1F2633A7B5936321EED1CDAEB6115181D2 PUSH1 0x1 PUSH1 0x40 MLOAD PUSH2 0x709 SWAP2 SWAP1 PUSH2 0x1C48 JUMP JUMPDEST PUSH1 0x40 MLOAD DUP1 SWAP2 SUB SWAP1 LOG1 JUMPDEST POP POP POP POP POP POP POP JUMP JUMPDEST PUSH0 ISZERO ISZERO PUSH1 0x2 PUSH0 CALLER PUSH20 0xFFFFFFFFFFFFFFFFFFFFFFFFFFFFFFFFFFFFFFFF AND PUSH20 0xFFFFFFFFFFFFFFFFFFFFFFFFFFFFFFFFFFFFFFFF AND DUP2 MSTORE PUSH1 0x20 ADD SWAP1 DUP2 MSTORE PUSH1 0x20 ADD PUSH0 KECCAK256 PUSH0 SWAP1 SLOAD SWAP1 PUSH2 0x100 EXP SWAP1 DIV PUSH1 0xFF AND ISZERO ISZERO SUB PUSH2 0x7A1 JUMPI PUSH1 0x40 MLOAD PUSH32 0x6EE9BCF200000000000000000000000000000000000000000000000000000000 DUP2 MSTORE PUSH1 0x4 ADD PUSH1 0x40 MLOAD DUP1 SWAP2 SUB SWAP1 REVERT JUMPDEST PUSH0 PUSH2 0x7B0 DUP5 DUP5 DUP9 DUP9 DUP12 DUP8 PUSH2 0x3CB JUMP JUMPDEST EQ PUSH2 0x7F0 JUMPI PUSH1 0x40 MLOAD PUSH32 0x8C379A000000000000000000000000000000000000000000000000000000000 DUP2 MSTORE PUSH1 0x4 ADD PUSH2 0x7E7 SWAP1 PUSH2 0x1CAB JUMP JUMPDEST PUSH1 0x40 MLOAD DUP1 SWAP2 SUB SWAP1 REVERT JUMPDEST PUSH2 0x7FB DUP7 DUP7 DUP7 PUSH2 0xD66 JUMP JUMPDEST POP POP POP POP POP POP JUMP JUMPDEST PUSH0 DUP2 PUSH1 0x40 MLOAD PUSH1 0x20 ADD PUSH2 0x815 SWAP2 SWAP1 PUSH2 0x1D3D JUMP JUMPDEST PUSH1 0x40 MLOAD PUSH1 0x20 DUP2 DUP4 SUB SUB DUP2 MSTORE SWAP1 PUSH1 0x40 MSTORE DUP1 MLOAD SWAP1 PUSH1 0x20 ADD KECCAK256 SWAP1 POP SWAP2 SWAP1 POP JUMP JUMPDEST PUSH1 0x60 PUSH1 0x1 DUP1 SLOAD DUP1 PUSH1 0x20 MUL PUSH1 0x20 ADD PUSH1 0x40 MLOAD SWAP1 DUP2 ADD PUSH1 0x40 MSTORE DUP1 SWAP3 SWAP2 SWAP1 DUP2 DUP2 MSTORE PUSH1 0x20 ADD DUP3 DUP1 SLOAD DUP1 ISZERO PUSH2 0x8B3 JUMPI PUSH1 0x20 MUL DUP3 ADD SWAP2 SWAP1 PUSH0 MSTORE PUSH1 0x20 PUSH0 KECCAK256 SWAP1 JUMPDEST DUP2 PUSH0 SWAP1 SLOAD SWAP1 PUSH2 0x100 EXP SWAP1 DIV PUSH20 0xFFFFFFFFFFFFFFFFFFFFFFFFFFFFFFFFFFFFFFFF AND PUSH20 0xFFFFFFFFFFFFFFFFFFFFFFFFFFFFFFFFFFFFFFFF AND DUP2 MSTORE PUSH1 0x20 ADD SWAP1 PUSH1 0x1 ADD SWAP1 DUP1 DUP4 GT PUSH2 0x86A JUMPI JUMPDEST POP POP POP POP POP SWAP1 POP SWAP1 JUMP JUMPDEST PUSH1 0x40 MLOAD DUP1 PUSH1 0x40 ADD PUSH1 0x40 MSTORE DUP1 PUSH1 0x5 DUP2 MSTORE PUSH1 0x20 ADD PUSH32 0x352E302E30000000000000000000000000000000000000000000000000000000 DUP2 MSTORE POP DUP2 JUMP JUMPDEST PUSH0 DUP5 DUP5 DUP5 DUP5 PUSH1 0x40 MLOAD PUSH1 0x20 ADD PUSH2 0x90E SWAP5 SWAP4 SWAP3 SWAP2 SWAP1 PUSH2 0x1DF5 JUMP JUMPDEST PUSH1 0x40 MLOAD PUSH1 0x20 DUP2 DUP4 SUB SUB DUP2 MSTORE SWAP1 PUSH1 0x40 MSTORE DUP1 MLOAD SWAP1 PUSH1 0x20 ADD KECCAK256 SWAP1 POP SWAP5 SWAP4 POP POP POP POP JUMP JUMPDEST PUSH0 PUSH32 0x7FFFFFFFFFFFFFFFFFFFFFFFFFFFFFFF5D576E7357A4501DDFE92F46681B20A0 DUP3 PUSH0 SHR GT ISZERO PUSH2 0x994 JUMPI PUSH1 0x40 MLOAD PUSH32 0x8C379A000000000000000000000000000000000000000000000000000000000 DUP2 MSTORE PUSH1 0x4 ADD PUSH2 0x98B SWAP1 PUSH2 0x1E9F JUMP JUMPDEST PUSH1 0x40 MLOAD DUP1 SWAP2 SUB SWAP1 REVERT JUMPDEST PUSH1 0x1B DUP5 PUSH1 0xFF AND EQ DUP1 PUSH2 0x9A9 JUMPI POP PUSH1 0x1C DUP5 PUSH1 0xFF AND EQ JUMPDEST PUSH2 0x9E8 JUMPI PUSH1 0x40 MLOAD PUSH32 0x8C379A000000000000000000000000000000000000000000000000000000000 DUP2 MSTORE PUSH1 0x4 ADD PUSH2 0x9DF SWAP1 PUSH2 0x1F2D JUMP JUMPDEST PUSH1 0x40 MLOAD DUP1 SWAP2 SUB SWAP1 REVERT JUMPDEST PUSH0 PUSH1 0x1 DUP7 DUP7 DUP7 DUP7 PUSH1 0x40 MLOAD PUSH0 DUP2 MSTORE PUSH1 0x20 ADD PUSH1 0x40 MSTORE PUSH1 0x40 MLOAD PUSH2 0xA0B SWAP5 SWAP4 SWAP3 SWAP2 SWAP1 PUSH2 0x1F66 JUMP JUMPDEST PUSH1 0x20 PUSH1 0x40 MLOAD PUSH1 0x20 DUP2 SUB SWAP1 DUP1 DUP5 SUB SWAP1 DUP6 GAS STATICCALL ISZERO DUP1 ISZERO PUSH2 0xA2B JUMPI RETURNDATASIZE PUSH0 DUP1 RETURNDATACOPY RETURNDATASIZE PUSH0 REVERT JUMPDEST POP POP POP PUSH1 0x20 PUSH1 0x40 MLOAD SUB MLOAD SWAP1 POP PUSH0 PUSH20 0xFFFFFFFFFFFFFFFFFFFFFFFFFFFFFFFFFFFFFFFF AND DUP2 PUSH20 0xFFFFFFFFFFFFFFFFFFFFFFFFFFFFFFFFFFFFFFFF AND SUB PUSH2 0xAA5 JUMPI PUSH1 0x40 MLOAD PUSH32 0x8C379A000000000000000000000000000000000000000000000000000000000 DUP2 MSTORE PUSH1 0x4 ADD PUSH2 0xA9C SWAP1 PUSH2 0x1FF3 JUMP JUMPDEST PUSH1 0x40 MLOAD DUP1 SWAP2 SUB SWAP1 REVERT JUMPDEST DUP1 SWAP2 POP POP SWAP5 SWAP4 POP POP POP POP JUMP JUMPDEST PUSH32 0x0 PUSH20 0xFFFFFFFFFFFFFFFFFFFFFFFFFFFFFFFFFFFFFFFF AND ADDRESS PUSH20 0xFFFFFFFFFFFFFFFFFFFFFFFFFFFFFFFFFFFFFFFF AND EQ DUP1 PUSH2 0xB5E JUMPI POP PUSH32 0x0 PUSH20 0xFFFFFFFFFFFFFFFFFFFFFFFFFFFFFFFFFFFFFFFF AND PUSH2 0xB45 PUSH2 0xE16 JUMP JUMPDEST PUSH20 0xFFFFFFFFFFFFFFFFFFFFFFFFFFFFFFFFFFFFFFFF AND EQ ISZERO JUMPDEST ISZERO PUSH2 0xB95 JUMPI PUSH1 0x40 MLOAD PUSH32 0xE07C8DBA00000000000000000000000000000000000000000000000000000000 DUP2 MSTORE PUSH1 0x4 ADD PUSH1 0x40 MLOAD DUP1 SWAP2 SUB SWAP1 REVERT JUMPDEST JUMP JUMPDEST POP JUMP JUMPDEST DUP2 PUSH20 0xFFFFFFFFFFFFFFFFFFFFFFFFFFFFFFFFFFFFFFFF AND PUSH4 0x52D1902D PUSH1 0x40 MLOAD DUP2 PUSH4 0xFFFFFFFF AND PUSH1 0xE0 SHL DUP2 MSTORE PUSH1 0x4 ADD PUSH1 0x20 PUSH1 0x40 MLOAD DUP1 DUP4 SUB DUP2 DUP7 GAS STATICCALL SWAP3 POP POP POP DUP1 ISZERO PUSH2 0xC02 JUMPI POP PUSH1 0x40 MLOAD RETURNDATASIZE PUSH1 0x1F NOT PUSH1 0x1F DUP3 ADD AND DUP3 ADD DUP1 PUSH1 0x40 MSTORE POP DUP2 ADD SWAP1 PUSH2 0xBFF SWAP2 SWAP1 PUSH2 0x2025 JUMP JUMPDEST PUSH1 0x1 JUMPDEST PUSH2 0xC43 JUMPI DUP2 PUSH1 0x40 MLOAD PUSH32 0x4C9C8CE300000000000000000000000000000000000000000000000000000000 DUP2 MSTORE PUSH1 0x4 ADD PUSH2 0xC3A SWAP2 SWAP1 PUSH2 0x13F5 JUMP JUMPDEST PUSH1 0x40 MLOAD DUP1 SWAP2 SUB SWAP1 REVERT JUMPDEST PUSH32 0x360894A13BA1A3210667C828492DB98DCA3E2076CC3735A920A3CA505D382BBC PUSH0 SHL DUP2 EQ PUSH2 0xCA9 JUMPI DUP1 PUSH1 0x40 MLOAD PUSH32 0xAA1D49A400000000000000000000000000000000000000000000000000000000 DUP2 MSTORE PUSH1 0x4 ADD PUSH2 0xCA0 SWAP2 SWAP1 PUSH2 0x14D2 JUMP JUMPDEST PUSH1 0x40 MLOAD DUP1 SWAP2 SUB SWAP1 REVERT JUMPDEST PUSH2 0xCB3 DUP4 DUP4 PUSH2 0xE69 JUMP JUMPDEST POP POP POP JUMP JUMPDEST PUSH32 0x0 PUSH20 0xFFFFFFFFFFFFFFFFFFFFFFFFFFFFFFFFFFFFFFFF AND ADDRESS PUSH20 0xFFFFFFFFFFFFFFFFFFFFFFFFFFFFFFFFFFFFFFFF AND EQ PUSH2 0xD3D JUMPI PUSH1 0x40 MLOAD PUSH32 0xE07C8DBA00000000000000000000000000000000000000000000000000000000 DUP2 MSTORE PUSH1 0x4 ADD PUSH1 0x40 MLOAD DUP1 SWAP2 SUB SWAP1 REVERT JUMPDEST JUMP JUMPDEST PUSH0 PUSH32 0xF0C57E16840DF040F15088DC2F81FE391C3923BEC73E23A9662EFC9C229C6A00 SWAP1 POP SWAP1 JUMP JUMPDEST PUSH0 DUP4 PUSH20 0xFFFFFFFFFFFFFFFFFFFFFFFFFFFFFFFFFFFFFFFF AND DUP4 DUP4 PUSH1 0x40 MLOAD PUSH2 0xD8E SWAP3 SWAP2 SWAP1 PUSH2 0x2050 JUMP JUMPDEST PUSH0 PUSH1 0x40 MLOAD DUP1 DUP4 SUB DUP2 PUSH0 DUP7 GAS CALL SWAP2 POP POP RETURNDATASIZE DUP1 PUSH0 DUP2 EQ PUSH2 0xDC7 JUMPI PUSH1 0x40 MLOAD SWAP2 POP PUSH1 0x1F NOT PUSH1 0x3F RETURNDATASIZE ADD AND DUP3 ADD PUSH1 0x40 MSTORE RETURNDATASIZE DUP3 MSTORE RETURNDATASIZE PUSH0 PUSH1 0x20 DUP5 ADD RETURNDATACOPY PUSH2 0xDCC JUMP JUMPDEST PUSH1 0x60 SWAP2 POP JUMPDEST POP POP SWAP1 POP DUP1 PUSH2 0xE10 JUMPI PUSH1 0x40 MLOAD PUSH32 0x8C379A000000000000000000000000000000000000000000000000000000000 DUP2 MSTORE PUSH1 0x4 ADD PUSH2 0xE07 SWAP1 PUSH2 0x20B2 JUMP JUMPDEST PUSH1 0x40 MLOAD DUP1 SWAP2 SUB SWAP1 REVERT JUMPDEST POP POP POP POP JUMP JUMPDEST PUSH0 PUSH2 0xE42 PUSH32 0x360894A13BA1A3210667C828492DB98DCA3E2076CC3735A920A3CA505D382BBC PUSH0 SHL PUSH2 0xEDB JUMP JUMPDEST PUSH0 ADD PUSH0 SWAP1 SLOAD SWAP1 PUSH2 0x100 EXP SWAP1 DIV PUSH20 0xFFFFFFFFFFFFFFFFFFFFFFFFFFFFFFFFFFFFFFFF AND SWAP1 POP SWAP1 JUMP JUMPDEST PUSH2 0xE72 DUP3 PUSH2 0xEE4 JUMP JUMPDEST DUP2 PUSH20 0xFFFFFFFFFFFFFFFFFFFFFFFFFFFFFFFFFFFFFFFF AND PUSH32 0xBC7CD75A20EE27FD9ADEBAB32041F755214DBC6BFFA90CC0225B39DA2E5C2D3B PUSH1 0x40 MLOAD PUSH1 0x40 MLOAD DUP1 SWAP2 SUB SWAP1 LOG2 PUSH0 DUP2 MLOAD GT ISZERO PUSH2 0xECE JUMPI PUSH2 0xEC8 DUP3 DUP3 PUSH2 0xFAD JUMP JUMPDEST POP PUSH2 0xED7 JUMP JUMPDEST PUSH2 0xED6 PUSH2 0x102D JUMP JUMPDEST JUMPDEST POP POP JUMP JUMPDEST PUSH0 DUP2 SWAP1 POP SWAP2 SWAP1 POP JUMP JUMPDEST PUSH0 DUP2 PUSH20 0xFFFFFFFFFFFFFFFFFFFFFFFFFFFFFFFFFFFFFFFF AND EXTCODESIZE SUB PUSH2 0xF3F JUMPI DUP1 PUSH1 0x40 MLOAD PUSH32 0x4C9C8CE300000000000000000000000000000000000000000000000000000000 DUP2 MSTORE PUSH1 0x4 ADD PUSH2 0xF36 SWAP2 SWAP1 PUSH2 0x13F5 JUMP JUMPDEST PUSH1 0x40 MLOAD DUP1 SWAP2 SUB SWAP1 REVERT JUMPDEST DUP1 PUSH2 0xF6B PUSH32 0x360894A13BA1A3210667C828492DB98DCA3E2076CC3735A920A3CA505D382BBC PUSH0 SHL PUSH2 0xEDB JUMP JUMPDEST PUSH0 ADD PUSH0 PUSH2 0x100 EXP DUP2 SLOAD DUP2 PUSH20 0xFFFFFFFFFFFFFFFFFFFFFFFFFFFFFFFFFFFFFFFF MUL NOT AND SWAP1 DUP4 PUSH20 0xFFFFFFFFFFFFFFFFFFFFFFFFFFFFFFFFFFFFFFFF AND MUL OR SWAP1 SSTORE POP POP JUMP JUMPDEST PUSH1 0x60 PUSH0 DUP1 DUP5 PUSH20 0xFFFFFFFFFFFFFFFFFFFFFFFFFFFFFFFFFFFFFFFF AND DUP5 PUSH1 0x40 MLOAD PUSH2 0xFD6 SWAP2 SWAP1 PUSH2 0x210A JUMP JUMPDEST PUSH0 PUSH1 0x40 MLOAD DUP1 DUP4 SUB DUP2 DUP6 GAS DELEGATECALL SWAP2 POP POP RETURNDATASIZE DUP1 PUSH0 DUP2 EQ PUSH2 0x100E JUMPI PUSH1 0x40 MLOAD SWAP2 POP PUSH1 0x1F NOT PUSH1 0x3F RETURNDATASIZE ADD AND DUP3 ADD PUSH1 0x40 MSTORE RETURNDATASIZE DUP3 MSTORE RETURNDATASIZE PUSH0 PUSH1 0x20 DUP5 ADD RETURNDATACOPY PUSH2 0x1013 JUMP JUMPDEST PUSH1 0x60 SWAP2 POP JUMPDEST POP SWAP2 POP SWAP2 POP PUSH2 0x1023 DUP6 DUP4 DUP4 PUSH2 0x1069 JUMP JUMPDEST SWAP3 POP POP POP SWAP3 SWAP2 POP POP JUMP JUMPDEST PUSH0 CALLVALUE GT ISZERO PUSH2 0x1067 JUMPI PUSH1 0x40 MLOAD PUSH32 0xB398979F00000000000000000000000000000000000000000000000000000000 DUP2 MSTORE PUSH1 0x4 ADD PUSH1 0x40 MLOAD DUP1 SWAP2 SUB SWAP1 REVERT JUMPDEST JUMP JUMPDEST PUSH1 0x60 DUP3 PUSH2 0x107E JUMPI PUSH2 0x1079 DUP3 PUSH2 0x10F6 JUMP JUMPDEST PUSH2 0x10EE JUMP JUMPDEST PUSH0 DUP3 MLOAD EQ DUP1 ISZERO PUSH2 0x10A4 JUMPI POP PUSH0 DUP5 PUSH20 0xFFFFFFFFFFFFFFFFFFFFFFFFFFFFFFFFFFFFFFFF AND EXTCODESIZE EQ JUMPDEST ISZERO PUSH2 0x10E6 JUMPI DUP4 PUSH1 0x40 MLOAD PUSH32 0x9996B31500000000000000000000000000000000000000000000000000000000 DUP2 MSTORE PUSH1 0x4 ADD PUSH2 0x10DD SWAP2 SWAP1 PUSH2 0x13F5 JUMP JUMPDEST PUSH1 0x40 MLOAD DUP1 SWAP2 SUB SWAP1 REVERT JUMPDEST DUP2 SWAP1 POP PUSH2 0x10EF JUMP JUMPDEST JUMPDEST SWAP4 SWAP3 POP POP POP JUMP JUMPDEST PUSH0 DUP2 MLOAD GT ISZERO PUSH2 0x1108 JUMPI DUP1 MLOAD DUP1 DUP3 PUSH1 0x20 ADD REVERT JUMPDEST PUSH1 0x40 MLOAD PUSH32 0x1425EA4200000000000000000000000000000000000000000000000000000000 DUP2 MSTORE PUSH1 0x4 ADD PUSH1 0x40 MLOAD DUP1 SWAP2 SUB SWAP1 REVERT JUMPDEST DUP3 DUP1 SLOAD DUP3 DUP3 SSTORE SWAP1 PUSH0 MSTORE PUSH1 0x20 PUSH0 KECCAK256 SWAP1 DUP2 ADD SWAP3 DUP3 ISZERO PUSH2 0x11B0 JUMPI SWAP2 PUSH1 0x20 MUL DUP3 ADD JUMPDEST DUP3 DUP2 GT ISZERO PUSH2 0x11AF JUMPI DUP3 MLOAD DUP3 PUSH0 PUSH2 0x100 EXP DUP2 SLOAD DUP2 PUSH20 0xFFFFFFFFFFFFFFFFFFFFFFFFFFFFFFFFFFFFFFFF MUL NOT AND SWAP1 DUP4 PUSH20 0xFFFFFFFFFFFFFFFFFFFFFFFFFFFFFFFFFFFFFFFF AND MUL OR SWAP1 SSTORE POP SWAP2 PUSH1 0x20 ADD SWAP2 SWAP1 PUSH1 0x1 ADD SWAP1 PUSH2 0x1158 JUMP JUMPDEST JUMPDEST POP SWAP1 POP PUSH2 0x11BD SWAP2 SWAP1 PUSH2 0x11C1 JUMP JUMPDEST POP SWAP1 JUMP JUMPDEST JUMPDEST DUP1 DUP3 GT ISZERO PUSH2 0x11D8 JUMPI PUSH0 DUP2 PUSH0 SWAP1 SSTORE POP PUSH1 0x1 ADD PUSH2 0x11C2 JUMP JUMPDEST POP SWAP1 JUMP JUMPDEST PUSH0 PUSH1 0x40 MLOAD SWAP1 POP SWAP1 JUMP JUMPDEST PUSH0 DUP1 REVERT JUMPDEST PUSH0 DUP1 REVERT JUMPDEST PUSH0 DUP2 SWAP1 POP SWAP2 SWAP1 POP JUMP JUMPDEST PUSH2 0x11FF DUP2 PUSH2 0x11ED JUMP JUMPDEST DUP2 EQ PUSH2 0x1209 JUMPI PUSH0 DUP1 REVERT JUMPDEST POP JUMP JUMPDEST PUSH0 DUP2 CALLDATALOAD SWAP1 POP PUSH2 0x121A DUP2 PUSH2 0x11F6 JUMP JUMPDEST SWAP3 SWAP2 POP POP JUMP JUMPDEST PUSH0 DUP1 REVERT JUMPDEST PUSH0 DUP1 REVERT JUMPDEST PUSH0 PUSH1 0x1F NOT PUSH1 0x1F DUP4 ADD AND SWAP1 POP SWAP2 SWAP1 POP JUMP JUMPDEST PUSH32 0x4E487B7100000000000000000000000000000000000000000000000000000000 PUSH0 MSTORE PUSH1 0x41 PUSH1 0x4 MSTORE PUSH1 0x24 PUSH0 REVERT JUMPDEST PUSH2 0x126E DUP3 PUSH2 0x1228 JUMP JUMPDEST DUP2 ADD DUP2 DUP2 LT PUSH8 0xFFFFFFFFFFFFFFFF DUP3 GT OR ISZERO PUSH2 0x128D JUMPI PUSH2 0x128C PUSH2 0x1238 JUMP JUMPDEST JUMPDEST DUP1 PUSH1 0x40 MSTORE POP POP POP JUMP JUMPDEST PUSH0 PUSH2 0x129F PUSH2 0x11DC JUMP JUMPDEST SWAP1 POP PUSH2 0x12AB DUP3 DUP3 PUSH2 0x1265 JUMP JUMPDEST SWAP2 SWAP1 POP JUMP JUMPDEST PUSH0 PUSH8 0xFFFFFFFFFFFFFFFF DUP3 GT ISZERO PUSH2 0x12CA JUMPI PUSH2 0x12C9 PUSH2 0x1238 JUMP JUMPDEST JUMPDEST PUSH2 0x12D3 DUP3 PUSH2 0x1228 JUMP JUMPDEST SWAP1 POP PUSH1 0x20 DUP2 ADD SWAP1 POP SWAP2 SWAP1 POP JUMP JUMPDEST DUP3 DUP2 DUP4 CALLDATACOPY PUSH0 DUP4 DUP4 ADD MSTORE POP POP POP JUMP JUMPDEST PUSH0 PUSH2 0x1300 PUSH2 0x12FB DUP5 PUSH2 0x12B0 JUMP JUMPDEST PUSH2 0x1296 JUMP JUMPDEST SWAP1 POP DUP3 DUP2 MSTORE PUSH1 0x20 DUP2 ADD DUP5 DUP5 DUP5 ADD GT ISZERO PUSH2 0x131C JUMPI PUSH2 0x131B PUSH2 0x1224 JUMP JUMPDEST JUMPDEST PUSH2 0x1327 DUP5 DUP3 DUP6 PUSH2 0x12E0 JUMP JUMPDEST POP SWAP4 SWAP3 POP POP POP JUMP JUMPDEST PUSH0 DUP3 PUSH1 0x1F DUP4 ADD SLT PUSH2 0x1343 JUMPI PUSH2 0x1342 PUSH2 0x1220 JUMP JUMPDEST JUMPDEST DUP2 CALLDATALOAD PUSH2 0x1353 DUP5 DUP3 PUSH1 0x20 DUP7 ADD PUSH2 0x12EE JUMP JUMPDEST SWAP2 POP POP SWAP3 SWAP2 POP POP JUMP JUMPDEST PUSH0 DUP1 PUSH1 0x40 DUP4 DUP6 SUB SLT ISZERO PUSH2 0x1372 JUMPI PUSH2 0x1371 PUSH2 0x11E5 JUMP JUMPDEST JUMPDEST PUSH0 PUSH2 0x137F DUP6 DUP3 DUP7 ADD PUSH2 0x120C JUMP JUMPDEST SWAP3 POP POP PUSH1 0x20 DUP4 ADD CALLDATALOAD PUSH8 0xFFFFFFFFFFFFFFFF DUP2 GT ISZERO PUSH2 0x13A0 JUMPI PUSH2 0x139F PUSH2 0x11E9 JUMP JUMPDEST JUMPDEST PUSH2 0x13AC DUP6 DUP3 DUP7 ADD PUSH2 0x132F JUMP JUMPDEST SWAP2 POP POP SWAP3 POP SWAP3 SWAP1 POP JUMP JUMPDEST PUSH0 PUSH20 0xFFFFFFFFFFFFFFFFFFFFFFFFFFFFFFFFFFFFFFFF DUP3 AND SWAP1 POP SWAP2 SWAP1 POP JUMP JUMPDEST PUSH0 PUSH2 0x13DF DUP3 PUSH2 0x13B6 JUMP JUMPDEST SWAP1 POP SWAP2 SWAP1 POP JUMP JUMPDEST PUSH2 0x13EF DUP2 PUSH2 0x13D5 JUMP JUMPDEST DUP3 MSTORE POP POP JUMP JUMPDEST PUSH0 PUSH1 0x20 DUP3 ADD SWAP1 POP PUSH2 0x1408 PUSH0 DUP4 ADD DUP5 PUSH2 0x13E6 JUMP JUMPDEST SWAP3 SWAP2 POP POP JUMP JUMPDEST PUSH0 DUP2 SWAP1 POP SWAP2 SWAP1 POP JUMP JUMPDEST PUSH2 0x1420 DUP2 PUSH2 0x140E JUMP JUMPDEST DUP3 MSTORE POP POP JUMP JUMPDEST PUSH0 PUSH1 0x20 DUP3 ADD SWAP1 POP PUSH2 0x1439 PUSH0 DUP4 ADD DUP5 PUSH2 0x1417 JUMP JUMPDEST SWAP3 SWAP2 POP POP JUMP JUMPDEST PUSH2 0x1448 DUP2 PUSH2 0x13D5 JUMP JUMPDEST DUP2 EQ PUSH2 0x1452 JUMPI PUSH0 DUP1 REVERT JUMPDEST POP JUMP JUMPDEST PUSH0 DUP2 CALLDATALOAD SWAP1 POP PUSH2 0x1463 DUP2 PUSH2 0x143F JUMP JUMPDEST SWAP3 SWAP2 POP POP JUMP JUMPDEST PUSH0 DUP1 PUSH1 0x40 DUP4 DUP6 SUB SLT ISZERO PUSH2 0x147F JUMPI PUSH2 0x147E PUSH2 0x11E5 JUMP JUMPDEST JUMPDEST PUSH0 PUSH2 0x148C DUP6 DUP3 DUP7 ADD PUSH2 0x1455 JUMP JUMPDEST SWAP3 POP POP PUSH1 0x20 DUP4 ADD CALLDATALOAD PUSH8 0xFFFFFFFFFFFFFFFF DUP2 GT ISZERO PUSH2 0x14AD JUMPI PUSH2 0x14AC PUSH2 0x11E9 JUMP JUMPDEST JUMPDEST PUSH2 0x14B9 DUP6 DUP3 DUP7 ADD PUSH2 0x132F JUMP JUMPDEST SWAP2 POP POP SWAP3 POP SWAP3 SWAP1 POP JUMP JUMPDEST PUSH2 0x14CC DUP2 PUSH2 0x11ED JUMP JUMPDEST DUP3 MSTORE POP POP JUMP JUMPDEST PUSH0 PUSH1 0x20 DUP3 ADD SWAP1 POP PUSH2 0x14E5 PUSH0 DUP4 ADD DUP5 PUSH2 0x14C3 JUMP JUMPDEST SWAP3 SWAP2 POP POP JUMP JUMPDEST PUSH0 DUP1 REVERT JUMPDEST PUSH0 DUP1 REVERT JUMPDEST PUSH0 DUP1 DUP4 PUSH1 0x1F DUP5 ADD SLT PUSH2 0x1508 JUMPI PUSH2 0x1507 PUSH2 0x1220 JUMP JUMPDEST JUMPDEST DUP3 CALLDATALOAD SWAP1 POP PUSH8 0xFFFFFFFFFFFFFFFF DUP2 GT ISZERO PUSH2 0x1525 JUMPI PUSH2 0x1524 PUSH2 0x14EB JUMP JUMPDEST JUMPDEST PUSH1 0x20 DUP4 ADD SWAP2 POP DUP4 PUSH1 0x1 DUP3 MUL DUP4 ADD GT ISZERO PUSH2 0x1541 JUMPI PUSH2 0x1540 PUSH2 0x14EF JUMP JUMPDEST JUMPDEST SWAP3 POP SWAP3 SWAP1 POP JUMP JUMPDEST PUSH2 0x1551 DUP2 PUSH2 0x140E JUMP JUMPDEST DUP2 EQ PUSH2 0x155B JUMPI PUSH0 DUP1 REVERT JUMPDEST POP JUMP JUMPDEST PUSH0 DUP2 CALLDATALOAD SWAP1 POP PUSH2 0x156C DUP2 PUSH2 0x1548 JUMP JUMPDEST SWAP3 SWAP2 POP POP JUMP JUMPDEST PUSH0 DUP1 PUSH0 DUP1 PUSH0 DUP1 PUSH1 0x80 DUP8 DUP10 SUB SLT ISZERO PUSH2 0x158C JUMPI PUSH2 0x158B PUSH2 0x11E5 JUMP JUMPDEST JUMPDEST PUSH0 DUP8 ADD CALLDATALOAD PUSH8 0xFFFFFFFFFFFFFFFF DUP2 GT ISZERO PUSH2 0x15A9 JUMPI PUSH2 0x15A8 PUSH2 0x11E9 JUMP JUMPDEST JUMPDEST PUSH2 0x15B5 DUP10 DUP3 DUP11 ADD PUSH2 0x14F3 JUMP JUMPDEST SWAP7 POP SWAP7 POP POP PUSH1 0x20 DUP8 ADD CALLDATALOAD PUSH8 0xFFFFFFFFFFFFFFFF DUP2 GT ISZERO PUSH2 0x15D8 JUMPI PUSH2 0x15D7 PUSH2 0x11E9 JUMP JUMPDEST JUMPDEST PUSH2 0x15E4 DUP10 DUP3 DUP11 ADD PUSH2 0x14F3 JUMP JUMPDEST SWAP5 POP SWAP5 POP POP PUSH1 0x40 PUSH2 0x15F7 DUP10 DUP3 DUP11 ADD PUSH2 0x1455 JUMP JUMPDEST SWAP3 POP POP PUSH1 0x60 PUSH2 0x1608 DUP10 DUP3 DUP11 ADD PUSH2 0x155E JUMP JUMPDEST SWAP2 POP POP SWAP3 SWAP6 POP SWAP3 SWAP6 POP SWAP3 SWAP6 JUMP JUMPDEST PUSH0 PUSH8 0xFFFFFFFFFFFFFFFF DUP3 GT ISZERO PUSH2 0x162F JUMPI PUSH2 0x162E PUSH2 0x1238 JUMP JUMPDEST JUMPDEST PUSH1 0x20 DUP3 MUL SWAP1 POP PUSH1 0x20 DUP2 ADD SWAP1 POP SWAP2 SWAP1 POP JUMP JUMPDEST PUSH0 PUSH2 0x1652 PUSH2 0x164D DUP5 PUSH2 0x1615 JUMP JUMPDEST PUSH2 0x1296 JUMP JUMPDEST SWAP1 POP DUP1 DUP4 DUP3 MSTORE PUSH1 0x20 DUP3 ADD SWAP1 POP PUSH1 0x20 DUP5 MUL DUP4 ADD DUP6 DUP2 GT ISZERO PUSH2 0x1675 JUMPI PUSH2 0x1674 PUSH2 0x14EF JUMP JUMPDEST JUMPDEST DUP4 JUMPDEST DUP2 DUP2 LT ISZERO PUSH2 0x169E JUMPI DUP1 PUSH2 0x168A DUP9 DUP3 PUSH2 0x1455 JUMP JUMPDEST DUP5 MSTORE PUSH1 0x20 DUP5 ADD SWAP4 POP POP PUSH1 0x20 DUP2 ADD SWAP1 POP PUSH2 0x1677 JUMP JUMPDEST POP POP POP SWAP4 SWAP3 POP POP POP JUMP JUMPDEST PUSH0 DUP3 PUSH1 0x1F DUP4 ADD SLT PUSH2 0x16BC JUMPI PUSH2 0x16BB PUSH2 0x1220 JUMP JUMPDEST JUMPDEST DUP2 CALLDATALOAD PUSH2 0x16CC DUP5 DUP3 PUSH1 0x20 DUP7 ADD PUSH2 0x1640 JUMP JUMPDEST SWAP2 POP POP SWAP3 SWAP2 POP POP JUMP JUMPDEST PUSH0 DUP1 PUSH1 0x40 DUP4 DUP6 SUB SLT ISZERO PUSH2 0x16EB JUMPI PUSH2 0x16EA PUSH2 0x11E5 JUMP JUMPDEST JUMPDEST PUSH0 DUP4 ADD CALLDATALOAD PUSH8 0xFFFFFFFFFFFFFFFF DUP2 GT ISZERO PUSH2 0x1708 JUMPI PUSH2 0x1707 PUSH2 0x11E9 JUMP JUMPDEST JUMPDEST PUSH2 0x1714 DUP6 DUP3 DUP7 ADD PUSH2 0x16A8 JUMP JUMPDEST SWAP3 POP POP PUSH1 0x20 PUSH2 0x1725 DUP6 DUP3 DUP7 ADD PUSH2 0x155E JUMP JUMPDEST SWAP2 POP POP SWAP3 POP SWAP3 SWAP1 POP JUMP JUMPDEST PUSH0 DUP1 PUSH0 DUP1 PUSH0 DUP1 PUSH1 0x80 DUP8 DUP10 SUB SLT ISZERO PUSH2 0x1749 JUMPI PUSH2 0x1748 PUSH2 0x11E5 JUMP JUMPDEST JUMPDEST PUSH0 PUSH2 0x1756 DUP10 DUP3 DUP11 ADD PUSH2 0x1455 JUMP JUMPDEST SWAP7 POP POP PUSH1 0x20 DUP8 ADD CALLDATALOAD PUSH8 0xFFFFFFFFFFFFFFFF DUP2 GT ISZERO PUSH2 0x1777 JUMPI PUSH2 0x1776 PUSH2 0x11E9 JUMP JUMPDEST JUMPDEST PUSH2 0x1783 DUP10 DUP3 DUP11 ADD PUSH2 0x14F3 JUMP JUMPDEST SWAP6 POP SWAP6 POP POP PUSH1 0x40 DUP8 ADD CALLDATALOAD PUSH8 0xFFFFFFFFFFFFFFFF DUP2 GT ISZERO PUSH2 0x17A6 JUMPI PUSH2 0x17A5 PUSH2 0x11E9 JUMP JUMPDEST JUMPDEST PUSH2 0x17B2 DUP10 DUP3 DUP11 ADD PUSH2 0x14F3 JUMP JUMPDEST SWAP4 POP SWAP4 POP POP PUSH1 0x60 PUSH2 0x17C5 DUP10 DUP3 DUP11 ADD PUSH2 0x155E JUMP JUMPDEST SWAP2 POP POP SWAP3 SWAP6 POP SWAP3 SWAP6 POP SWAP3 SWAP6 JUMP JUMPDEST PUSH0 PUSH1 0x20 DUP3 DUP5 SUB SLT ISZERO PUSH2 0x17E7 JUMPI PUSH2 0x17E6 PUSH2 0x11E5 JUMP JUMPDEST JUMPDEST PUSH0 PUSH2 0x17F4 DUP5 DUP3 DUP6 ADD PUSH2 0x120C JUMP JUMPDEST SWAP2 POP POP SWAP3 SWAP2 POP POP JUMP JUMPDEST PUSH0 DUP2 MLOAD SWAP1 POP SWAP2 SWAP1 POP JUMP JUMPDEST PUSH0 DUP3 DUP3 MSTORE PUSH1 0x20 DUP3 ADD SWAP1 POP SWAP3 SWAP2 POP POP JUMP JUMPDEST PUSH0 DUP2 SWAP1 POP PUSH1 0x20 DUP3 ADD SWAP1 POP SWAP2 SWAP1 POP JUMP JUMPDEST PUSH2 0x182F DUP2 PUSH2 0x13D5 JUMP JUMPDEST DUP3 MSTORE POP POP JUMP JUMPDEST PUSH0 PUSH2 0x1840 DUP4 DUP4 PUSH2 0x1826 JUMP JUMPDEST PUSH1 0x20 DUP4 ADD SWAP1 POP SWAP3 SWAP2 POP POP JUMP JUMPDEST PUSH0 PUSH1 0x20 DUP3 ADD SWAP1 POP SWAP2 SWAP1 POP JUMP JUMPDEST PUSH0 PUSH2 0x1862 DUP3 PUSH2 0x17FD JUMP JUMPDEST PUSH2 0x186C DUP2 DUP6 PUSH2 0x1807 JUMP JUMPDEST SWAP4 POP PUSH2 0x1877 DUP4 PUSH2 0x1817 JUMP JUMPDEST DUP1 PUSH0 JUMPDEST DUP4 DUP2 LT ISZERO PUSH2 0x18A7 JUMPI DUP2 MLOAD PUSH2 0x188E DUP9 DUP3 PUSH2 0x1835 JUMP JUMPDEST SWAP8 POP PUSH2 0x1899 DUP4 PUSH2 0x184C JUMP JUMPDEST SWAP3 POP POP PUSH1 0x1 DUP2 ADD SWAP1 POP PUSH2 0x187A JUMP JUMPDEST POP DUP6 SWAP4 POP POP POP POP SWAP3 SWAP2 POP POP JUMP JUMPDEST PUSH0 PUSH1 0x20 DUP3 ADD SWAP1 POP DUP2 DUP2 SUB PUSH0 DUP4 ADD MSTORE PUSH2 0x18CC DUP2 DUP5 PUSH2 0x1858 JUMP JUMPDEST SWAP1 POP SWAP3 SWAP2 POP POP JUMP JUMPDEST PUSH0 DUP2 MLOAD SWAP1 POP SWAP2 SWAP1 POP JUMP JUMPDEST PUSH0 DUP3 DUP3 MSTORE PUSH1 0x20 DUP3 ADD SWAP1 POP SWAP3 SWAP2 POP POP JUMP JUMPDEST DUP3 DUP2 DUP4 MCOPY PUSH0 DUP4 DUP4 ADD MSTORE POP POP POP JUMP JUMPDEST PUSH0 PUSH2 0x1906 DUP3 PUSH2 0x18D4 JUMP JUMPDEST PUSH2 0x1910 DUP2 DUP6 PUSH2 0x18DE JUMP JUMPDEST SWAP4 POP PUSH2 0x1920 DUP2 DUP6 PUSH1 0x20 DUP7 ADD PUSH2 0x18EE JUMP JUMPDEST PUSH2 0x1929 DUP2 PUSH2 0x1228 JUMP JUMPDEST DUP5 ADD SWAP2 POP POP SWAP3 SWAP2 POP POP JUMP JUMPDEST PUSH0 PUSH1 0x20 DUP3 ADD SWAP1 POP DUP2 DUP2 SUB PUSH0 DUP4 ADD MSTORE PUSH2 0x194C DUP2 DUP5 PUSH2 0x18FC JUMP JUMPDEST SWAP1 POP SWAP3 SWAP2 POP POP JUMP JUMPDEST PUSH0 DUP1 PUSH0 DUP1 PUSH1 0x60 DUP6 DUP8 SUB SLT ISZERO PUSH2 0x196C JUMPI PUSH2 0x196B PUSH2 0x11E5 JUMP JUMPDEST JUMPDEST PUSH0 PUSH2 0x1979 DUP8 DUP3 DUP9 ADD PUSH2 0x1455 JUMP JUMPDEST SWAP5 POP POP PUSH1 0x20 DUP6 ADD CALLDATALOAD PUSH8 0xFFFFFFFFFFFFFFFF DUP2 GT ISZERO PUSH2 0x199A JUMPI PUSH2 0x1999 PUSH2 0x11E9 JUMP JUMPDEST JUMPDEST PUSH2 0x19A6 DUP8 DUP3 DUP9 ADD PUSH2 0x14F3 JUMP JUMPDEST SWAP4 POP SWAP4 POP POP PUSH1 0x40 PUSH2 0x19B9 DUP8 DUP3 DUP9 ADD PUSH2 0x155E JUMP JUMPDEST SWAP2 POP POP SWAP3 SWAP6 SWAP2 SWAP5 POP SWAP3 POP JUMP JUMPDEST PUSH32 0x45434453413A20696E76616C6964207369676E6174757265206C656E67746800 PUSH0 DUP3 ADD MSTORE POP JUMP JUMPDEST PUSH0 PUSH2 0x19F9 PUSH1 0x1F DUP4 PUSH2 0x18DE JUMP JUMPDEST SWAP2 POP PUSH2 0x1A04 DUP3 PUSH2 0x19C5 JUMP JUMPDEST PUSH1 0x20 DUP3 ADD SWAP1 POP SWAP2 SWAP1 POP JUMP JUMPDEST PUSH0 PUSH1 0x20 DUP3 ADD SWAP1 POP DUP2 DUP2 SUB PUSH0 DUP4 ADD MSTORE PUSH2 0x1A26 DUP2 PUSH2 0x19ED JUMP JUMPDEST SWAP1 POP SWAP2 SWAP1 POP JUMP JUMPDEST PUSH0 PUSH8 0xFFFFFFFFFFFFFFFF DUP3 GT ISZERO PUSH2 0x1A47 JUMPI PUSH2 0x1A46 PUSH2 0x1238 JUMP JUMPDEST JUMPDEST PUSH1 0x20 DUP3 MUL SWAP1 POP PUSH1 0x20 DUP2 ADD SWAP1 POP SWAP2 SWAP1 POP JUMP JUMPDEST PUSH0 PUSH2 0x1A6A PUSH2 0x1A65 DUP5 PUSH2 0x1A2D JUMP JUMPDEST PUSH2 0x1296 JUMP JUMPDEST SWAP1 POP DUP1 DUP4 DUP3 MSTORE PUSH1 0x20 DUP3 ADD SWAP1 POP PUSH1 0x20 DUP5 MUL DUP4 ADD DUP6 DUP2 GT ISZERO PUSH2 0x1A8D JUMPI PUSH2 0x1A8C PUSH2 0x14EF JUMP JUMPDEST JUMPDEST DUP4 JUMPDEST DUP2 DUP2 LT ISZERO PUSH2 0x1AD4 JUMPI DUP1 CALLDATALOAD PUSH8 0xFFFFFFFFFFFFFFFF DUP2 GT ISZERO PUSH2 0x1AB2 JUMPI PUSH2 0x1AB1 PUSH2 0x1220 JUMP JUMPDEST JUMPDEST DUP1 DUP7 ADD PUSH2 0x1ABF DUP10 DUP3 PUSH2 0x132F JUMP JUMPDEST DUP6 MSTORE PUSH1 0x20 DUP6 ADD SWAP5 POP POP POP PUSH1 0x20 DUP2 ADD SWAP1 POP PUSH2 0x1A8F JUMP JUMPDEST POP POP POP SWAP4 SWAP3 POP POP POP JUMP JUMPDEST PUSH0 DUP3 PUSH1 0x1F DUP4 ADD SLT PUSH2 0x1AF2 JUMPI PUSH2 0x1AF1 PUSH2 0x1220 JUMP JUMPDEST JUMPDEST DUP2 CALLDATALOAD PUSH2 0x1B02 DUP5 DUP3 PUSH1 0x20 DUP7 ADD PUSH2 0x1A58 JUMP JUMPDEST SWAP2 POP POP SWAP3 SWAP2 POP POP JUMP JUMPDEST PUSH0 PUSH1 0x20 DUP3 DUP5 SUB SLT ISZERO PUSH2 0x1B20 JUMPI PUSH2 0x1B1F PUSH2 0x11E5 JUMP JUMPDEST JUMPDEST PUSH0 DUP3 ADD CALLDATALOAD PUSH8 0xFFFFFFFFFFFFFFFF DUP2 GT ISZERO PUSH2 0x1B3D JUMPI PUSH2 0x1B3C PUSH2 0x11E9 JUMP JUMPDEST JUMPDEST PUSH2 0x1B49 DUP5 DUP3 DUP6 ADD PUSH2 0x1ADE JUMP JUMPDEST SWAP2 POP POP SWAP3 SWAP2 POP POP JUMP JUMPDEST PUSH32 0x4E487B7100000000000000000000000000000000000000000000000000000000 PUSH0 MSTORE PUSH1 0x32 PUSH1 0x4 MSTORE PUSH1 0x24 PUSH0 REVERT JUMPDEST PUSH32 0x4E487B7100000000000000000000000000000000000000000000000000000000 PUSH0 MSTORE PUSH1 0x11 PUSH1 0x4 MSTORE PUSH1 0x24 PUSH0 REVERT JUMPDEST PUSH0 PUSH2 0x1BB6 DUP3 PUSH2 0x140E JUMP JUMPDEST SWAP2 POP PUSH32 0xFFFFFFFFFFFFFFFFFFFFFFFFFFFFFFFFFFFFFFFFFFFFFFFFFFFFFFFFFFFFFFFF DUP3 SUB PUSH2 0x1BE8 JUMPI PUSH2 0x1BE7 PUSH2 0x1B7F JUMP JUMPDEST JUMPDEST PUSH1 0x1 DUP3 ADD SWAP1 POP SWAP2 SWAP1 POP JUMP JUMPDEST PUSH0 DUP2 SWAP1 POP SWAP2 SWAP1 POP JUMP JUMPDEST PUSH0 PUSH8 0xFFFFFFFFFFFFFFFF DUP3 AND SWAP1 POP SWAP2 SWAP1 POP JUMP JUMPDEST PUSH0 DUP2 SWAP1 POP SWAP2 SWAP1 POP JUMP JUMPDEST PUSH0 PUSH2 0x1C32 PUSH2 0x1C2D PUSH2 0x1C28 DUP5 PUSH2 0x1BF3 JUMP JUMPDEST PUSH2 0x1C0F JUMP JUMPDEST PUSH2 0x1BFC JUMP JUMPDEST SWAP1 POP SWAP2 SWAP1 POP JUMP JUMPDEST PUSH2 0x1C42 DUP2 PUSH2 0x1C18 JUMP JUMPDEST DUP3 MSTORE POP POP JUMP JUMPDEST PUSH0 PUSH1 0x20 DUP3 ADD SWAP1 POP PUSH2 0x1C5B PUSH0 DUP4 ADD DUP5 PUSH2 0x1C39 JUMP JUMPDEST SWAP3 SWAP2 POP POP JUMP JUMPDEST PUSH32 0x57726F6E67205369676E61747572650000000000000000000000000000000000 PUSH0 DUP3 ADD MSTORE POP JUMP JUMPDEST PUSH0 PUSH2 0x1C95 PUSH1 0xF DUP4 PUSH2 0x18DE JUMP JUMPDEST SWAP2 POP PUSH2 0x1CA0 DUP3 PUSH2 0x1C61 JUMP JUMPDEST PUSH1 0x20 DUP3 ADD SWAP1 POP SWAP2 SWAP1 POP JUMP JUMPDEST PUSH0 PUSH1 0x20 DUP3 ADD SWAP1 POP DUP2 DUP2 SUB PUSH0 DUP4 ADD MSTORE PUSH2 0x1CC2 DUP2 PUSH2 0x1C89 JUMP JUMPDEST SWAP1 POP SWAP2 SWAP1 POP JUMP JUMPDEST PUSH0 DUP2 SWAP1 POP SWAP3 SWAP2 POP POP JUMP JUMPDEST PUSH32 0x19457468657265756D205369676E6564204D6573736167653A0A333200000000 PUSH0 DUP3 ADD MSTORE POP JUMP JUMPDEST PUSH0 PUSH2 0x1D07 PUSH1 0x1C DUP4 PUSH2 0x1CC9 JUMP JUMPDEST SWAP2 POP PUSH2 0x1D12 DUP3 PUSH2 0x1CD3 JUMP JUMPDEST PUSH1 0x1C DUP3 ADD SWAP1 POP SWAP2 SWAP1 POP JUMP JUMPDEST PUSH0 DUP2 SWAP1 POP SWAP2 SWAP1 POP JUMP JUMPDEST PUSH2 0x1D37 PUSH2 0x1D32 DUP3 PUSH2 0x11ED JUMP JUMPDEST PUSH2 0x1D1D JUMP JUMPDEST DUP3 MSTORE POP POP JUMP JUMPDEST PUSH0 PUSH2 0x1D47 DUP3 PUSH2 0x1CFB JUMP JUMPDEST SWAP2 POP PUSH2 0x1D53 DUP3 DUP5 PUSH2 0x1D26 JUMP JUMPDEST PUSH1 0x20 DUP3 ADD SWAP2 POP DUP2 SWAP1 POP SWAP3 SWAP2 POP POP JUMP JUMPDEST PUSH0 DUP2 PUSH1 0x60 SHL SWAP1 POP SWAP2 SWAP1 POP JUMP JUMPDEST PUSH0 PUSH2 0x1D78 DUP3 PUSH2 0x1D62 JUMP JUMPDEST SWAP1 POP SWAP2 SWAP1 POP JUMP JUMPDEST PUSH0 PUSH2 0x1D89 DUP3 PUSH2 0x1D6E JUMP JUMPDEST SWAP1 POP SWAP2 SWAP1 POP JUMP JUMPDEST PUSH2 0x1DA1 PUSH2 0x1D9C DUP3 PUSH2 0x13D5 JUMP JUMPDEST PUSH2 0x1D7F JUMP JUMPDEST DUP3 MSTORE POP POP JUMP JUMPDEST PUSH0 DUP2 SWAP1 POP SWAP3 SWAP2 POP POP JUMP JUMPDEST PUSH0 PUSH2 0x1DBC DUP4 DUP6 PUSH2 0x1DA7 JUMP JUMPDEST SWAP4 POP PUSH2 0x1DC9 DUP4 DUP6 DUP5 PUSH2 0x12E0 JUMP JUMPDEST DUP3 DUP5 ADD SWAP1 POP SWAP4 SWAP3 POP POP POP JUMP JUMPDEST PUSH0 DUP2 SWAP1 POP SWAP2 SWAP1 POP JUMP JUMPDEST PUSH2 0x1DEF PUSH2 0x1DEA DUP3 PUSH2 0x140E JUMP JUMPDEST PUSH2 0x1DD5 JUMP JUMPDEST DUP3 MSTORE POP POP JUMP JUMPDEST PUSH0 PUSH2 0x1E00 DUP3 DUP8 PUSH2 0x1D90 JUMP JUMPDEST PUSH1 0x14 DUP3 ADD SWAP2 POP PUSH2 0x1E11 DUP3 DUP6 DUP8 PUSH2 0x1DB1 JUMP JUMPDEST SWAP2 POP PUSH2 0x1E1D DUP3 DUP5 PUSH2 0x1DDE JUMP JUMPDEST PUSH1 0x20 DUP3 ADD SWAP2 POP DUP2 SWAP1 POP SWAP6 SWAP5 POP POP POP POP POP JUMP JUMPDEST PUSH32 0x45434453413A20696E76616C6964207369676E6174757265202773272076616C PUSH0 DUP3 ADD MSTORE PUSH32 0x7565000000000000000000000000000000000000000000000000000000000000 PUSH1 0x20 DUP3 ADD MSTORE POP JUMP JUMPDEST PUSH0 PUSH2 0x1E89 PUSH1 0x22 DUP4 PUSH2 0x18DE JUMP JUMPDEST SWAP2 POP PUSH2 0x1E94 DUP3 PUSH2 0x1E2F JUMP JUMPDEST PUSH1 0x40 DUP3 ADD SWAP1 POP SWAP2 SWAP1 POP JUMP JUMPDEST PUSH0 PUSH1 0x20 DUP3 ADD SWAP1 POP DUP2 DUP2 SUB PUSH0 DUP4 ADD MSTORE PUSH2 0x1EB6 DUP2 PUSH2 0x1E7D JUMP JUMPDEST SWAP1 POP SWAP2 SWAP1 POP JUMP JUMPDEST PUSH32 0x45434453413A20696E76616C6964207369676E6174757265202776272076616C PUSH0 DUP3 ADD MSTORE PUSH32 0x7565000000000000000000000000000000000000000000000000000000000000 PUSH1 0x20 DUP3 ADD MSTORE POP JUMP JUMPDEST PUSH0 PUSH2 0x1F17 PUSH1 0x22 DUP4 PUSH2 0x18DE JUMP JUMPDEST SWAP2 POP PUSH2 0x1F22 DUP3 PUSH2 0x1EBD JUMP JUMPDEST PUSH1 0x40 DUP3 ADD SWAP1 POP SWAP2 SWAP1 POP JUMP JUMPDEST PUSH0 PUSH1 0x20 DUP3 ADD SWAP1 POP DUP2 DUP2 SUB PUSH0 DUP4 ADD MSTORE PUSH2 0x1F44 DUP2 PUSH2 0x1F0B JUMP JUMPDEST SWAP1 POP SWAP2 SWAP1 POP JUMP JUMPDEST PUSH0 PUSH1 0xFF DUP3 AND SWAP1 POP SWAP2 SWAP1 POP JUMP JUMPDEST PUSH2 0x1F60 DUP2 PUSH2 0x1F4B JUMP JUMPDEST DUP3 MSTORE POP POP JUMP JUMPDEST PUSH0 PUSH1 0x80 DUP3 ADD SWAP1 POP PUSH2 0x1F79 PUSH0 DUP4 ADD DUP8 PUSH2 0x14C3 JUMP JUMPDEST PUSH2 0x1F86 PUSH1 0x20 DUP4 ADD DUP7 PUSH2 0x1F57 JUMP JUMPDEST PUSH2 0x1F93 PUSH1 0x40 DUP4 ADD DUP6 PUSH2 0x14C3 JUMP JUMPDEST PUSH2 0x1FA0 PUSH1 0x60 DUP4 ADD DUP5 PUSH2 0x14C3 JUMP JUMPDEST SWAP6 SWAP5 POP POP POP POP POP JUMP JUMPDEST PUSH32 0x45434453413A20696E76616C6964207369676E61747572650000000000000000 PUSH0 DUP3 ADD MSTORE POP JUMP JUMPDEST PUSH0 PUSH2 0x1FDD PUSH1 0x18 DUP4 PUSH2 0x18DE JUMP JUMPDEST SWAP2 POP PUSH2 0x1FE8 DUP3 PUSH2 0x1FA9 JUMP JUMPDEST PUSH1 0x20 DUP3 ADD SWAP1 POP SWAP2 SWAP1 POP JUMP JUMPDEST PUSH0 PUSH1 0x20 DUP3 ADD SWAP1 POP DUP2 DUP2 SUB PUSH0 DUP4 ADD MSTORE PUSH2 0x200A DUP2 PUSH2 0x1FD1 JUMP JUMPDEST SWAP1 POP SWAP2 SWAP1 POP JUMP JUMPDEST PUSH0 DUP2 MLOAD SWAP1 POP PUSH2 0x201F DUP2 PUSH2 0x11F6 JUMP JUMPDEST SWAP3 SWAP2 POP POP JUMP JUMPDEST PUSH0 PUSH1 0x20 DUP3 DUP5 SUB SLT ISZERO PUSH2 0x203A JUMPI PUSH2 0x2039 PUSH2 0x11E5 JUMP JUMPDEST JUMPDEST PUSH0 PUSH2 0x2047 DUP5 DUP3 DUP6 ADD PUSH2 0x2011 JUMP JUMPDEST SWAP2 POP POP SWAP3 SWAP2 POP POP JUMP JUMPDEST PUSH0 PUSH2 0x205C DUP3 DUP5 DUP7 PUSH2 0x1DB1 JUMP JUMPDEST SWAP2 POP DUP2 SWAP1 POP SWAP4 SWAP3 POP POP POP JUMP JUMPDEST PUSH32 0x457865637574696F6E204661696C656400000000000000000000000000000000 PUSH0 DUP3 ADD MSTORE POP JUMP JUMPDEST PUSH0 PUSH2 0x209C PUSH1 0x10 DUP4 PUSH2 0x18DE JUMP JUMPDEST SWAP2 POP PUSH2 0x20A7 DUP3 PUSH2 0x2068 JUMP JUMPDEST PUSH1 0x20 DUP3 ADD SWAP1 POP SWAP2 SWAP1 POP JUMP JUMPDEST PUSH0 PUSH1 0x20 DUP3 ADD SWAP1 POP DUP2 DUP2 SUB PUSH0 DUP4 ADD MSTORE PUSH2 0x20C9 DUP2 PUSH2 0x2090 JUMP JUMPDEST SWAP1 POP SWAP2 SWAP1 POP JUMP JUMPDEST PUSH0 DUP2 MLOAD SWAP1 POP SWAP2 SWAP1 POP JUMP JUMPDEST PUSH0 PUSH2 0x20E4 DUP3 PUSH2 0x20D0 JUMP JUMPDEST PUSH2 0x20EE DUP2 DUP6 PUSH2 0x1DA7 JUMP JUMPDEST SWAP4 POP PUSH2 0x20FE DUP2 DUP6 PUSH1 0x20 DUP7 ADD PUSH2 0x18EE JUMP JUMPDEST DUP1 DUP5 ADD SWAP2 POP POP SWAP3 SWAP2 POP POP JUMP JUMPDEST PUSH0 PUSH2 0x2115 DUP3 DUP5 PUSH2 0x20DA JUMP JUMPDEST SWAP2 POP DUP2 SWAP1 POP SWAP3 SWAP2 POP POP JUMP INVALID LOG2 PUSH5 0x6970667358 0x22 SLT KECCAK256 DUP2 COINBASE PUSH1 0xDD DUP7 MCOPY SWAP3 0xC1 0xBB CHAINID CREATE2 0xBA PUSH21 0x4D49C380C659CC8D2D045C25E4A95B1AB449E56473 PUSH16 0x6C634300081A00330000000000000000 "
				},
				"gasEstimates": {
					"creation": {
						"codeDepositCost": "1706800",
						"executionCost": "infinite",
						"totalCost": "infinite"
					},
					"external": {
						"UPGRADE_INTERFACE_VERSION()": "infinite",
						"checkSignature(bytes,bytes,address,uint256)": "infinite",
						"execute(address,bytes,bytes,uint256)": "infinite",
						"getMinimumRequiredSignatures()": "2455",
						"getSigners()": "infinite",
						"getTransactionHash(address,bytes,uint256)": "infinite",
						"initialize(address[],uint256)": "infinite",
						"proxiableUUID()": "infinite",
						"recover(bytes32,bytes)": "infinite",
						"toEthSignedMessageHash(bytes32)": "infinite",
						"upgradeToAndCall(address,bytes)": "infinite"
					},
					"internal": {
						"_authorizeUpgrade(address)": "11",
						"_call(address,bytes calldata)": "infinite"
					}
				},
				"methodIdentifiers": {
					"UPGRADE_INTERFACE_VERSION()": "ad3cb1cc",
					"checkSignature(bytes,bytes,address,uint256)": "5c37410b",
					"execute(address,bytes,bytes,uint256)": "72a26031",
					"getMinimumRequiredSignatures()": "24951ba1",
					"getSigners()": "94cf795e",
					"getTransactionHash(address,bytes,uint256)": "ee9a4550",
					"initialize(address[],uint256)": "60b5bb3f",
					"proxiableUUID()": "52d1902d",
					"recover(bytes32,bytes)": "19045a25",
					"toEthSignedMessageHash(bytes32)": "918a15cf",
					"upgradeToAndCall(address,bytes)": "4f1ef286"
				}
			},
			"storageLayout": {
				"storage": [
					{
						"astId": 1266,
						"contract": "src/MultiSig.sol:MultiSigWallet",
						"label": "s_minRequiredSignatures",
						"offset": 0,
						"slot": "0",
						"type": "t_uint256"
					},
					{
						"astId": 1269,
						"contract": "src/MultiSig.sol:MultiSigWallet",
						"label": "s_signers",
						"offset": 0,
						"slot": "1",
						"type": "t_array(t_address)dyn_storage"
					},
					{
						"astId": 1273,
						"contract": "src/MultiSig.sol:MultiSigWallet",
						"label": "s_isSigner",
						"offset": 0,
						"slot": "2",
						"type": "t_mapping(t_address,t_bool)"
					},
					{
						"astId": 1277,
						"contract": "src/MultiSig.sol:MultiSigWallet",
						"label": "s_nonces",
						"offset": 0,
						"slot": "3",
						"type": "t_mapping(t_address,t_uint256)"
					}
				],
				"types": {
					"t_address": {
						"encoding": "inplace",
						"label": "address",
						"numberOfBytes": "20"
					},
					"t_array(t_address)dyn_storage": {
						"base": "t_address",
						"encoding": "dynamic_array",
						"label": "address[]",
						"numberOfBytes": "32"
					},
					"t_bool": {
						"encoding": "inplace",
						"label": "bool",
						"numberOfBytes": "1"
					},
					"t_mapping(t_address,t_bool)": {
						"encoding": "mapping",
						"key": "t_address",
						"label": "mapping(address => bool)",
						"numberOfBytes": "32",
						"value": "t_bool"
					},
					"t_mapping(t_address,t_uint256)": {
						"encoding": "mapping",
						"key": "t_address",
						"label": "mapping(address => uint256)",
						"numberOfBytes": "32",
						"value": "t_uint256"
					},
					"t_uint256": {
						"encoding": "inplace",
						"label": "uint256",
						"numberOfBytes": "32"
					}
				}
			},
			"userdoc": {
				"kind": "user",
				"methods": {},
				"version": 1
			}
		}
	}
}